{
	"data": {
		"bytecode": {
			"linkReferences": {},
			"object": "608060405234801562000010575f80fd5b5060405162001aa938038062001aa983398181016040528101906200003691906200055b565b6040518060400160405280600681526020017f674b696d626f00000000000000000000000000000000000000000000000000008152506040518060400160405280600481526020017f474b4d42000000000000000000000000000000000000000000000000000000008152508160039081620000b39190620007e1565b508060049081620000c59190620007e1565b5050508060059081620000d99190620007e1565b506200011933620000ef6200012060201b60201c565b600a620000fd919062000a4e565b620f42406200010d919062000a9e565b6200012860201b60201c565b5062000be7565b5f6012905090565b5f73ffffffffffffffffffffffffffffffffffffffff168273ffffffffffffffffffffffffffffffffffffffff16036200019b575f6040517fec442f0500000000000000000000000000000000000000000000000000000000815260040162000192919062000b2b565b60405180910390fd5b620001ae5f8383620001b260201b60201c565b5050565b5f73ffffffffffffffffffffffffffffffffffffffff168373ffffffffffffffffffffffffffffffffffffffff160362000206578060025f828254620001f9919062000b46565b92505081905550620002d7565b5f805f8573ffffffffffffffffffffffffffffffffffffffff1673ffffffffffffffffffffffffffffffffffffffff1681526020019081526020015f205490508181101562000292578381836040517fe450d38c000000000000000000000000000000000000000000000000000000008152600401620002899392919062000b91565b60405180910390fd5b8181035f808673ffffffffffffffffffffffffffffffffffffffff1673ffffffffffffffffffffffffffffffffffffffff1681526020019081526020015f2081905550505b5f73ffffffffffffffffffffffffffffffffffffffff168273ffffffffffffffffffffffffffffffffffffffff160362000320578060025f82825403925050819055506200036a565b805f808473ffffffffffffffffffffffffffffffffffffffff1673ffffffffffffffffffffffffffffffffffffffff1681526020019081526020015f205f82825401925050819055505b8173ffffffffffffffffffffffffffffffffffffffff168373ffffffffffffffffffffffffffffffffffffffff167fddf252ad1be2c89b69c2b068fc378daa952ba7f163c4a11628f55a4df523b3ef83604051620003c9919062000bcc565b60405180910390a3505050565b5f604051905090565b5f80fd5b5f80fd5b5f80fd5b5f80fd5b5f601f19601f8301169050919050565b7f4e487b71000000000000000000000000000000000000000000000000000000005f52604160045260245ffd5b6200043782620003ef565b810181811067ffffffffffffffff82111715620004595762000458620003ff565b5b80604052505050565b5f6200046d620003d6565b90506200047b82826200042c565b919050565b5f67ffffffffffffffff8211156200049d576200049c620003ff565b5b620004a882620003ef565b9050602081019050919050565b5f5b83811015620004d4578082015181840152602081019050620004b7565b5f8484015250505050565b5f620004f5620004ef8462000480565b62000462565b905082815260208101848484011115620005145762000513620003eb565b5b62000521848285620004b5565b509392505050565b5f82601f83011262000540576200053f620003e7565b5b815162000552848260208601620004df565b91505092915050565b5f60208284031215620005735762000572620003df565b5b5f82015167ffffffffffffffff811115620005935762000592620003e3565b5b620005a18482850162000529565b91505092915050565b5f81519050919050565b7f4e487b71000000000000000000000000000000000000000000000000000000005f52602260045260245ffd5b5f6002820490506001821680620005f957607f821691505b6020821081036200060f576200060e620005b4565b5b50919050565b5f819050815f5260205f209050919050565b5f6020601f8301049050919050565b5f82821b905092915050565b5f60088302620006737fffffffffffffffffffffffffffffffffffffffffffffffffffffffffffffffff8262000636565b6200067f868362000636565b95508019841693508086168417925050509392505050565b5f819050919050565b5f819050919050565b5f620006c9620006c3620006bd8462000697565b620006a0565b62000697565b9050919050565b5f819050919050565b620006e483620006a9565b620006fc620006f382620006d0565b84845462000642565b825550505050565b5f90565b6200071262000704565b6200071f818484620006d9565b505050565b5b8181101562000746576200073a5f8262000708565b60018101905062000725565b5050565b601f82111562000795576200075f8162000615565b6200076a8462000627565b810160208510156200077a578190505b62000792620007898562000627565b83018262000724565b50505b505050565b5f82821c905092915050565b5f620007b75f19846008026200079a565b1980831691505092915050565b5f620007d18383620007a6565b9150826002028217905092915050565b620007ec82620005aa565b67ffffffffffffffff811115620008085762000807620003ff565b5b620008148254620005e1565b620008218282856200074a565b5f60209050601f83116001811462000857575f841562000842578287015190505b6200084e8582620007c4565b865550620008bd565b601f198416620008678662000615565b5f5b82811015620008905784890151825560018201915060208501945060208101905062000869565b86831015620008b05784890151620008ac601f891682620007a6565b8355505b6001600288020188555050505b505050505050565b7f4e487b71000000000000000000000000000000000000000000000000000000005f52601160045260245ffd5b5f8160011c9050919050565b5f808291508390505b60018511156200094f57808604811115620009275762000926620008c5565b5b6001851615620009375780820291505b80810290506200094785620008f2565b945062000907565b94509492505050565b5f8262000969576001905062000a3b565b8162000978575f905062000a3b565b81600181146200099157600281146200099c57620009d2565b600191505062000a3b565b60ff841115620009b157620009b0620008c5565b5b8360020a915084821115620009cb57620009ca620008c5565b5b5062000a3b565b5060208310610133831016604e8410600b841016171562000a0c5782820a90508381111562000a065762000a05620008c5565b5b62000a3b565b62000a1b8484846001620008fe565b9250905081840481111562000a355762000a34620008c5565b5b81810290505b9392505050565b5f60ff82169050919050565b5f62000a5a8262000697565b915062000a678362000a42565b925062000a967fffffffffffffffffffffffffffffffffffffffffffffffffffffffffffffffff848462000958565b905092915050565b5f62000aaa8262000697565b915062000ab78362000697565b925082820262000ac78162000697565b9150828204841483151762000ae15762000ae0620008c5565b5b5092915050565b5f73ffffffffffffffffffffffffffffffffffffffff82169050919050565b5f62000b138262000ae8565b9050919050565b62000b258162000b07565b82525050565b5f60208201905062000b405f83018462000b1a565b92915050565b5f62000b528262000697565b915062000b5f8362000697565b925082820190508082111562000b7a5762000b79620008c5565b5b92915050565b62000b8b8162000697565b82525050565b5f60608201905062000ba65f83018662000b1a565b62000bb5602083018562000b80565b62000bc4604083018462000b80565b949350505050565b5f60208201905062000be15f83018462000b80565b92915050565b610eb48062000bf55f395ff3fe608060405234801561000f575f80fd5b506004361061009c575f3560e01c8063313ce56711610064578063313ce5671461015a57806370a082311461017857806395d89b41146101a8578063a9059cbb146101c6578063dd62ed3e146101f65761009c565b806306fdde03146100a0578063095ea7b3146100be578063135d088d146100ee57806318160ddd1461010c57806323b872dd1461012a575b5f80fd5b6100a8610226565b6040516100b59190610b2d565b60405180910390f35b6100d860048036038101906100d39190610bde565b6102b6565b6040516100e59190610c36565b60405180910390f35b6100f66102d8565b6040516101039190610b2d565b60405180910390f35b610114610368565b6040516101219190610c5e565b60405180910390f35b610144600480360381019061013f9190610c77565b610371565b6040516101519190610c36565b60405180910390f35b61016261039f565b60405161016f9190610ce2565b60405180910390f35b610192600480360381019061018d9190610cfb565b6103a7565b60405161019f9190610c5e565b60405180910390f35b6101b06103ec565b6040516101bd9190610b2d565b60405180910390f35b6101e060048036038101906101db9190610bde565b61047c565b6040516101ed9190610c36565b60405180910390f35b610210600480360381019061020b9190610d26565b61049e565b60405161021d9190610c5e565b60405180910390f35b60606003805461023590610d91565b80601f016020809104026020016040519081016040528092919081815260200182805461026190610d91565b80156102ac5780601f10610283576101008083540402835291602001916102ac565b820191905f5260205f20905b81548152906001019060200180831161028f57829003601f168201915b5050505050905090565b5f806102c0610520565b90506102cd818585610527565b600191505092915050565b6060600580546102e790610d91565b80601f016020809104026020016040519081016040528092919081815260200182805461031390610d91565b801561035e5780601f106103355761010080835404028352916020019161035e565b820191905f5260205f20905b81548152906001019060200180831161034157829003601f168201915b5050505050905090565b5f600254905090565b5f8061037b610520565b9050610388858285610539565b6103938585856105cb565b60019150509392505050565b5f6012905090565b5f805f8373ffffffffffffffffffffffffffffffffffffffff1673ffffffffffffffffffffffffffffffffffffffff1681526020019081526020015f20549050919050565b6060600480546103fb90610d91565b80601f016020809104026020016040519081016040528092919081815260200182805461042790610d91565b80156104725780601f1061044957610100808354040283529160200191610472565b820191905f5260205f20905b81548152906001019060200180831161045557829003601f168201915b5050505050905090565b5f80610486610520565b90506104938185856105cb565b600191505092915050565b5f60015f8473ffffffffffffffffffffffffffffffffffffffff1673ffffffffffffffffffffffffffffffffffffffff1681526020019081526020015f205f8373ffffffffffffffffffffffffffffffffffffffff1673ffffffffffffffffffffffffffffffffffffffff1681526020019081526020015f2054905092915050565b5f33905090565b61053483838360016106bb565b505050565b5f610544848461049e565b90507fffffffffffffffffffffffffffffffffffffffffffffffffffffffffffffffff81146105c557818110156105b6578281836040517ffb8f41b20000000000000000000000000000000000000000000000000000000081526004016105ad93929190610dd0565b60405180910390fd5b6105c484848484035f6106bb565b5b50505050565b5f73ffffffffffffffffffffffffffffffffffffffff168373ffffffffffffffffffffffffffffffffffffffff160361063b575f6040517f96c6fd1e0000000000000000000000000000000000000000000000000000000081526004016106329190610e05565b60405180910390fd5b5f73ffffffffffffffffffffffffffffffffffffffff168273ffffffffffffffffffffffffffffffffffffffff16036106ab575f6040517fec442f050000000000000000000000000000000000000000000000000000000081526004016106a29190610e05565b60405180910390fd5b6106b683838361088a565b505050565b5f73ffffffffffffffffffffffffffffffffffffffff168473ffffffffffffffffffffffffffffffffffffffff160361072b575f6040517fe602df050000000000000000000000000000000000000000000000000000000081526004016107229190610e05565b60405180910390fd5b5f73ffffffffffffffffffffffffffffffffffffffff168373ffffffffffffffffffffffffffffffffffffffff160361079b575f6040517f94280d620000000000000000000000000000000000000000000000000000000081526004016107929190610e05565b60405180910390fd5b8160015f8673ffffffffffffffffffffffffffffffffffffffff1673ffffffffffffffffffffffffffffffffffffffff1681526020019081526020015f205f8573ffffffffffffffffffffffffffffffffffffffff1673ffffffffffffffffffffffffffffffffffffffff1681526020019081526020015f20819055508015610884578273ffffffffffffffffffffffffffffffffffffffff168473ffffffffffffffffffffffffffffffffffffffff167f8c5be1e5ebec7d5bd14f71427d1e84f3dd0314c0f7b2291e5b200ac8c7c3b9258460405161087b9190610c5e565b60405180910390a35b50505050565b5f73ffffffffffffffffffffffffffffffffffffffff168373ffffffffffffffffffffffffffffffffffffffff16036108da578060025f8282546108ce9190610e4b565b925050819055506109a8565b5f805f8573ffffffffffffffffffffffffffffffffffffffff1673ffffffffffffffffffffffffffffffffffffffff1681526020019081526020015f2054905081811015610963578381836040517fe450d38c00000000000000000000000000000000000000000000000000000000815260040161095a93929190610dd0565b60405180910390fd5b8181035f808673ffffffffffffffffffffffffffffffffffffffff1673ffffffffffffffffffffffffffffffffffffffff1681526020019081526020015f2081905550505b5f73ffffffffffffffffffffffffffffffffffffffff168273ffffffffffffffffffffffffffffffffffffffff16036109ef578060025f8282540392505081905550610a39565b805f808473ffffffffffffffffffffffffffffffffffffffff1673ffffffffffffffffffffffffffffffffffffffff1681526020019081526020015f205f82825401925050819055505b8173ffffffffffffffffffffffffffffffffffffffff168373ffffffffffffffffffffffffffffffffffffffff167fddf252ad1be2c89b69c2b068fc378daa952ba7f163c4a11628f55a4df523b3ef83604051610a969190610c5e565b60405180910390a3505050565b5f81519050919050565b5f82825260208201905092915050565b5f5b83811015610ada578082015181840152602081019050610abf565b5f8484015250505050565b5f601f19601f8301169050919050565b5f610aff82610aa3565b610b098185610aad565b9350610b19818560208601610abd565b610b2281610ae5565b840191505092915050565b5f6020820190508181035f830152610b458184610af5565b905092915050565b5f80fd5b5f73ffffffffffffffffffffffffffffffffffffffff82169050919050565b5f610b7a82610b51565b9050919050565b610b8a81610b70565b8114610b94575f80fd5b50565b5f81359050610ba581610b81565b92915050565b5f819050919050565b610bbd81610bab565b8114610bc7575f80fd5b50565b5f81359050610bd881610bb4565b92915050565b5f8060408385031215610bf457610bf3610b4d565b5b5f610c0185828601610b97565b9250506020610c1285828601610bca565b9150509250929050565b5f8115159050919050565b610c3081610c1c565b82525050565b5f602082019050610c495f830184610c27565b92915050565b610c5881610bab565b82525050565b5f602082019050610c715f830184610c4f565b92915050565b5f805f60608486031215610c8e57610c8d610b4d565b5b5f610c9b86828701610b97565b9350506020610cac86828701610b97565b9250506040610cbd86828701610bca565b9150509250925092565b5f60ff82169050919050565b610cdc81610cc7565b82525050565b5f602082019050610cf55f830184610cd3565b92915050565b5f60208284031215610d1057610d0f610b4d565b5b5f610d1d84828501610b97565b91505092915050565b5f8060408385031215610d3c57610d3b610b4d565b5b5f610d4985828601610b97565b9250506020610d5a85828601610b97565b9150509250929050565b7f4e487b71000000000000000000000000000000000000000000000000000000005f52602260045260245ffd5b5f6002820490506001821680610da857607f821691505b602082108103610dbb57610dba610d64565b5b50919050565b610dca81610b70565b82525050565b5f606082019050610de35f830186610dc1565b610df06020830185610c4f565b610dfd6040830184610c4f565b949350505050565b5f602082019050610e185f830184610dc1565b92915050565b7f4e487b71000000000000000000000000000000000000000000000000000000005f52601160045260245ffd5b5f610e5582610bab565b9150610e6083610bab565b9250828201905080821115610e7857610e77610e1e565b5b9291505056fea2646970667358221220fecf0e4fe3270e6725104962aa54f189bb537446b79465ae381759f16ff3f5e364736f6c63430008180033",
			"opcodes": "PUSH1 0x80 PUSH1 0x40 MSTORE CALLVALUE DUP1 ISZERO PUSH3 0x10 JUMPI PUSH0 DUP1 REVERT JUMPDEST POP PUSH1 0x40 MLOAD PUSH3 0x1AA9 CODESIZE SUB DUP1 PUSH3 0x1AA9 DUP4 CODECOPY DUP2 DUP2 ADD PUSH1 0x40 MSTORE DUP2 ADD SWAP1 PUSH3 0x36 SWAP2 SWAP1 PUSH3 0x55B JUMP JUMPDEST PUSH1 0x40 MLOAD DUP1 PUSH1 0x40 ADD PUSH1 0x40 MSTORE DUP1 PUSH1 0x6 DUP2 MSTORE PUSH1 0x20 ADD PUSH32 0x674B696D626F0000000000000000000000000000000000000000000000000000 DUP2 MSTORE POP PUSH1 0x40 MLOAD DUP1 PUSH1 0x40 ADD PUSH1 0x40 MSTORE DUP1 PUSH1 0x4 DUP2 MSTORE PUSH1 0x20 ADD PUSH32 0x474B4D4200000000000000000000000000000000000000000000000000000000 DUP2 MSTORE POP DUP2 PUSH1 0x3 SWAP1 DUP2 PUSH3 0xB3 SWAP2 SWAP1 PUSH3 0x7E1 JUMP JUMPDEST POP DUP1 PUSH1 0x4 SWAP1 DUP2 PUSH3 0xC5 SWAP2 SWAP1 PUSH3 0x7E1 JUMP JUMPDEST POP POP POP DUP1 PUSH1 0x5 SWAP1 DUP2 PUSH3 0xD9 SWAP2 SWAP1 PUSH3 0x7E1 JUMP JUMPDEST POP PUSH3 0x119 CALLER PUSH3 0xEF PUSH3 0x120 PUSH1 0x20 SHL PUSH1 0x20 SHR JUMP JUMPDEST PUSH1 0xA PUSH3 0xFD SWAP2 SWAP1 PUSH3 0xA4E JUMP JUMPDEST PUSH3 0xF4240 PUSH3 0x10D SWAP2 SWAP1 PUSH3 0xA9E JUMP JUMPDEST PUSH3 0x128 PUSH1 0x20 SHL PUSH1 0x20 SHR JUMP JUMPDEST POP PUSH3 0xBE7 JUMP JUMPDEST PUSH0 PUSH1 0x12 SWAP1 POP SWAP1 JUMP JUMPDEST PUSH0 PUSH20 0xFFFFFFFFFFFFFFFFFFFFFFFFFFFFFFFFFFFFFFFF AND DUP3 PUSH20 0xFFFFFFFFFFFFFFFFFFFFFFFFFFFFFFFFFFFFFFFF AND SUB PUSH3 0x19B JUMPI PUSH0 PUSH1 0x40 MLOAD PUSH32 0xEC442F0500000000000000000000000000000000000000000000000000000000 DUP2 MSTORE PUSH1 0x4 ADD PUSH3 0x192 SWAP2 SWAP1 PUSH3 0xB2B JUMP JUMPDEST PUSH1 0x40 MLOAD DUP1 SWAP2 SUB SWAP1 REVERT JUMPDEST PUSH3 0x1AE PUSH0 DUP4 DUP4 PUSH3 0x1B2 PUSH1 0x20 SHL PUSH1 0x20 SHR JUMP JUMPDEST POP POP JUMP JUMPDEST PUSH0 PUSH20 0xFFFFFFFFFFFFFFFFFFFFFFFFFFFFFFFFFFFFFFFF AND DUP4 PUSH20 0xFFFFFFFFFFFFFFFFFFFFFFFFFFFFFFFFFFFFFFFF AND SUB PUSH3 0x206 JUMPI DUP1 PUSH1 0x2 PUSH0 DUP3 DUP3 SLOAD PUSH3 0x1F9 SWAP2 SWAP1 PUSH3 0xB46 JUMP JUMPDEST SWAP3 POP POP DUP2 SWAP1 SSTORE POP PUSH3 0x2D7 JUMP JUMPDEST PUSH0 DUP1 PUSH0 DUP6 PUSH20 0xFFFFFFFFFFFFFFFFFFFFFFFFFFFFFFFFFFFFFFFF AND PUSH20 0xFFFFFFFFFFFFFFFFFFFFFFFFFFFFFFFFFFFFFFFF AND DUP2 MSTORE PUSH1 0x20 ADD SWAP1 DUP2 MSTORE PUSH1 0x20 ADD PUSH0 KECCAK256 SLOAD SWAP1 POP DUP2 DUP2 LT ISZERO PUSH3 0x292 JUMPI DUP4 DUP2 DUP4 PUSH1 0x40 MLOAD PUSH32 0xE450D38C00000000000000000000000000000000000000000000000000000000 DUP2 MSTORE PUSH1 0x4 ADD PUSH3 0x289 SWAP4 SWAP3 SWAP2 SWAP1 PUSH3 0xB91 JUMP JUMPDEST PUSH1 0x40 MLOAD DUP1 SWAP2 SUB SWAP1 REVERT JUMPDEST DUP2 DUP2 SUB PUSH0 DUP1 DUP7 PUSH20 0xFFFFFFFFFFFFFFFFFFFFFFFFFFFFFFFFFFFFFFFF AND PUSH20 0xFFFFFFFFFFFFFFFFFFFFFFFFFFFFFFFFFFFFFFFF AND DUP2 MSTORE PUSH1 0x20 ADD SWAP1 DUP2 MSTORE PUSH1 0x20 ADD PUSH0 KECCAK256 DUP2 SWAP1 SSTORE POP POP JUMPDEST PUSH0 PUSH20 0xFFFFFFFFFFFFFFFFFFFFFFFFFFFFFFFFFFFFFFFF AND DUP3 PUSH20 0xFFFFFFFFFFFFFFFFFFFFFFFFFFFFFFFFFFFFFFFF AND SUB PUSH3 0x320 JUMPI DUP1 PUSH1 0x2 PUSH0 DUP3 DUP3 SLOAD SUB SWAP3 POP POP DUP2 SWAP1 SSTORE POP PUSH3 0x36A JUMP JUMPDEST DUP1 PUSH0 DUP1 DUP5 PUSH20 0xFFFFFFFFFFFFFFFFFFFFFFFFFFFFFFFFFFFFFFFF AND PUSH20 0xFFFFFFFFFFFFFFFFFFFFFFFFFFFFFFFFFFFFFFFF AND DUP2 MSTORE PUSH1 0x20 ADD SWAP1 DUP2 MSTORE PUSH1 0x20 ADD PUSH0 KECCAK256 PUSH0 DUP3 DUP3 SLOAD ADD SWAP3 POP POP DUP2 SWAP1 SSTORE POP JUMPDEST DUP2 PUSH20 0xFFFFFFFFFFFFFFFFFFFFFFFFFFFFFFFFFFFFFFFF AND DUP4 PUSH20 0xFFFFFFFFFFFFFFFFFFFFFFFFFFFFFFFFFFFFFFFF AND PUSH32 0xDDF252AD1BE2C89B69C2B068FC378DAA952BA7F163C4A11628F55A4DF523B3EF DUP4 PUSH1 0x40 MLOAD PUSH3 0x3C9 SWAP2 SWAP1 PUSH3 0xBCC JUMP JUMPDEST PUSH1 0x40 MLOAD DUP1 SWAP2 SUB SWAP1 LOG3 POP POP POP JUMP JUMPDEST PUSH0 PUSH1 0x40 MLOAD SWAP1 POP SWAP1 JUMP JUMPDEST PUSH0 DUP1 REVERT JUMPDEST PUSH0 DUP1 REVERT JUMPDEST PUSH0 DUP1 REVERT JUMPDEST PUSH0 DUP1 REVERT JUMPDEST PUSH0 PUSH1 0x1F NOT PUSH1 0x1F DUP4 ADD AND SWAP1 POP SWAP2 SWAP1 POP JUMP JUMPDEST PUSH32 0x4E487B7100000000000000000000000000000000000000000000000000000000 PUSH0 MSTORE PUSH1 0x41 PUSH1 0x4 MSTORE PUSH1 0x24 PUSH0 REVERT JUMPDEST PUSH3 0x437 DUP3 PUSH3 0x3EF JUMP JUMPDEST DUP2 ADD DUP2 DUP2 LT PUSH8 0xFFFFFFFFFFFFFFFF DUP3 GT OR ISZERO PUSH3 0x459 JUMPI PUSH3 0x458 PUSH3 0x3FF JUMP JUMPDEST JUMPDEST DUP1 PUSH1 0x40 MSTORE POP POP POP JUMP JUMPDEST PUSH0 PUSH3 0x46D PUSH3 0x3D6 JUMP JUMPDEST SWAP1 POP PUSH3 0x47B DUP3 DUP3 PUSH3 0x42C JUMP JUMPDEST SWAP2 SWAP1 POP JUMP JUMPDEST PUSH0 PUSH8 0xFFFFFFFFFFFFFFFF DUP3 GT ISZERO PUSH3 0x49D JUMPI PUSH3 0x49C PUSH3 0x3FF JUMP JUMPDEST JUMPDEST PUSH3 0x4A8 DUP3 PUSH3 0x3EF JUMP JUMPDEST SWAP1 POP PUSH1 0x20 DUP2 ADD SWAP1 POP SWAP2 SWAP1 POP JUMP JUMPDEST PUSH0 JUMPDEST DUP4 DUP2 LT ISZERO PUSH3 0x4D4 JUMPI DUP1 DUP3 ADD MLOAD DUP2 DUP5 ADD MSTORE PUSH1 0x20 DUP2 ADD SWAP1 POP PUSH3 0x4B7 JUMP JUMPDEST PUSH0 DUP5 DUP5 ADD MSTORE POP POP POP POP JUMP JUMPDEST PUSH0 PUSH3 0x4F5 PUSH3 0x4EF DUP5 PUSH3 0x480 JUMP JUMPDEST PUSH3 0x462 JUMP JUMPDEST SWAP1 POP DUP3 DUP2 MSTORE PUSH1 0x20 DUP2 ADD DUP5 DUP5 DUP5 ADD GT ISZERO PUSH3 0x514 JUMPI PUSH3 0x513 PUSH3 0x3EB JUMP JUMPDEST JUMPDEST PUSH3 0x521 DUP5 DUP3 DUP6 PUSH3 0x4B5 JUMP JUMPDEST POP SWAP4 SWAP3 POP POP POP JUMP JUMPDEST PUSH0 DUP3 PUSH1 0x1F DUP4 ADD SLT PUSH3 0x540 JUMPI PUSH3 0x53F PUSH3 0x3E7 JUMP JUMPDEST JUMPDEST DUP2 MLOAD PUSH3 0x552 DUP5 DUP3 PUSH1 0x20 DUP7 ADD PUSH3 0x4DF JUMP JUMPDEST SWAP2 POP POP SWAP3 SWAP2 POP POP JUMP JUMPDEST PUSH0 PUSH1 0x20 DUP3 DUP5 SUB SLT ISZERO PUSH3 0x573 JUMPI PUSH3 0x572 PUSH3 0x3DF JUMP JUMPDEST JUMPDEST PUSH0 DUP3 ADD MLOAD PUSH8 0xFFFFFFFFFFFFFFFF DUP2 GT ISZERO PUSH3 0x593 JUMPI PUSH3 0x592 PUSH3 0x3E3 JUMP JUMPDEST JUMPDEST PUSH3 0x5A1 DUP5 DUP3 DUP6 ADD PUSH3 0x529 JUMP JUMPDEST SWAP2 POP POP SWAP3 SWAP2 POP POP JUMP JUMPDEST PUSH0 DUP2 MLOAD SWAP1 POP SWAP2 SWAP1 POP JUMP JUMPDEST PUSH32 0x4E487B7100000000000000000000000000000000000000000000000000000000 PUSH0 MSTORE PUSH1 0x22 PUSH1 0x4 MSTORE PUSH1 0x24 PUSH0 REVERT JUMPDEST PUSH0 PUSH1 0x2 DUP3 DIV SWAP1 POP PUSH1 0x1 DUP3 AND DUP1 PUSH3 0x5F9 JUMPI PUSH1 0x7F DUP3 AND SWAP2 POP JUMPDEST PUSH1 0x20 DUP3 LT DUP2 SUB PUSH3 0x60F JUMPI PUSH3 0x60E PUSH3 0x5B4 JUMP JUMPDEST JUMPDEST POP SWAP2 SWAP1 POP JUMP JUMPDEST PUSH0 DUP2 SWAP1 POP DUP2 PUSH0 MSTORE PUSH1 0x20 PUSH0 KECCAK256 SWAP1 POP SWAP2 SWAP1 POP JUMP JUMPDEST PUSH0 PUSH1 0x20 PUSH1 0x1F DUP4 ADD DIV SWAP1 POP SWAP2 SWAP1 POP JUMP JUMPDEST PUSH0 DUP3 DUP3 SHL SWAP1 POP SWAP3 SWAP2 POP POP JUMP JUMPDEST PUSH0 PUSH1 0x8 DUP4 MUL PUSH3 0x673 PUSH32 0xFFFFFFFFFFFFFFFFFFFFFFFFFFFFFFFFFFFFFFFFFFFFFFFFFFFFFFFFFFFFFFFF DUP3 PUSH3 0x636 JUMP JUMPDEST PUSH3 0x67F DUP7 DUP4 PUSH3 0x636 JUMP JUMPDEST SWAP6 POP DUP1 NOT DUP5 AND SWAP4 POP DUP1 DUP7 AND DUP5 OR SWAP3 POP POP POP SWAP4 SWAP3 POP POP POP JUMP JUMPDEST PUSH0 DUP2 SWAP1 POP SWAP2 SWAP1 POP JUMP JUMPDEST PUSH0 DUP2 SWAP1 POP SWAP2 SWAP1 POP JUMP JUMPDEST PUSH0 PUSH3 0x6C9 PUSH3 0x6C3 PUSH3 0x6BD DUP5 PUSH3 0x697 JUMP JUMPDEST PUSH3 0x6A0 JUMP JUMPDEST PUSH3 0x697 JUMP JUMPDEST SWAP1 POP SWAP2 SWAP1 POP JUMP JUMPDEST PUSH0 DUP2 SWAP1 POP SWAP2 SWAP1 POP JUMP JUMPDEST PUSH3 0x6E4 DUP4 PUSH3 0x6A9 JUMP JUMPDEST PUSH3 0x6FC PUSH3 0x6F3 DUP3 PUSH3 0x6D0 JUMP JUMPDEST DUP5 DUP5 SLOAD PUSH3 0x642 JUMP JUMPDEST DUP3 SSTORE POP POP POP POP JUMP JUMPDEST PUSH0 SWAP1 JUMP JUMPDEST PUSH3 0x712 PUSH3 0x704 JUMP JUMPDEST PUSH3 0x71F DUP2 DUP5 DUP5 PUSH3 0x6D9 JUMP JUMPDEST POP POP POP JUMP JUMPDEST JUMPDEST DUP2 DUP2 LT ISZERO PUSH3 0x746 JUMPI PUSH3 0x73A PUSH0 DUP3 PUSH3 0x708 JUMP JUMPDEST PUSH1 0x1 DUP2 ADD SWAP1 POP PUSH3 0x725 JUMP JUMPDEST POP POP JUMP JUMPDEST PUSH1 0x1F DUP3 GT ISZERO PUSH3 0x795 JUMPI PUSH3 0x75F DUP2 PUSH3 0x615 JUMP JUMPDEST PUSH3 0x76A DUP5 PUSH3 0x627 JUMP JUMPDEST DUP2 ADD PUSH1 0x20 DUP6 LT ISZERO PUSH3 0x77A JUMPI DUP2 SWAP1 POP JUMPDEST PUSH3 0x792 PUSH3 0x789 DUP6 PUSH3 0x627 JUMP JUMPDEST DUP4 ADD DUP3 PUSH3 0x724 JUMP JUMPDEST POP POP JUMPDEST POP POP POP JUMP JUMPDEST PUSH0 DUP3 DUP3 SHR SWAP1 POP SWAP3 SWAP2 POP POP JUMP JUMPDEST PUSH0 PUSH3 0x7B7 PUSH0 NOT DUP5 PUSH1 0x8 MUL PUSH3 0x79A JUMP JUMPDEST NOT DUP1 DUP4 AND SWAP2 POP POP SWAP3 SWAP2 POP POP JUMP JUMPDEST PUSH0 PUSH3 0x7D1 DUP4 DUP4 PUSH3 0x7A6 JUMP JUMPDEST SWAP2 POP DUP3 PUSH1 0x2 MUL DUP3 OR SWAP1 POP SWAP3 SWAP2 POP POP JUMP JUMPDEST PUSH3 0x7EC DUP3 PUSH3 0x5AA JUMP JUMPDEST PUSH8 0xFFFFFFFFFFFFFFFF DUP2 GT ISZERO PUSH3 0x808 JUMPI PUSH3 0x807 PUSH3 0x3FF JUMP JUMPDEST JUMPDEST PUSH3 0x814 DUP3 SLOAD PUSH3 0x5E1 JUMP JUMPDEST PUSH3 0x821 DUP3 DUP3 DUP6 PUSH3 0x74A JUMP JUMPDEST PUSH0 PUSH1 0x20 SWAP1 POP PUSH1 0x1F DUP4 GT PUSH1 0x1 DUP2 EQ PUSH3 0x857 JUMPI PUSH0 DUP5 ISZERO PUSH3 0x842 JUMPI DUP3 DUP8 ADD MLOAD SWAP1 POP JUMPDEST PUSH3 0x84E DUP6 DUP3 PUSH3 0x7C4 JUMP JUMPDEST DUP7 SSTORE POP PUSH3 0x8BD JUMP JUMPDEST PUSH1 0x1F NOT DUP5 AND PUSH3 0x867 DUP7 PUSH3 0x615 JUMP JUMPDEST PUSH0 JUMPDEST DUP3 DUP2 LT ISZERO PUSH3 0x890 JUMPI DUP5 DUP10 ADD MLOAD DUP3 SSTORE PUSH1 0x1 DUP3 ADD SWAP2 POP PUSH1 0x20 DUP6 ADD SWAP5 POP PUSH1 0x20 DUP2 ADD SWAP1 POP PUSH3 0x869 JUMP JUMPDEST DUP7 DUP4 LT ISZERO PUSH3 0x8B0 JUMPI DUP5 DUP10 ADD MLOAD PUSH3 0x8AC PUSH1 0x1F DUP10 AND DUP3 PUSH3 0x7A6 JUMP JUMPDEST DUP4 SSTORE POP JUMPDEST PUSH1 0x1 PUSH1 0x2 DUP9 MUL ADD DUP9 SSTORE POP POP POP JUMPDEST POP POP POP POP POP POP JUMP JUMPDEST PUSH32 0x4E487B7100000000000000000000000000000000000000000000000000000000 PUSH0 MSTORE PUSH1 0x11 PUSH1 0x4 MSTORE PUSH1 0x24 PUSH0 REVERT JUMPDEST PUSH0 DUP2 PUSH1 0x1 SHR SWAP1 POP SWAP2 SWAP1 POP JUMP JUMPDEST PUSH0 DUP1 DUP3 SWAP2 POP DUP4 SWAP1 POP JUMPDEST PUSH1 0x1 DUP6 GT ISZERO PUSH3 0x94F JUMPI DUP1 DUP7 DIV DUP2 GT ISZERO PUSH3 0x927 JUMPI PUSH3 0x926 PUSH3 0x8C5 JUMP JUMPDEST JUMPDEST PUSH1 0x1 DUP6 AND ISZERO PUSH3 0x937 JUMPI DUP1 DUP3 MUL SWAP2 POP JUMPDEST DUP1 DUP2 MUL SWAP1 POP PUSH3 0x947 DUP6 PUSH3 0x8F2 JUMP JUMPDEST SWAP5 POP PUSH3 0x907 JUMP JUMPDEST SWAP5 POP SWAP5 SWAP3 POP POP POP JUMP JUMPDEST PUSH0 DUP3 PUSH3 0x969 JUMPI PUSH1 0x1 SWAP1 POP PUSH3 0xA3B JUMP JUMPDEST DUP2 PUSH3 0x978 JUMPI PUSH0 SWAP1 POP PUSH3 0xA3B JUMP JUMPDEST DUP2 PUSH1 0x1 DUP2 EQ PUSH3 0x991 JUMPI PUSH1 0x2 DUP2 EQ PUSH3 0x99C JUMPI PUSH3 0x9D2 JUMP JUMPDEST PUSH1 0x1 SWAP2 POP POP PUSH3 0xA3B JUMP JUMPDEST PUSH1 0xFF DUP5 GT ISZERO PUSH3 0x9B1 JUMPI PUSH3 0x9B0 PUSH3 0x8C5 JUMP JUMPDEST JUMPDEST DUP4 PUSH1 0x2 EXP SWAP2 POP DUP5 DUP3 GT ISZERO PUSH3 0x9CB JUMPI PUSH3 0x9CA PUSH3 0x8C5 JUMP JUMPDEST JUMPDEST POP PUSH3 0xA3B JUMP JUMPDEST POP PUSH1 0x20 DUP4 LT PUSH2 0x133 DUP4 LT AND PUSH1 0x4E DUP5 LT PUSH1 0xB DUP5 LT AND OR ISZERO PUSH3 0xA0C JUMPI DUP3 DUP3 EXP SWAP1 POP DUP4 DUP2 GT ISZERO PUSH3 0xA06 JUMPI PUSH3 0xA05 PUSH3 0x8C5 JUMP JUMPDEST JUMPDEST PUSH3 0xA3B JUMP JUMPDEST PUSH3 0xA1B DUP5 DUP5 DUP5 PUSH1 0x1 PUSH3 0x8FE JUMP JUMPDEST SWAP3 POP SWAP1 POP DUP2 DUP5 DIV DUP2 GT ISZERO PUSH3 0xA35 JUMPI PUSH3 0xA34 PUSH3 0x8C5 JUMP JUMPDEST JUMPDEST DUP2 DUP2 MUL SWAP1 POP JUMPDEST SWAP4 SWAP3 POP POP POP JUMP JUMPDEST PUSH0 PUSH1 0xFF DUP3 AND SWAP1 POP SWAP2 SWAP1 POP JUMP JUMPDEST PUSH0 PUSH3 0xA5A DUP3 PUSH3 0x697 JUMP JUMPDEST SWAP2 POP PUSH3 0xA67 DUP4 PUSH3 0xA42 JUMP JUMPDEST SWAP3 POP PUSH3 0xA96 PUSH32 0xFFFFFFFFFFFFFFFFFFFFFFFFFFFFFFFFFFFFFFFFFFFFFFFFFFFFFFFFFFFFFFFF DUP5 DUP5 PUSH3 0x958 JUMP JUMPDEST SWAP1 POP SWAP3 SWAP2 POP POP JUMP JUMPDEST PUSH0 PUSH3 0xAAA DUP3 PUSH3 0x697 JUMP JUMPDEST SWAP2 POP PUSH3 0xAB7 DUP4 PUSH3 0x697 JUMP JUMPDEST SWAP3 POP DUP3 DUP3 MUL PUSH3 0xAC7 DUP2 PUSH3 0x697 JUMP JUMPDEST SWAP2 POP DUP3 DUP3 DIV DUP5 EQ DUP4 ISZERO OR PUSH3 0xAE1 JUMPI PUSH3 0xAE0 PUSH3 0x8C5 JUMP JUMPDEST JUMPDEST POP SWAP3 SWAP2 POP POP JUMP JUMPDEST PUSH0 PUSH20 0xFFFFFFFFFFFFFFFFFFFFFFFFFFFFFFFFFFFFFFFF DUP3 AND SWAP1 POP SWAP2 SWAP1 POP JUMP JUMPDEST PUSH0 PUSH3 0xB13 DUP3 PUSH3 0xAE8 JUMP JUMPDEST SWAP1 POP SWAP2 SWAP1 POP JUMP JUMPDEST PUSH3 0xB25 DUP2 PUSH3 0xB07 JUMP JUMPDEST DUP3 MSTORE POP POP JUMP JUMPDEST PUSH0 PUSH1 0x20 DUP3 ADD SWAP1 POP PUSH3 0xB40 PUSH0 DUP4 ADD DUP5 PUSH3 0xB1A JUMP JUMPDEST SWAP3 SWAP2 POP POP JUMP JUMPDEST PUSH0 PUSH3 0xB52 DUP3 PUSH3 0x697 JUMP JUMPDEST SWAP2 POP PUSH3 0xB5F DUP4 PUSH3 0x697 JUMP JUMPDEST SWAP3 POP DUP3 DUP3 ADD SWAP1 POP DUP1 DUP3 GT ISZERO PUSH3 0xB7A JUMPI PUSH3 0xB79 PUSH3 0x8C5 JUMP JUMPDEST JUMPDEST SWAP3 SWAP2 POP POP JUMP JUMPDEST PUSH3 0xB8B DUP2 PUSH3 0x697 JUMP JUMPDEST DUP3 MSTORE POP POP JUMP JUMPDEST PUSH0 PUSH1 0x60 DUP3 ADD SWAP1 POP PUSH3 0xBA6 PUSH0 DUP4 ADD DUP7 PUSH3 0xB1A JUMP JUMPDEST PUSH3 0xBB5 PUSH1 0x20 DUP4 ADD DUP6 PUSH3 0xB80 JUMP JUMPDEST PUSH3 0xBC4 PUSH1 0x40 DUP4 ADD DUP5 PUSH3 0xB80 JUMP JUMPDEST SWAP5 SWAP4 POP POP POP POP JUMP JUMPDEST PUSH0 PUSH1 0x20 DUP3 ADD SWAP1 POP PUSH3 0xBE1 PUSH0 DUP4 ADD DUP5 PUSH3 0xB80 JUMP JUMPDEST SWAP3 SWAP2 POP POP JUMP JUMPDEST PUSH2 0xEB4 DUP1 PUSH3 0xBF5 PUSH0 CODECOPY PUSH0 RETURN INVALID PUSH1 0x80 PUSH1 0x40 MSTORE CALLVALUE DUP1 ISZERO PUSH2 0xF JUMPI PUSH0 DUP1 REVERT JUMPDEST POP PUSH1 0x4 CALLDATASIZE LT PUSH2 0x9C JUMPI PUSH0 CALLDATALOAD PUSH1 0xE0 SHR DUP1 PUSH4 0x313CE567 GT PUSH2 0x64 JUMPI DUP1 PUSH4 0x313CE567 EQ PUSH2 0x15A JUMPI DUP1 PUSH4 0x70A08231 EQ PUSH2 0x178 JUMPI DUP1 PUSH4 0x95D89B41 EQ PUSH2 0x1A8 JUMPI DUP1 PUSH4 0xA9059CBB EQ PUSH2 0x1C6 JUMPI DUP1 PUSH4 0xDD62ED3E EQ PUSH2 0x1F6 JUMPI PUSH2 0x9C JUMP JUMPDEST DUP1 PUSH4 0x6FDDE03 EQ PUSH2 0xA0 JUMPI DUP1 PUSH4 0x95EA7B3 EQ PUSH2 0xBE JUMPI DUP1 PUSH4 0x135D088D EQ PUSH2 0xEE JUMPI DUP1 PUSH4 0x18160DDD EQ PUSH2 0x10C JUMPI DUP1 PUSH4 0x23B872DD EQ PUSH2 0x12A JUMPI JUMPDEST PUSH0 DUP1 REVERT JUMPDEST PUSH2 0xA8 PUSH2 0x226 JUMP JUMPDEST PUSH1 0x40 MLOAD PUSH2 0xB5 SWAP2 SWAP1 PUSH2 0xB2D JUMP JUMPDEST PUSH1 0x40 MLOAD DUP1 SWAP2 SUB SWAP1 RETURN JUMPDEST PUSH2 0xD8 PUSH1 0x4 DUP1 CALLDATASIZE SUB DUP2 ADD SWAP1 PUSH2 0xD3 SWAP2 SWAP1 PUSH2 0xBDE JUMP JUMPDEST PUSH2 0x2B6 JUMP JUMPDEST PUSH1 0x40 MLOAD PUSH2 0xE5 SWAP2 SWAP1 PUSH2 0xC36 JUMP JUMPDEST PUSH1 0x40 MLOAD DUP1 SWAP2 SUB SWAP1 RETURN JUMPDEST PUSH2 0xF6 PUSH2 0x2D8 JUMP JUMPDEST PUSH1 0x40 MLOAD PUSH2 0x103 SWAP2 SWAP1 PUSH2 0xB2D JUMP JUMPDEST PUSH1 0x40 MLOAD DUP1 SWAP2 SUB SWAP1 RETURN JUMPDEST PUSH2 0x114 PUSH2 0x368 JUMP JUMPDEST PUSH1 0x40 MLOAD PUSH2 0x121 SWAP2 SWAP1 PUSH2 0xC5E JUMP JUMPDEST PUSH1 0x40 MLOAD DUP1 SWAP2 SUB SWAP1 RETURN JUMPDEST PUSH2 0x144 PUSH1 0x4 DUP1 CALLDATASIZE SUB DUP2 ADD SWAP1 PUSH2 0x13F SWAP2 SWAP1 PUSH2 0xC77 JUMP JUMPDEST PUSH2 0x371 JUMP JUMPDEST PUSH1 0x40 MLOAD PUSH2 0x151 SWAP2 SWAP1 PUSH2 0xC36 JUMP JUMPDEST PUSH1 0x40 MLOAD DUP1 SWAP2 SUB SWAP1 RETURN JUMPDEST PUSH2 0x162 PUSH2 0x39F JUMP JUMPDEST PUSH1 0x40 MLOAD PUSH2 0x16F SWAP2 SWAP1 PUSH2 0xCE2 JUMP JUMPDEST PUSH1 0x40 MLOAD DUP1 SWAP2 SUB SWAP1 RETURN JUMPDEST PUSH2 0x192 PUSH1 0x4 DUP1 CALLDATASIZE SUB DUP2 ADD SWAP1 PUSH2 0x18D SWAP2 SWAP1 PUSH2 0xCFB JUMP JUMPDEST PUSH2 0x3A7 JUMP JUMPDEST PUSH1 0x40 MLOAD PUSH2 0x19F SWAP2 SWAP1 PUSH2 0xC5E JUMP JUMPDEST PUSH1 0x40 MLOAD DUP1 SWAP2 SUB SWAP1 RETURN JUMPDEST PUSH2 0x1B0 PUSH2 0x3EC JUMP JUMPDEST PUSH1 0x40 MLOAD PUSH2 0x1BD SWAP2 SWAP1 PUSH2 0xB2D JUMP JUMPDEST PUSH1 0x40 MLOAD DUP1 SWAP2 SUB SWAP1 RETURN JUMPDEST PUSH2 0x1E0 PUSH1 0x4 DUP1 CALLDATASIZE SUB DUP2 ADD SWAP1 PUSH2 0x1DB SWAP2 SWAP1 PUSH2 0xBDE JUMP JUMPDEST PUSH2 0x47C JUMP JUMPDEST PUSH1 0x40 MLOAD PUSH2 0x1ED SWAP2 SWAP1 PUSH2 0xC36 JUMP JUMPDEST PUSH1 0x40 MLOAD DUP1 SWAP2 SUB SWAP1 RETURN JUMPDEST PUSH2 0x210 PUSH1 0x4 DUP1 CALLDATASIZE SUB DUP2 ADD SWAP1 PUSH2 0x20B SWAP2 SWAP1 PUSH2 0xD26 JUMP JUMPDEST PUSH2 0x49E JUMP JUMPDEST PUSH1 0x40 MLOAD PUSH2 0x21D SWAP2 SWAP1 PUSH2 0xC5E JUMP JUMPDEST PUSH1 0x40 MLOAD DUP1 SWAP2 SUB SWAP1 RETURN JUMPDEST PUSH1 0x60 PUSH1 0x3 DUP1 SLOAD PUSH2 0x235 SWAP1 PUSH2 0xD91 JUMP JUMPDEST DUP1 PUSH1 0x1F ADD PUSH1 0x20 DUP1 SWAP2 DIV MUL PUSH1 0x20 ADD PUSH1 0x40 MLOAD SWAP1 DUP2 ADD PUSH1 0x40 MSTORE DUP1 SWAP3 SWAP2 SWAP1 DUP2 DUP2 MSTORE PUSH1 0x20 ADD DUP3 DUP1 SLOAD PUSH2 0x261 SWAP1 PUSH2 0xD91 JUMP JUMPDEST DUP1 ISZERO PUSH2 0x2AC JUMPI DUP1 PUSH1 0x1F LT PUSH2 0x283 JUMPI PUSH2 0x100 DUP1 DUP4 SLOAD DIV MUL DUP4 MSTORE SWAP2 PUSH1 0x20 ADD SWAP2 PUSH2 0x2AC JUMP JUMPDEST DUP3 ADD SWAP2 SWAP1 PUSH0 MSTORE PUSH1 0x20 PUSH0 KECCAK256 SWAP1 JUMPDEST DUP2 SLOAD DUP2 MSTORE SWAP1 PUSH1 0x1 ADD SWAP1 PUSH1 0x20 ADD DUP1 DUP4 GT PUSH2 0x28F JUMPI DUP3 SWAP1 SUB PUSH1 0x1F AND DUP3 ADD SWAP2 JUMPDEST POP POP POP POP POP SWAP1 POP SWAP1 JUMP JUMPDEST PUSH0 DUP1 PUSH2 0x2C0 PUSH2 0x520 JUMP JUMPDEST SWAP1 POP PUSH2 0x2CD DUP2 DUP6 DUP6 PUSH2 0x527 JUMP JUMPDEST PUSH1 0x1 SWAP2 POP POP SWAP3 SWAP2 POP POP JUMP JUMPDEST PUSH1 0x60 PUSH1 0x5 DUP1 SLOAD PUSH2 0x2E7 SWAP1 PUSH2 0xD91 JUMP JUMPDEST DUP1 PUSH1 0x1F ADD PUSH1 0x20 DUP1 SWAP2 DIV MUL PUSH1 0x20 ADD PUSH1 0x40 MLOAD SWAP1 DUP2 ADD PUSH1 0x40 MSTORE DUP1 SWAP3 SWAP2 SWAP1 DUP2 DUP2 MSTORE PUSH1 0x20 ADD DUP3 DUP1 SLOAD PUSH2 0x313 SWAP1 PUSH2 0xD91 JUMP JUMPDEST DUP1 ISZERO PUSH2 0x35E JUMPI DUP1 PUSH1 0x1F LT PUSH2 0x335 JUMPI PUSH2 0x100 DUP1 DUP4 SLOAD DIV MUL DUP4 MSTORE SWAP2 PUSH1 0x20 ADD SWAP2 PUSH2 0x35E JUMP JUMPDEST DUP3 ADD SWAP2 SWAP1 PUSH0 MSTORE PUSH1 0x20 PUSH0 KECCAK256 SWAP1 JUMPDEST DUP2 SLOAD DUP2 MSTORE SWAP1 PUSH1 0x1 ADD SWAP1 PUSH1 0x20 ADD DUP1 DUP4 GT PUSH2 0x341 JUMPI DUP3 SWAP1 SUB PUSH1 0x1F AND DUP3 ADD SWAP2 JUMPDEST POP POP POP POP POP SWAP1 POP SWAP1 JUMP JUMPDEST PUSH0 PUSH1 0x2 SLOAD SWAP1 POP SWAP1 JUMP JUMPDEST PUSH0 DUP1 PUSH2 0x37B PUSH2 0x520 JUMP JUMPDEST SWAP1 POP PUSH2 0x388 DUP6 DUP3 DUP6 PUSH2 0x539 JUMP JUMPDEST PUSH2 0x393 DUP6 DUP6 DUP6 PUSH2 0x5CB JUMP JUMPDEST PUSH1 0x1 SWAP2 POP POP SWAP4 SWAP3 POP POP POP JUMP JUMPDEST PUSH0 PUSH1 0x12 SWAP1 POP SWAP1 JUMP JUMPDEST PUSH0 DUP1 PUSH0 DUP4 PUSH20 0xFFFFFFFFFFFFFFFFFFFFFFFFFFFFFFFFFFFFFFFF AND PUSH20 0xFFFFFFFFFFFFFFFFFFFFFFFFFFFFFFFFFFFFFFFF AND DUP2 MSTORE PUSH1 0x20 ADD SWAP1 DUP2 MSTORE PUSH1 0x20 ADD PUSH0 KECCAK256 SLOAD SWAP1 POP SWAP2 SWAP1 POP JUMP JUMPDEST PUSH1 0x60 PUSH1 0x4 DUP1 SLOAD PUSH2 0x3FB SWAP1 PUSH2 0xD91 JUMP JUMPDEST DUP1 PUSH1 0x1F ADD PUSH1 0x20 DUP1 SWAP2 DIV MUL PUSH1 0x20 ADD PUSH1 0x40 MLOAD SWAP1 DUP2 ADD PUSH1 0x40 MSTORE DUP1 SWAP3 SWAP2 SWAP1 DUP2 DUP2 MSTORE PUSH1 0x20 ADD DUP3 DUP1 SLOAD PUSH2 0x427 SWAP1 PUSH2 0xD91 JUMP JUMPDEST DUP1 ISZERO PUSH2 0x472 JUMPI DUP1 PUSH1 0x1F LT PUSH2 0x449 JUMPI PUSH2 0x100 DUP1 DUP4 SLOAD DIV MUL DUP4 MSTORE SWAP2 PUSH1 0x20 ADD SWAP2 PUSH2 0x472 JUMP JUMPDEST DUP3 ADD SWAP2 SWAP1 PUSH0 MSTORE PUSH1 0x20 PUSH0 KECCAK256 SWAP1 JUMPDEST DUP2 SLOAD DUP2 MSTORE SWAP1 PUSH1 0x1 ADD SWAP1 PUSH1 0x20 ADD DUP1 DUP4 GT PUSH2 0x455 JUMPI DUP3 SWAP1 SUB PUSH1 0x1F AND DUP3 ADD SWAP2 JUMPDEST POP POP POP POP POP SWAP1 POP SWAP1 JUMP JUMPDEST PUSH0 DUP1 PUSH2 0x486 PUSH2 0x520 JUMP JUMPDEST SWAP1 POP PUSH2 0x493 DUP2 DUP6 DUP6 PUSH2 0x5CB JUMP JUMPDEST PUSH1 0x1 SWAP2 POP POP SWAP3 SWAP2 POP POP JUMP JUMPDEST PUSH0 PUSH1 0x1 PUSH0 DUP5 PUSH20 0xFFFFFFFFFFFFFFFFFFFFFFFFFFFFFFFFFFFFFFFF AND PUSH20 0xFFFFFFFFFFFFFFFFFFFFFFFFFFFFFFFFFFFFFFFF AND DUP2 MSTORE PUSH1 0x20 ADD SWAP1 DUP2 MSTORE PUSH1 0x20 ADD PUSH0 KECCAK256 PUSH0 DUP4 PUSH20 0xFFFFFFFFFFFFFFFFFFFFFFFFFFFFFFFFFFFFFFFF AND PUSH20 0xFFFFFFFFFFFFFFFFFFFFFFFFFFFFFFFFFFFFFFFF AND DUP2 MSTORE PUSH1 0x20 ADD SWAP1 DUP2 MSTORE PUSH1 0x20 ADD PUSH0 KECCAK256 SLOAD SWAP1 POP SWAP3 SWAP2 POP POP JUMP JUMPDEST PUSH0 CALLER SWAP1 POP SWAP1 JUMP JUMPDEST PUSH2 0x534 DUP4 DUP4 DUP4 PUSH1 0x1 PUSH2 0x6BB JUMP JUMPDEST POP POP POP JUMP JUMPDEST PUSH0 PUSH2 0x544 DUP5 DUP5 PUSH2 0x49E JUMP JUMPDEST SWAP1 POP PUSH32 0xFFFFFFFFFFFFFFFFFFFFFFFFFFFFFFFFFFFFFFFFFFFFFFFFFFFFFFFFFFFFFFFF DUP2 EQ PUSH2 0x5C5 JUMPI DUP2 DUP2 LT ISZERO PUSH2 0x5B6 JUMPI DUP3 DUP2 DUP4 PUSH1 0x40 MLOAD PUSH32 0xFB8F41B200000000000000000000000000000000000000000000000000000000 DUP2 MSTORE PUSH1 0x4 ADD PUSH2 0x5AD SWAP4 SWAP3 SWAP2 SWAP1 PUSH2 0xDD0 JUMP JUMPDEST PUSH1 0x40 MLOAD DUP1 SWAP2 SUB SWAP1 REVERT JUMPDEST PUSH2 0x5C4 DUP5 DUP5 DUP5 DUP5 SUB PUSH0 PUSH2 0x6BB JUMP JUMPDEST JUMPDEST POP POP POP POP JUMP JUMPDEST PUSH0 PUSH20 0xFFFFFFFFFFFFFFFFFFFFFFFFFFFFFFFFFFFFFFFF AND DUP4 PUSH20 0xFFFFFFFFFFFFFFFFFFFFFFFFFFFFFFFFFFFFFFFF AND SUB PUSH2 0x63B JUMPI PUSH0 PUSH1 0x40 MLOAD PUSH32 0x96C6FD1E00000000000000000000000000000000000000000000000000000000 DUP2 MSTORE PUSH1 0x4 ADD PUSH2 0x632 SWAP2 SWAP1 PUSH2 0xE05 JUMP JUMPDEST PUSH1 0x40 MLOAD DUP1 SWAP2 SUB SWAP1 REVERT JUMPDEST PUSH0 PUSH20 0xFFFFFFFFFFFFFFFFFFFFFFFFFFFFFFFFFFFFFFFF AND DUP3 PUSH20 0xFFFFFFFFFFFFFFFFFFFFFFFFFFFFFFFFFFFFFFFF AND SUB PUSH2 0x6AB JUMPI PUSH0 PUSH1 0x40 MLOAD PUSH32 0xEC442F0500000000000000000000000000000000000000000000000000000000 DUP2 MSTORE PUSH1 0x4 ADD PUSH2 0x6A2 SWAP2 SWAP1 PUSH2 0xE05 JUMP JUMPDEST PUSH1 0x40 MLOAD DUP1 SWAP2 SUB SWAP1 REVERT JUMPDEST PUSH2 0x6B6 DUP4 DUP4 DUP4 PUSH2 0x88A JUMP JUMPDEST POP POP POP JUMP JUMPDEST PUSH0 PUSH20 0xFFFFFFFFFFFFFFFFFFFFFFFFFFFFFFFFFFFFFFFF AND DUP5 PUSH20 0xFFFFFFFFFFFFFFFFFFFFFFFFFFFFFFFFFFFFFFFF AND SUB PUSH2 0x72B JUMPI PUSH0 PUSH1 0x40 MLOAD PUSH32 0xE602DF0500000000000000000000000000000000000000000000000000000000 DUP2 MSTORE PUSH1 0x4 ADD PUSH2 0x722 SWAP2 SWAP1 PUSH2 0xE05 JUMP JUMPDEST PUSH1 0x40 MLOAD DUP1 SWAP2 SUB SWAP1 REVERT JUMPDEST PUSH0 PUSH20 0xFFFFFFFFFFFFFFFFFFFFFFFFFFFFFFFFFFFFFFFF AND DUP4 PUSH20 0xFFFFFFFFFFFFFFFFFFFFFFFFFFFFFFFFFFFFFFFF AND SUB PUSH2 0x79B JUMPI PUSH0 PUSH1 0x40 MLOAD PUSH32 0x94280D6200000000000000000000000000000000000000000000000000000000 DUP2 MSTORE PUSH1 0x4 ADD PUSH2 0x792 SWAP2 SWAP1 PUSH2 0xE05 JUMP JUMPDEST PUSH1 0x40 MLOAD DUP1 SWAP2 SUB SWAP1 REVERT JUMPDEST DUP2 PUSH1 0x1 PUSH0 DUP7 PUSH20 0xFFFFFFFFFFFFFFFFFFFFFFFFFFFFFFFFFFFFFFFF AND PUSH20 0xFFFFFFFFFFFFFFFFFFFFFFFFFFFFFFFFFFFFFFFF AND DUP2 MSTORE PUSH1 0x20 ADD SWAP1 DUP2 MSTORE PUSH1 0x20 ADD PUSH0 KECCAK256 PUSH0 DUP6 PUSH20 0xFFFFFFFFFFFFFFFFFFFFFFFFFFFFFFFFFFFFFFFF AND PUSH20 0xFFFFFFFFFFFFFFFFFFFFFFFFFFFFFFFFFFFFFFFF AND DUP2 MSTORE PUSH1 0x20 ADD SWAP1 DUP2 MSTORE PUSH1 0x20 ADD PUSH0 KECCAK256 DUP2 SWAP1 SSTORE POP DUP1 ISZERO PUSH2 0x884 JUMPI DUP3 PUSH20 0xFFFFFFFFFFFFFFFFFFFFFFFFFFFFFFFFFFFFFFFF AND DUP5 PUSH20 0xFFFFFFFFFFFFFFFFFFFFFFFFFFFFFFFFFFFFFFFF AND PUSH32 0x8C5BE1E5EBEC7D5BD14F71427D1E84F3DD0314C0F7B2291E5B200AC8C7C3B925 DUP5 PUSH1 0x40 MLOAD PUSH2 0x87B SWAP2 SWAP1 PUSH2 0xC5E JUMP JUMPDEST PUSH1 0x40 MLOAD DUP1 SWAP2 SUB SWAP1 LOG3 JUMPDEST POP POP POP POP JUMP JUMPDEST PUSH0 PUSH20 0xFFFFFFFFFFFFFFFFFFFFFFFFFFFFFFFFFFFFFFFF AND DUP4 PUSH20 0xFFFFFFFFFFFFFFFFFFFFFFFFFFFFFFFFFFFFFFFF AND SUB PUSH2 0x8DA JUMPI DUP1 PUSH1 0x2 PUSH0 DUP3 DUP3 SLOAD PUSH2 0x8CE SWAP2 SWAP1 PUSH2 0xE4B JUMP JUMPDEST SWAP3 POP POP DUP2 SWAP1 SSTORE POP PUSH2 0x9A8 JUMP JUMPDEST PUSH0 DUP1 PUSH0 DUP6 PUSH20 0xFFFFFFFFFFFFFFFFFFFFFFFFFFFFFFFFFFFFFFFF AND PUSH20 0xFFFFFFFFFFFFFFFFFFFFFFFFFFFFFFFFFFFFFFFF AND DUP2 MSTORE PUSH1 0x20 ADD SWAP1 DUP2 MSTORE PUSH1 0x20 ADD PUSH0 KECCAK256 SLOAD SWAP1 POP DUP2 DUP2 LT ISZERO PUSH2 0x963 JUMPI DUP4 DUP2 DUP4 PUSH1 0x40 MLOAD PUSH32 0xE450D38C00000000000000000000000000000000000000000000000000000000 DUP2 MSTORE PUSH1 0x4 ADD PUSH2 0x95A SWAP4 SWAP3 SWAP2 SWAP1 PUSH2 0xDD0 JUMP JUMPDEST PUSH1 0x40 MLOAD DUP1 SWAP2 SUB SWAP1 REVERT JUMPDEST DUP2 DUP2 SUB PUSH0 DUP1 DUP7 PUSH20 0xFFFFFFFFFFFFFFFFFFFFFFFFFFFFFFFFFFFFFFFF AND PUSH20 0xFFFFFFFFFFFFFFFFFFFFFFFFFFFFFFFFFFFFFFFF AND DUP2 MSTORE PUSH1 0x20 ADD SWAP1 DUP2 MSTORE PUSH1 0x20 ADD PUSH0 KECCAK256 DUP2 SWAP1 SSTORE POP POP JUMPDEST PUSH0 PUSH20 0xFFFFFFFFFFFFFFFFFFFFFFFFFFFFFFFFFFFFFFFF AND DUP3 PUSH20 0xFFFFFFFFFFFFFFFFFFFFFFFFFFFFFFFFFFFFFFFF AND SUB PUSH2 0x9EF JUMPI DUP1 PUSH1 0x2 PUSH0 DUP3 DUP3 SLOAD SUB SWAP3 POP POP DUP2 SWAP1 SSTORE POP PUSH2 0xA39 JUMP JUMPDEST DUP1 PUSH0 DUP1 DUP5 PUSH20 0xFFFFFFFFFFFFFFFFFFFFFFFFFFFFFFFFFFFFFFFF AND PUSH20 0xFFFFFFFFFFFFFFFFFFFFFFFFFFFFFFFFFFFFFFFF AND DUP2 MSTORE PUSH1 0x20 ADD SWAP1 DUP2 MSTORE PUSH1 0x20 ADD PUSH0 KECCAK256 PUSH0 DUP3 DUP3 SLOAD ADD SWAP3 POP POP DUP2 SWAP1 SSTORE POP JUMPDEST DUP2 PUSH20 0xFFFFFFFFFFFFFFFFFFFFFFFFFFFFFFFFFFFFFFFF AND DUP4 PUSH20 0xFFFFFFFFFFFFFFFFFFFFFFFFFFFFFFFFFFFFFFFF AND PUSH32 0xDDF252AD1BE2C89B69C2B068FC378DAA952BA7F163C4A11628F55A4DF523B3EF DUP4 PUSH1 0x40 MLOAD PUSH2 0xA96 SWAP2 SWAP1 PUSH2 0xC5E JUMP JUMPDEST PUSH1 0x40 MLOAD DUP1 SWAP2 SUB SWAP1 LOG3 POP POP POP JUMP JUMPDEST PUSH0 DUP2 MLOAD SWAP1 POP SWAP2 SWAP1 POP JUMP JUMPDEST PUSH0 DUP3 DUP3 MSTORE PUSH1 0x20 DUP3 ADD SWAP1 POP SWAP3 SWAP2 POP POP JUMP JUMPDEST PUSH0 JUMPDEST DUP4 DUP2 LT ISZERO PUSH2 0xADA JUMPI DUP1 DUP3 ADD MLOAD DUP2 DUP5 ADD MSTORE PUSH1 0x20 DUP2 ADD SWAP1 POP PUSH2 0xABF JUMP JUMPDEST PUSH0 DUP5 DUP5 ADD MSTORE POP POP POP POP JUMP JUMPDEST PUSH0 PUSH1 0x1F NOT PUSH1 0x1F DUP4 ADD AND SWAP1 POP SWAP2 SWAP1 POP JUMP JUMPDEST PUSH0 PUSH2 0xAFF DUP3 PUSH2 0xAA3 JUMP JUMPDEST PUSH2 0xB09 DUP2 DUP6 PUSH2 0xAAD JUMP JUMPDEST SWAP4 POP PUSH2 0xB19 DUP2 DUP6 PUSH1 0x20 DUP7 ADD PUSH2 0xABD JUMP JUMPDEST PUSH2 0xB22 DUP2 PUSH2 0xAE5 JUMP JUMPDEST DUP5 ADD SWAP2 POP POP SWAP3 SWAP2 POP POP JUMP JUMPDEST PUSH0 PUSH1 0x20 DUP3 ADD SWAP1 POP DUP2 DUP2 SUB PUSH0 DUP4 ADD MSTORE PUSH2 0xB45 DUP2 DUP5 PUSH2 0xAF5 JUMP JUMPDEST SWAP1 POP SWAP3 SWAP2 POP POP JUMP JUMPDEST PUSH0 DUP1 REVERT JUMPDEST PUSH0 PUSH20 0xFFFFFFFFFFFFFFFFFFFFFFFFFFFFFFFFFFFFFFFF DUP3 AND SWAP1 POP SWAP2 SWAP1 POP JUMP JUMPDEST PUSH0 PUSH2 0xB7A DUP3 PUSH2 0xB51 JUMP JUMPDEST SWAP1 POP SWAP2 SWAP1 POP JUMP JUMPDEST PUSH2 0xB8A DUP2 PUSH2 0xB70 JUMP JUMPDEST DUP2 EQ PUSH2 0xB94 JUMPI PUSH0 DUP1 REVERT JUMPDEST POP JUMP JUMPDEST PUSH0 DUP2 CALLDATALOAD SWAP1 POP PUSH2 0xBA5 DUP2 PUSH2 0xB81 JUMP JUMPDEST SWAP3 SWAP2 POP POP JUMP JUMPDEST PUSH0 DUP2 SWAP1 POP SWAP2 SWAP1 POP JUMP JUMPDEST PUSH2 0xBBD DUP2 PUSH2 0xBAB JUMP JUMPDEST DUP2 EQ PUSH2 0xBC7 JUMPI PUSH0 DUP1 REVERT JUMPDEST POP JUMP JUMPDEST PUSH0 DUP2 CALLDATALOAD SWAP1 POP PUSH2 0xBD8 DUP2 PUSH2 0xBB4 JUMP JUMPDEST SWAP3 SWAP2 POP POP JUMP JUMPDEST PUSH0 DUP1 PUSH1 0x40 DUP4 DUP6 SUB SLT ISZERO PUSH2 0xBF4 JUMPI PUSH2 0xBF3 PUSH2 0xB4D JUMP JUMPDEST JUMPDEST PUSH0 PUSH2 0xC01 DUP6 DUP3 DUP7 ADD PUSH2 0xB97 JUMP JUMPDEST SWAP3 POP POP PUSH1 0x20 PUSH2 0xC12 DUP6 DUP3 DUP7 ADD PUSH2 0xBCA JUMP JUMPDEST SWAP2 POP POP SWAP3 POP SWAP3 SWAP1 POP JUMP JUMPDEST PUSH0 DUP2 ISZERO ISZERO SWAP1 POP SWAP2 SWAP1 POP JUMP JUMPDEST PUSH2 0xC30 DUP2 PUSH2 0xC1C JUMP JUMPDEST DUP3 MSTORE POP POP JUMP JUMPDEST PUSH0 PUSH1 0x20 DUP3 ADD SWAP1 POP PUSH2 0xC49 PUSH0 DUP4 ADD DUP5 PUSH2 0xC27 JUMP JUMPDEST SWAP3 SWAP2 POP POP JUMP JUMPDEST PUSH2 0xC58 DUP2 PUSH2 0xBAB JUMP JUMPDEST DUP3 MSTORE POP POP JUMP JUMPDEST PUSH0 PUSH1 0x20 DUP3 ADD SWAP1 POP PUSH2 0xC71 PUSH0 DUP4 ADD DUP5 PUSH2 0xC4F JUMP JUMPDEST SWAP3 SWAP2 POP POP JUMP JUMPDEST PUSH0 DUP1 PUSH0 PUSH1 0x60 DUP5 DUP7 SUB SLT ISZERO PUSH2 0xC8E JUMPI PUSH2 0xC8D PUSH2 0xB4D JUMP JUMPDEST JUMPDEST PUSH0 PUSH2 0xC9B DUP7 DUP3 DUP8 ADD PUSH2 0xB97 JUMP JUMPDEST SWAP4 POP POP PUSH1 0x20 PUSH2 0xCAC DUP7 DUP3 DUP8 ADD PUSH2 0xB97 JUMP JUMPDEST SWAP3 POP POP PUSH1 0x40 PUSH2 0xCBD DUP7 DUP3 DUP8 ADD PUSH2 0xBCA JUMP JUMPDEST SWAP2 POP POP SWAP3 POP SWAP3 POP SWAP3 JUMP JUMPDEST PUSH0 PUSH1 0xFF DUP3 AND SWAP1 POP SWAP2 SWAP1 POP JUMP JUMPDEST PUSH2 0xCDC DUP2 PUSH2 0xCC7 JUMP JUMPDEST DUP3 MSTORE POP POP JUMP JUMPDEST PUSH0 PUSH1 0x20 DUP3 ADD SWAP1 POP PUSH2 0xCF5 PUSH0 DUP4 ADD DUP5 PUSH2 0xCD3 JUMP JUMPDEST SWAP3 SWAP2 POP POP JUMP JUMPDEST PUSH0 PUSH1 0x20 DUP3 DUP5 SUB SLT ISZERO PUSH2 0xD10 JUMPI PUSH2 0xD0F PUSH2 0xB4D JUMP JUMPDEST JUMPDEST PUSH0 PUSH2 0xD1D DUP5 DUP3 DUP6 ADD PUSH2 0xB97 JUMP JUMPDEST SWAP2 POP POP SWAP3 SWAP2 POP POP JUMP JUMPDEST PUSH0 DUP1 PUSH1 0x40 DUP4 DUP6 SUB SLT ISZERO PUSH2 0xD3C JUMPI PUSH2 0xD3B PUSH2 0xB4D JUMP JUMPDEST JUMPDEST PUSH0 PUSH2 0xD49 DUP6 DUP3 DUP7 ADD PUSH2 0xB97 JUMP JUMPDEST SWAP3 POP POP PUSH1 0x20 PUSH2 0xD5A DUP6 DUP3 DUP7 ADD PUSH2 0xB97 JUMP JUMPDEST SWAP2 POP POP SWAP3 POP SWAP3 SWAP1 POP JUMP JUMPDEST PUSH32 0x4E487B7100000000000000000000000000000000000000000000000000000000 PUSH0 MSTORE PUSH1 0x22 PUSH1 0x4 MSTORE PUSH1 0x24 PUSH0 REVERT JUMPDEST PUSH0 PUSH1 0x2 DUP3 DIV SWAP1 POP PUSH1 0x1 DUP3 AND DUP1 PUSH2 0xDA8 JUMPI PUSH1 0x7F DUP3 AND SWAP2 POP JUMPDEST PUSH1 0x20 DUP3 LT DUP2 SUB PUSH2 0xDBB JUMPI PUSH2 0xDBA PUSH2 0xD64 JUMP JUMPDEST JUMPDEST POP SWAP2 SWAP1 POP JUMP JUMPDEST PUSH2 0xDCA DUP2 PUSH2 0xB70 JUMP JUMPDEST DUP3 MSTORE POP POP JUMP JUMPDEST PUSH0 PUSH1 0x60 DUP3 ADD SWAP1 POP PUSH2 0xDE3 PUSH0 DUP4 ADD DUP7 PUSH2 0xDC1 JUMP JUMPDEST PUSH2 0xDF0 PUSH1 0x20 DUP4 ADD DUP6 PUSH2 0xC4F JUMP JUMPDEST PUSH2 0xDFD PUSH1 0x40 DUP4 ADD DUP5 PUSH2 0xC4F JUMP JUMPDEST SWAP5 SWAP4 POP POP POP POP JUMP JUMPDEST PUSH0 PUSH1 0x20 DUP3 ADD SWAP1 POP PUSH2 0xE18 PUSH0 DUP4 ADD DUP5 PUSH2 0xDC1 JUMP JUMPDEST SWAP3 SWAP2 POP POP JUMP JUMPDEST PUSH32 0x4E487B7100000000000000000000000000000000000000000000000000000000 PUSH0 MSTORE PUSH1 0x11 PUSH1 0x4 MSTORE PUSH1 0x24 PUSH0 REVERT JUMPDEST PUSH0 PUSH2 0xE55 DUP3 PUSH2 0xBAB JUMP JUMPDEST SWAP2 POP PUSH2 0xE60 DUP4 PUSH2 0xBAB JUMP JUMPDEST SWAP3 POP DUP3 DUP3 ADD SWAP1 POP DUP1 DUP3 GT ISZERO PUSH2 0xE78 JUMPI PUSH2 0xE77 PUSH2 0xE1E JUMP JUMPDEST JUMPDEST SWAP3 SWAP2 POP POP JUMP INVALID LOG2 PUSH5 0x6970667358 0x22 SLT KECCAK256 INVALID 0xCF 0xE 0x4F 0xE3 0x27 0xE PUSH8 0x25104962AA54F189 0xBB MSTORE8 PUSH21 0x46B79465AE381759F16FF3F5E364736F6C63430008 XOR STOP CALLER "
		},
		"gasEstimates": {
			"creation": {
				"codeDepositCost": "752800",
				"executionCost": "infinite",
				"totalCost": "infinite"
			},
			"external": {
				"allowance(address,address)": "infinite",
				"approve(address,uint256)": "infinite",
				"balanceOf(address)": "2851",
				"decimals()": "338",
				"imageURI()": "infinite",
				"name()": "infinite",
				"symbol()": "infinite",
				"totalSupply()": "2499",
				"transfer(address,uint256)": "infinite",
				"transferFrom(address,address,uint256)": "infinite"
			}
		},
		"methodIdentifiers": {
			"allowance(address,address)": "dd62ed3e",
			"approve(address,uint256)": "095ea7b3",
			"balanceOf(address)": "70a08231",
			"decimals()": "313ce567",
			"imageURI()": "135d088d",
			"name()": "06fdde03",
			"symbol()": "95d89b41",
			"totalSupply()": "18160ddd",
			"transfer(address,uint256)": "a9059cbb",
			"transferFrom(address,address,uint256)": "23b872dd"
		}
	},
	"abi": [
		{
			"inputs": [
				{
					"internalType": "string",
					"name": "imageURIParam",
					"type": "string"
				}
			],
			"stateMutability": "nonpayable",
			"type": "constructor"
		},
		{
			"inputs": [
				{
					"internalType": "address",
					"name": "spender",
					"type": "address"
				},
				{
					"internalType": "uint256",
					"name": "allowance",
					"type": "uint256"
				},
				{
					"internalType": "uint256",
					"name": "needed",
					"type": "uint256"
				}
			],
			"name": "ERC20InsufficientAllowance",
			"type": "error"
		},
		{
			"inputs": [
				{
					"internalType": "address",
					"name": "sender",
					"type": "address"
				},
				{
					"internalType": "uint256",
					"name": "balance",
					"type": "uint256"
				},
				{
					"internalType": "uint256",
					"name": "needed",
					"type": "uint256"
				}
			],
			"name": "ERC20InsufficientBalance",
			"type": "error"
		},
		{
			"inputs": [
				{
					"internalType": "address",
					"name": "approver",
					"type": "address"
				}
			],
			"name": "ERC20InvalidApprover",
			"type": "error"
		},
		{
			"inputs": [
				{
					"internalType": "address",
					"name": "receiver",
					"type": "address"
				}
			],
			"name": "ERC20InvalidReceiver",
			"type": "error"
		},
		{
			"inputs": [
				{
					"internalType": "address",
					"name": "sender",
					"type": "address"
				}
			],
			"name": "ERC20InvalidSender",
			"type": "error"
		},
		{
			"inputs": [
				{
					"internalType": "address",
					"name": "spender",
					"type": "address"
				}
			],
			"name": "ERC20InvalidSpender",
			"type": "error"
		},
		{
			"anonymous": false,
			"inputs": [
				{
					"indexed": true,
					"internalType": "address",
					"name": "owner",
					"type": "address"
				},
				{
					"indexed": true,
					"internalType": "address",
					"name": "spender",
					"type": "address"
				},
				{
					"indexed": false,
					"internalType": "uint256",
					"name": "value",
					"type": "uint256"
				}
			],
			"name": "Approval",
			"type": "event"
		},
		{
			"anonymous": false,
			"inputs": [
				{
					"indexed": true,
					"internalType": "address",
					"name": "from",
					"type": "address"
				},
				{
					"indexed": true,
					"internalType": "address",
					"name": "to",
					"type": "address"
				},
				{
					"indexed": false,
					"internalType": "uint256",
					"name": "value",
					"type": "uint256"
				}
			],
			"name": "Transfer",
			"type": "event"
		},
		{
			"inputs": [
				{
					"internalType": "address",
					"name": "owner",
					"type": "address"
				},
				{
					"internalType": "address",
					"name": "spender",
					"type": "address"
				}
			],
			"name": "allowance",
			"outputs": [
				{
					"internalType": "uint256",
					"name": "",
					"type": "uint256"
				}
			],
			"stateMutability": "view",
			"type": "function"
		},
		{
			"inputs": [
				{
					"internalType": "address",
					"name": "spender",
					"type": "address"
				},
				{
					"internalType": "uint256",
					"name": "value",
					"type": "uint256"
				}
			],
			"name": "approve",
			"outputs": [
				{
					"internalType": "bool",
					"name": "",
					"type": "bool"
				}
			],
			"stateMutability": "nonpayable",
			"type": "function"
		},
		{
			"inputs": [
				{
					"internalType": "address",
					"name": "account",
					"type": "address"
				}
			],
			"name": "balanceOf",
			"outputs": [
				{
					"internalType": "uint256",
					"name": "",
					"type": "uint256"
				}
			],
			"stateMutability": "view",
			"type": "function"
		},
		{
			"inputs": [],
			"name": "decimals",
			"outputs": [
				{
					"internalType": "uint8",
					"name": "",
					"type": "uint8"
				}
			],
			"stateMutability": "view",
			"type": "function"
		},
		{
			"inputs": [],
			"name": "imageURI",
			"outputs": [
				{
					"internalType": "string",
					"name": "",
					"type": "string"
				}
			],
			"stateMutability": "view",
			"type": "function"
		},
		{
			"inputs": [],
			"name": "name",
			"outputs": [
				{
					"internalType": "string",
					"name": "",
					"type": "string"
				}
			],
			"stateMutability": "view",
			"type": "function"
		},
		{
			"inputs": [],
			"name": "symbol",
			"outputs": [
				{
					"internalType": "string",
					"name": "",
					"type": "string"
				}
			],
			"stateMutability": "view",
			"type": "function"
		},
		{
			"inputs": [],
			"name": "totalSupply",
			"outputs": [
				{
					"internalType": "uint256",
					"name": "",
					"type": "uint256"
				}
			],
			"stateMutability": "view",
			"type": "function"
		},
		{
			"inputs": [
				{
					"internalType": "address",
					"name": "to",
					"type": "address"
				},
				{
					"internalType": "uint256",
					"name": "value",
					"type": "uint256"
				}
			],
			"name": "transfer",
			"outputs": [
				{
					"internalType": "bool",
					"name": "",
					"type": "bool"
				}
			],
			"stateMutability": "nonpayable",
			"type": "function"
		},
		{
			"inputs": [
				{
					"internalType": "address",
					"name": "from",
					"type": "address"
				},
				{
					"internalType": "address",
					"name": "to",
					"type": "address"
				},
				{
					"internalType": "uint256",
					"name": "value",
					"type": "uint256"
				}
			],
			"name": "transferFrom",
			"outputs": [
				{
					"internalType": "bool",
					"name": "",
					"type": "bool"
				}
			],
			"stateMutability": "nonpayable",
			"type": "function"
		}
	]
}