{
	"data": {
		"bytecode": {
			"linkReferences": {},
			"object": "608060405234801561000f575f80fd5b5060405162000eaf38038062000eaf83398181016040528101906100339190610117565b815f806101000a81548173ffffffffffffffffffffffffffffffffffffffff021916908373ffffffffffffffffffffffffffffffffffffffff1602179055508060015f6101000a81548173ffffffffffffffffffffffffffffffffffffffff021916908373ffffffffffffffffffffffffffffffffffffffff1602179055505050610155565b5f80fd5b5f73ffffffffffffffffffffffffffffffffffffffff82169050919050565b5f6100e6826100bd565b9050919050565b6100f6816100dc565b8114610100575f80fd5b50565b5f81519050610111816100ed565b92915050565b5f806040838503121561012d5761012c6100b9565b5b5f61013a85828601610103565b925050602061014b85828601610103565b9150509250929050565b610d4c80620001635f395ff3fe608060405234801561000f575f80fd5b5060043610610060575f3560e01c80633b73b5ad146100645780634e71d92d146100805780637b0472f01461008a578063a5b39cfb146100a6578063d06fcba8146100d6578063f7c618c1146100f4575b5f80fd5b61007e600480360381019061007991906107b6565b610112565b005b6100886102de565b005b6100a4600480360381019061009f91906107b6565b6104b1565b005b6100c060048036038101906100bb919061084e565b61071b565b6040516100cd9190610888565b60405180910390f35b6100de610730565b6040516100eb91906108fc565b60405180910390f35b6100fc610753565b6040516101099190610935565b60405180910390f35b8060025f61011e610778565b73ffffffffffffffffffffffffffffffffffffffff1673ffffffffffffffffffffffffffffffffffffffff1681526020019081526020015f20541015610199576040517f08c379a0000000000000000000000000000000000000000000000000000000008152600401610190906109a8565b60405180910390fd5b5f8054906101000a900473ffffffffffffffffffffffffffffffffffffffff1673ffffffffffffffffffffffffffffffffffffffff1663f242432a306101dd610778565b85856040518563ffffffff1660e01b81526004016101fe9493929190610a08565b5f604051808303815f87803b158015610215575f80fd5b505af1158015610227573d5f803e3d5ffd5b505050508060025f610237610778565b73ffffffffffffffffffffffffffffffffffffffff1673ffffffffffffffffffffffffffffffffffffffff1681526020019081526020015f205f82825461027e9190610a8b565b9250508190555061028d610778565b73ffffffffffffffffffffffffffffffffffffffff167fd8138f8a3f377c5259ca548e70e4c2de94f129f5a11036a15b69513cba2b426a826040516102d29190610888565b60405180910390a25050565b5f60025f6102ea610778565b73ffffffffffffffffffffffffffffffffffffffff1673ffffffffffffffffffffffffffffffffffffffff1681526020019081526020015f205490505f8111610368576040517f08c379a000000000000000000000000000000000000000000000000000000000815260040161035f90610b08565b60405180910390fd5b60025f610373610778565b73ffffffffffffffffffffffffffffffffffffffff1673ffffffffffffffffffffffffffffffffffffffff1681526020019081526020015f205f90555f6001905060015f9054906101000a900473ffffffffffffffffffffffffffffffffffffffff1673ffffffffffffffffffffffffffffffffffffffff1663a9059cbb6103f9610778565b836040518363ffffffff1660e01b8152600401610417929190610b26565b6020604051808303815f875af1158015610433573d5f803e3d5ffd5b505050506040513d601f19601f820116820180604052508101906104579190610b82565b50610460610778565b73ffffffffffffffffffffffffffffffffffffffff167fd8138f8a3f377c5259ca548e70e4c2de94f129f5a11036a15b69513cba2b426a826040516104a59190610888565b60405180910390a25050565b5f81116104f3576040517f08c379a00000000000000000000000000000000000000000000000000000000081526004016104ea90610bf7565b60405180910390fd5b805f8054906101000a900473ffffffffffffffffffffffffffffffffffffffff1673ffffffffffffffffffffffffffffffffffffffff1662fdd58e610536610778565b856040518363ffffffff1660e01b8152600401610554929190610b26565b602060405180830381865afa15801561056f573d5f803e3d5ffd5b505050506040513d601f19601f820116820180604052508101906105939190610c29565b10156105d4576040517f08c379a00000000000000000000000000000000000000000000000000000000081526004016105cb90610c9e565b60405180910390fd5b5f8054906101000a900473ffffffffffffffffffffffffffffffffffffffff1673ffffffffffffffffffffffffffffffffffffffff1663f242432a610617610778565b3085856040518563ffffffff1660e01b81526004016106399493929190610a08565b5f604051808303815f87803b158015610650575f80fd5b505af1158015610662573d5f803e3d5ffd5b505050508060025f610672610778565b73ffffffffffffffffffffffffffffffffffffffff1673ffffffffffffffffffffffffffffffffffffffff1681526020019081526020015f205f8282546106b99190610cbc565b925050819055506106c8610778565b73ffffffffffffffffffffffffffffffffffffffff167f1449c6dd7851abc30abf37f57715f492010519147cc2652fbc38202c18a6ee90838360405161070f929190610cef565b60405180910390a25050565b6002602052805f5260405f205f915090505481565b5f8054906101000a900473ffffffffffffffffffffffffffffffffffffffff1681565b60015f9054906101000a900473ffffffffffffffffffffffffffffffffffffffff1681565b5f33905090565b5f80fd5b5f819050919050565b61079581610783565b811461079f575f80fd5b50565b5f813590506107b08161078c565b92915050565b5f80604083850312156107cc576107cb61077f565b5b5f6107d9858286016107a2565b92505060206107ea858286016107a2565b9150509250929050565b5f73ffffffffffffffffffffffffffffffffffffffff82169050919050565b5f61081d826107f4565b9050919050565b61082d81610813565b8114610837575f80fd5b50565b5f8135905061084881610824565b92915050565b5f602082840312156108635761086261077f565b5b5f6108708482850161083a565b91505092915050565b61088281610783565b82525050565b5f60208201905061089b5f830184610879565b92915050565b5f819050919050565b5f6108c46108bf6108ba846107f4565b6108a1565b6107f4565b9050919050565b5f6108d5826108aa565b9050919050565b5f6108e6826108cb565b9050919050565b6108f6816108dc565b82525050565b5f60208201905061090f5f8301846108ed565b92915050565b5f61091f826108cb565b9050919050565b61092f81610915565b82525050565b5f6020820190506109485f830184610926565b92915050565b5f82825260208201905092915050565b7f496e73756666696369656e74207374616b656420616d6f756e740000000000005f82015250565b5f610992601a8361094e565b915061099d8261095e565b602082019050919050565b5f6020820190508181035f8301526109bf81610986565b9050919050565b6109cf81610813565b82525050565b5f82825260208201905092915050565b50565b5f6109f35f836109d5565b91506109fe826109e5565b5f82019050919050565b5f60a082019050610a1b5f8301876109c6565b610a2860208301866109c6565b610a356040830185610879565b610a426060830184610879565b8181036080830152610a53816109e8565b905095945050505050565b7f4e487b71000000000000000000000000000000000000000000000000000000005f52601160045260245ffd5b5f610a9582610783565b9150610aa083610783565b9250828203905081811115610ab857610ab7610a5e565b5b92915050565b7f4e6f20746f6b656e73207374616b6564000000000000000000000000000000005f82015250565b5f610af260108361094e565b9150610afd82610abe565b602082019050919050565b5f6020820190508181035f830152610b1f81610ae6565b9050919050565b5f604082019050610b395f8301856109c6565b610b466020830184610879565b9392505050565b5f8115159050919050565b610b6181610b4d565b8114610b6b575f80fd5b50565b5f81519050610b7c81610b58565b92915050565b5f60208284031215610b9757610b9661077f565b5b5f610ba484828501610b6e565b91505092915050565b7f416d6f756e74206d7573742062652067726561746572207468616e207a65726f5f82015250565b5f610be160208361094e565b9150610bec82610bad565b602082019050919050565b5f6020820190508181035f830152610c0e81610bd5565b9050919050565b5f81519050610c238161078c565b92915050565b5f60208284031215610c3e57610c3d61077f565b5b5f610c4b84828501610c15565b91505092915050565b7f496e73756666696369656e742062616c616e63650000000000000000000000005f82015250565b5f610c8860148361094e565b9150610c9382610c54565b602082019050919050565b5f6020820190508181035f830152610cb581610c7c565b9050919050565b5f610cc682610783565b9150610cd183610783565b9250828201905080821115610ce957610ce8610a5e565b5b92915050565b5f604082019050610d025f830185610879565b610d0f6020830184610879565b939250505056fea26469706673582212204b5157737d5d08902fdf7862a9b3cb80cc56affe9282074cce2f4a1c4cf6306764736f6c63430008180033",
			"opcodes": "PUSH1 0x80 PUSH1 0x40 MSTORE CALLVALUE DUP1 ISZERO PUSH2 0xF JUMPI PUSH0 DUP1 REVERT JUMPDEST POP PUSH1 0x40 MLOAD PUSH3 0xEAF CODESIZE SUB DUP1 PUSH3 0xEAF DUP4 CODECOPY DUP2 DUP2 ADD PUSH1 0x40 MSTORE DUP2 ADD SWAP1 PUSH2 0x33 SWAP2 SWAP1 PUSH2 0x117 JUMP JUMPDEST DUP2 PUSH0 DUP1 PUSH2 0x100 EXP DUP2 SLOAD DUP2 PUSH20 0xFFFFFFFFFFFFFFFFFFFFFFFFFFFFFFFFFFFFFFFF MUL NOT AND SWAP1 DUP4 PUSH20 0xFFFFFFFFFFFFFFFFFFFFFFFFFFFFFFFFFFFFFFFF AND MUL OR SWAP1 SSTORE POP DUP1 PUSH1 0x1 PUSH0 PUSH2 0x100 EXP DUP2 SLOAD DUP2 PUSH20 0xFFFFFFFFFFFFFFFFFFFFFFFFFFFFFFFFFFFFFFFF MUL NOT AND SWAP1 DUP4 PUSH20 0xFFFFFFFFFFFFFFFFFFFFFFFFFFFFFFFFFFFFFFFF AND MUL OR SWAP1 SSTORE POP POP POP PUSH2 0x155 JUMP JUMPDEST PUSH0 DUP1 REVERT JUMPDEST PUSH0 PUSH20 0xFFFFFFFFFFFFFFFFFFFFFFFFFFFFFFFFFFFFFFFF DUP3 AND SWAP1 POP SWAP2 SWAP1 POP JUMP JUMPDEST PUSH0 PUSH2 0xE6 DUP3 PUSH2 0xBD JUMP JUMPDEST SWAP1 POP SWAP2 SWAP1 POP JUMP JUMPDEST PUSH2 0xF6 DUP2 PUSH2 0xDC JUMP JUMPDEST DUP2 EQ PUSH2 0x100 JUMPI PUSH0 DUP1 REVERT JUMPDEST POP JUMP JUMPDEST PUSH0 DUP2 MLOAD SWAP1 POP PUSH2 0x111 DUP2 PUSH2 0xED JUMP JUMPDEST SWAP3 SWAP2 POP POP JUMP JUMPDEST PUSH0 DUP1 PUSH1 0x40 DUP4 DUP6 SUB SLT ISZERO PUSH2 0x12D JUMPI PUSH2 0x12C PUSH2 0xB9 JUMP JUMPDEST JUMPDEST PUSH0 PUSH2 0x13A DUP6 DUP3 DUP7 ADD PUSH2 0x103 JUMP JUMPDEST SWAP3 POP POP PUSH1 0x20 PUSH2 0x14B DUP6 DUP3 DUP7 ADD PUSH2 0x103 JUMP JUMPDEST SWAP2 POP POP SWAP3 POP SWAP3 SWAP1 POP JUMP JUMPDEST PUSH2 0xD4C DUP1 PUSH3 0x163 PUSH0 CODECOPY PUSH0 RETURN INVALID PUSH1 0x80 PUSH1 0x40 MSTORE CALLVALUE DUP1 ISZERO PUSH2 0xF JUMPI PUSH0 DUP1 REVERT JUMPDEST POP PUSH1 0x4 CALLDATASIZE LT PUSH2 0x60 JUMPI PUSH0 CALLDATALOAD PUSH1 0xE0 SHR DUP1 PUSH4 0x3B73B5AD EQ PUSH2 0x64 JUMPI DUP1 PUSH4 0x4E71D92D EQ PUSH2 0x80 JUMPI DUP1 PUSH4 0x7B0472F0 EQ PUSH2 0x8A JUMPI DUP1 PUSH4 0xA5B39CFB EQ PUSH2 0xA6 JUMPI DUP1 PUSH4 0xD06FCBA8 EQ PUSH2 0xD6 JUMPI DUP1 PUSH4 0xF7C618C1 EQ PUSH2 0xF4 JUMPI JUMPDEST PUSH0 DUP1 REVERT JUMPDEST PUSH2 0x7E PUSH1 0x4 DUP1 CALLDATASIZE SUB DUP2 ADD SWAP1 PUSH2 0x79 SWAP2 SWAP1 PUSH2 0x7B6 JUMP JUMPDEST PUSH2 0x112 JUMP JUMPDEST STOP JUMPDEST PUSH2 0x88 PUSH2 0x2DE JUMP JUMPDEST STOP JUMPDEST PUSH2 0xA4 PUSH1 0x4 DUP1 CALLDATASIZE SUB DUP2 ADD SWAP1 PUSH2 0x9F SWAP2 SWAP1 PUSH2 0x7B6 JUMP JUMPDEST PUSH2 0x4B1 JUMP JUMPDEST STOP JUMPDEST PUSH2 0xC0 PUSH1 0x4 DUP1 CALLDATASIZE SUB DUP2 ADD SWAP1 PUSH2 0xBB SWAP2 SWAP1 PUSH2 0x84E JUMP JUMPDEST PUSH2 0x71B JUMP JUMPDEST PUSH1 0x40 MLOAD PUSH2 0xCD SWAP2 SWAP1 PUSH2 0x888 JUMP JUMPDEST PUSH1 0x40 MLOAD DUP1 SWAP2 SUB SWAP1 RETURN JUMPDEST PUSH2 0xDE PUSH2 0x730 JUMP JUMPDEST PUSH1 0x40 MLOAD PUSH2 0xEB SWAP2 SWAP1 PUSH2 0x8FC JUMP JUMPDEST PUSH1 0x40 MLOAD DUP1 SWAP2 SUB SWAP1 RETURN JUMPDEST PUSH2 0xFC PUSH2 0x753 JUMP JUMPDEST PUSH1 0x40 MLOAD PUSH2 0x109 SWAP2 SWAP1 PUSH2 0x935 JUMP JUMPDEST PUSH1 0x40 MLOAD DUP1 SWAP2 SUB SWAP1 RETURN JUMPDEST DUP1 PUSH1 0x2 PUSH0 PUSH2 0x11E PUSH2 0x778 JUMP JUMPDEST PUSH20 0xFFFFFFFFFFFFFFFFFFFFFFFFFFFFFFFFFFFFFFFF AND PUSH20 0xFFFFFFFFFFFFFFFFFFFFFFFFFFFFFFFFFFFFFFFF AND DUP2 MSTORE PUSH1 0x20 ADD SWAP1 DUP2 MSTORE PUSH1 0x20 ADD PUSH0 KECCAK256 SLOAD LT ISZERO PUSH2 0x199 JUMPI PUSH1 0x40 MLOAD PUSH32 0x8C379A000000000000000000000000000000000000000000000000000000000 DUP2 MSTORE PUSH1 0x4 ADD PUSH2 0x190 SWAP1 PUSH2 0x9A8 JUMP JUMPDEST PUSH1 0x40 MLOAD DUP1 SWAP2 SUB SWAP1 REVERT JUMPDEST PUSH0 DUP1 SLOAD SWAP1 PUSH2 0x100 EXP SWAP1 DIV PUSH20 0xFFFFFFFFFFFFFFFFFFFFFFFFFFFFFFFFFFFFFFFF AND PUSH20 0xFFFFFFFFFFFFFFFFFFFFFFFFFFFFFFFFFFFFFFFF AND PUSH4 0xF242432A ADDRESS PUSH2 0x1DD PUSH2 0x778 JUMP JUMPDEST DUP6 DUP6 PUSH1 0x40 MLOAD DUP6 PUSH4 0xFFFFFFFF AND PUSH1 0xE0 SHL DUP2 MSTORE PUSH1 0x4 ADD PUSH2 0x1FE SWAP5 SWAP4 SWAP3 SWAP2 SWAP1 PUSH2 0xA08 JUMP JUMPDEST PUSH0 PUSH1 0x40 MLOAD DUP1 DUP4 SUB DUP2 PUSH0 DUP8 DUP1 EXTCODESIZE ISZERO DUP1 ISZERO PUSH2 0x215 JUMPI PUSH0 DUP1 REVERT JUMPDEST POP GAS CALL ISZERO DUP1 ISZERO PUSH2 0x227 JUMPI RETURNDATASIZE PUSH0 DUP1 RETURNDATACOPY RETURNDATASIZE PUSH0 REVERT JUMPDEST POP POP POP POP DUP1 PUSH1 0x2 PUSH0 PUSH2 0x237 PUSH2 0x778 JUMP JUMPDEST PUSH20 0xFFFFFFFFFFFFFFFFFFFFFFFFFFFFFFFFFFFFFFFF AND PUSH20 0xFFFFFFFFFFFFFFFFFFFFFFFFFFFFFFFFFFFFFFFF AND DUP2 MSTORE PUSH1 0x20 ADD SWAP1 DUP2 MSTORE PUSH1 0x20 ADD PUSH0 KECCAK256 PUSH0 DUP3 DUP3 SLOAD PUSH2 0x27E SWAP2 SWAP1 PUSH2 0xA8B JUMP JUMPDEST SWAP3 POP POP DUP2 SWAP1 SSTORE POP PUSH2 0x28D PUSH2 0x778 JUMP JUMPDEST PUSH20 0xFFFFFFFFFFFFFFFFFFFFFFFFFFFFFFFFFFFFFFFF AND PUSH32 0xD8138F8A3F377C5259CA548E70E4C2DE94F129F5A11036A15B69513CBA2B426A DUP3 PUSH1 0x40 MLOAD PUSH2 0x2D2 SWAP2 SWAP1 PUSH2 0x888 JUMP JUMPDEST PUSH1 0x40 MLOAD DUP1 SWAP2 SUB SWAP1 LOG2 POP POP JUMP JUMPDEST PUSH0 PUSH1 0x2 PUSH0 PUSH2 0x2EA PUSH2 0x778 JUMP JUMPDEST PUSH20 0xFFFFFFFFFFFFFFFFFFFFFFFFFFFFFFFFFFFFFFFF AND PUSH20 0xFFFFFFFFFFFFFFFFFFFFFFFFFFFFFFFFFFFFFFFF AND DUP2 MSTORE PUSH1 0x20 ADD SWAP1 DUP2 MSTORE PUSH1 0x20 ADD PUSH0 KECCAK256 SLOAD SWAP1 POP PUSH0 DUP2 GT PUSH2 0x368 JUMPI PUSH1 0x40 MLOAD PUSH32 0x8C379A000000000000000000000000000000000000000000000000000000000 DUP2 MSTORE PUSH1 0x4 ADD PUSH2 0x35F SWAP1 PUSH2 0xB08 JUMP JUMPDEST PUSH1 0x40 MLOAD DUP1 SWAP2 SUB SWAP1 REVERT JUMPDEST PUSH1 0x2 PUSH0 PUSH2 0x373 PUSH2 0x778 JUMP JUMPDEST PUSH20 0xFFFFFFFFFFFFFFFFFFFFFFFFFFFFFFFFFFFFFFFF AND PUSH20 0xFFFFFFFFFFFFFFFFFFFFFFFFFFFFFFFFFFFFFFFF AND DUP2 MSTORE PUSH1 0x20 ADD SWAP1 DUP2 MSTORE PUSH1 0x20 ADD PUSH0 KECCAK256 PUSH0 SWAP1 SSTORE PUSH0 PUSH1 0x1 SWAP1 POP PUSH1 0x1 PUSH0 SWAP1 SLOAD SWAP1 PUSH2 0x100 EXP SWAP1 DIV PUSH20 0xFFFFFFFFFFFFFFFFFFFFFFFFFFFFFFFFFFFFFFFF AND PUSH20 0xFFFFFFFFFFFFFFFFFFFFFFFFFFFFFFFFFFFFFFFF AND PUSH4 0xA9059CBB PUSH2 0x3F9 PUSH2 0x778 JUMP JUMPDEST DUP4 PUSH1 0x40 MLOAD DUP4 PUSH4 0xFFFFFFFF AND PUSH1 0xE0 SHL DUP2 MSTORE PUSH1 0x4 ADD PUSH2 0x417 SWAP3 SWAP2 SWAP1 PUSH2 0xB26 JUMP JUMPDEST PUSH1 0x20 PUSH1 0x40 MLOAD DUP1 DUP4 SUB DUP2 PUSH0 DUP8 GAS CALL ISZERO DUP1 ISZERO PUSH2 0x433 JUMPI RETURNDATASIZE PUSH0 DUP1 RETURNDATACOPY RETURNDATASIZE PUSH0 REVERT JUMPDEST POP POP POP POP PUSH1 0x40 MLOAD RETURNDATASIZE PUSH1 0x1F NOT PUSH1 0x1F DUP3 ADD AND DUP3 ADD DUP1 PUSH1 0x40 MSTORE POP DUP2 ADD SWAP1 PUSH2 0x457 SWAP2 SWAP1 PUSH2 0xB82 JUMP JUMPDEST POP PUSH2 0x460 PUSH2 0x778 JUMP JUMPDEST PUSH20 0xFFFFFFFFFFFFFFFFFFFFFFFFFFFFFFFFFFFFFFFF AND PUSH32 0xD8138F8A3F377C5259CA548E70E4C2DE94F129F5A11036A15B69513CBA2B426A DUP3 PUSH1 0x40 MLOAD PUSH2 0x4A5 SWAP2 SWAP1 PUSH2 0x888 JUMP JUMPDEST PUSH1 0x40 MLOAD DUP1 SWAP2 SUB SWAP1 LOG2 POP POP JUMP JUMPDEST PUSH0 DUP2 GT PUSH2 0x4F3 JUMPI PUSH1 0x40 MLOAD PUSH32 0x8C379A000000000000000000000000000000000000000000000000000000000 DUP2 MSTORE PUSH1 0x4 ADD PUSH2 0x4EA SWAP1 PUSH2 0xBF7 JUMP JUMPDEST PUSH1 0x40 MLOAD DUP1 SWAP2 SUB SWAP1 REVERT JUMPDEST DUP1 PUSH0 DUP1 SLOAD SWAP1 PUSH2 0x100 EXP SWAP1 DIV PUSH20 0xFFFFFFFFFFFFFFFFFFFFFFFFFFFFFFFFFFFFFFFF AND PUSH20 0xFFFFFFFFFFFFFFFFFFFFFFFFFFFFFFFFFFFFFFFF AND PUSH3 0xFDD58E PUSH2 0x536 PUSH2 0x778 JUMP JUMPDEST DUP6 PUSH1 0x40 MLOAD DUP4 PUSH4 0xFFFFFFFF AND PUSH1 0xE0 SHL DUP2 MSTORE PUSH1 0x4 ADD PUSH2 0x554 SWAP3 SWAP2 SWAP1 PUSH2 0xB26 JUMP JUMPDEST PUSH1 0x20 PUSH1 0x40 MLOAD DUP1 DUP4 SUB DUP2 DUP7 GAS STATICCALL ISZERO DUP1 ISZERO PUSH2 0x56F JUMPI RETURNDATASIZE PUSH0 DUP1 RETURNDATACOPY RETURNDATASIZE PUSH0 REVERT JUMPDEST POP POP POP POP PUSH1 0x40 MLOAD RETURNDATASIZE PUSH1 0x1F NOT PUSH1 0x1F DUP3 ADD AND DUP3 ADD DUP1 PUSH1 0x40 MSTORE POP DUP2 ADD SWAP1 PUSH2 0x593 SWAP2 SWAP1 PUSH2 0xC29 JUMP JUMPDEST LT ISZERO PUSH2 0x5D4 JUMPI PUSH1 0x40 MLOAD PUSH32 0x8C379A000000000000000000000000000000000000000000000000000000000 DUP2 MSTORE PUSH1 0x4 ADD PUSH2 0x5CB SWAP1 PUSH2 0xC9E JUMP JUMPDEST PUSH1 0x40 MLOAD DUP1 SWAP2 SUB SWAP1 REVERT JUMPDEST PUSH0 DUP1 SLOAD SWAP1 PUSH2 0x100 EXP SWAP1 DIV PUSH20 0xFFFFFFFFFFFFFFFFFFFFFFFFFFFFFFFFFFFFFFFF AND PUSH20 0xFFFFFFFFFFFFFFFFFFFFFFFFFFFFFFFFFFFFFFFF AND PUSH4 0xF242432A PUSH2 0x617 PUSH2 0x778 JUMP JUMPDEST ADDRESS DUP6 DUP6 PUSH1 0x40 MLOAD DUP6 PUSH4 0xFFFFFFFF AND PUSH1 0xE0 SHL DUP2 MSTORE PUSH1 0x4 ADD PUSH2 0x639 SWAP5 SWAP4 SWAP3 SWAP2 SWAP1 PUSH2 0xA08 JUMP JUMPDEST PUSH0 PUSH1 0x40 MLOAD DUP1 DUP4 SUB DUP2 PUSH0 DUP8 DUP1 EXTCODESIZE ISZERO DUP1 ISZERO PUSH2 0x650 JUMPI PUSH0 DUP1 REVERT JUMPDEST POP GAS CALL ISZERO DUP1 ISZERO PUSH2 0x662 JUMPI RETURNDATASIZE PUSH0 DUP1 RETURNDATACOPY RETURNDATASIZE PUSH0 REVERT JUMPDEST POP POP POP POP DUP1 PUSH1 0x2 PUSH0 PUSH2 0x672 PUSH2 0x778 JUMP JUMPDEST PUSH20 0xFFFFFFFFFFFFFFFFFFFFFFFFFFFFFFFFFFFFFFFF AND PUSH20 0xFFFFFFFFFFFFFFFFFFFFFFFFFFFFFFFFFFFFFFFF AND DUP2 MSTORE PUSH1 0x20 ADD SWAP1 DUP2 MSTORE PUSH1 0x20 ADD PUSH0 KECCAK256 PUSH0 DUP3 DUP3 SLOAD PUSH2 0x6B9 SWAP2 SWAP1 PUSH2 0xCBC JUMP JUMPDEST SWAP3 POP POP DUP2 SWAP1 SSTORE POP PUSH2 0x6C8 PUSH2 0x778 JUMP JUMPDEST PUSH20 0xFFFFFFFFFFFFFFFFFFFFFFFFFFFFFFFFFFFFFFFF AND PUSH32 0x1449C6DD7851ABC30ABF37F57715F492010519147CC2652FBC38202C18A6EE90 DUP4 DUP4 PUSH1 0x40 MLOAD PUSH2 0x70F SWAP3 SWAP2 SWAP1 PUSH2 0xCEF JUMP JUMPDEST PUSH1 0x40 MLOAD DUP1 SWAP2 SUB SWAP1 LOG2 POP POP JUMP JUMPDEST PUSH1 0x2 PUSH1 0x20 MSTORE DUP1 PUSH0 MSTORE PUSH1 0x40 PUSH0 KECCAK256 PUSH0 SWAP2 POP SWAP1 POP SLOAD DUP2 JUMP JUMPDEST PUSH0 DUP1 SLOAD SWAP1 PUSH2 0x100 EXP SWAP1 DIV PUSH20 0xFFFFFFFFFFFFFFFFFFFFFFFFFFFFFFFFFFFFFFFF AND DUP2 JUMP JUMPDEST PUSH1 0x1 PUSH0 SWAP1 SLOAD SWAP1 PUSH2 0x100 EXP SWAP1 DIV PUSH20 0xFFFFFFFFFFFFFFFFFFFFFFFFFFFFFFFFFFFFFFFF AND DUP2 JUMP JUMPDEST PUSH0 CALLER SWAP1 POP SWAP1 JUMP JUMPDEST PUSH0 DUP1 REVERT JUMPDEST PUSH0 DUP2 SWAP1 POP SWAP2 SWAP1 POP JUMP JUMPDEST PUSH2 0x795 DUP2 PUSH2 0x783 JUMP JUMPDEST DUP2 EQ PUSH2 0x79F JUMPI PUSH0 DUP1 REVERT JUMPDEST POP JUMP JUMPDEST PUSH0 DUP2 CALLDATALOAD SWAP1 POP PUSH2 0x7B0 DUP2 PUSH2 0x78C JUMP JUMPDEST SWAP3 SWAP2 POP POP JUMP JUMPDEST PUSH0 DUP1 PUSH1 0x40 DUP4 DUP6 SUB SLT ISZERO PUSH2 0x7CC JUMPI PUSH2 0x7CB PUSH2 0x77F JUMP JUMPDEST JUMPDEST PUSH0 PUSH2 0x7D9 DUP6 DUP3 DUP7 ADD PUSH2 0x7A2 JUMP JUMPDEST SWAP3 POP POP PUSH1 0x20 PUSH2 0x7EA DUP6 DUP3 DUP7 ADD PUSH2 0x7A2 JUMP JUMPDEST SWAP2 POP POP SWAP3 POP SWAP3 SWAP1 POP JUMP JUMPDEST PUSH0 PUSH20 0xFFFFFFFFFFFFFFFFFFFFFFFFFFFFFFFFFFFFFFFF DUP3 AND SWAP1 POP SWAP2 SWAP1 POP JUMP JUMPDEST PUSH0 PUSH2 0x81D DUP3 PUSH2 0x7F4 JUMP JUMPDEST SWAP1 POP SWAP2 SWAP1 POP JUMP JUMPDEST PUSH2 0x82D DUP2 PUSH2 0x813 JUMP JUMPDEST DUP2 EQ PUSH2 0x837 JUMPI PUSH0 DUP1 REVERT JUMPDEST POP JUMP JUMPDEST PUSH0 DUP2 CALLDATALOAD SWAP1 POP PUSH2 0x848 DUP2 PUSH2 0x824 JUMP JUMPDEST SWAP3 SWAP2 POP POP JUMP JUMPDEST PUSH0 PUSH1 0x20 DUP3 DUP5 SUB SLT ISZERO PUSH2 0x863 JUMPI PUSH2 0x862 PUSH2 0x77F JUMP JUMPDEST JUMPDEST PUSH0 PUSH2 0x870 DUP5 DUP3 DUP6 ADD PUSH2 0x83A JUMP JUMPDEST SWAP2 POP POP SWAP3 SWAP2 POP POP JUMP JUMPDEST PUSH2 0x882 DUP2 PUSH2 0x783 JUMP JUMPDEST DUP3 MSTORE POP POP JUMP JUMPDEST PUSH0 PUSH1 0x20 DUP3 ADD SWAP1 POP PUSH2 0x89B PUSH0 DUP4 ADD DUP5 PUSH2 0x879 JUMP JUMPDEST SWAP3 SWAP2 POP POP JUMP JUMPDEST PUSH0 DUP2 SWAP1 POP SWAP2 SWAP1 POP JUMP JUMPDEST PUSH0 PUSH2 0x8C4 PUSH2 0x8BF PUSH2 0x8BA DUP5 PUSH2 0x7F4 JUMP JUMPDEST PUSH2 0x8A1 JUMP JUMPDEST PUSH2 0x7F4 JUMP JUMPDEST SWAP1 POP SWAP2 SWAP1 POP JUMP JUMPDEST PUSH0 PUSH2 0x8D5 DUP3 PUSH2 0x8AA JUMP JUMPDEST SWAP1 POP SWAP2 SWAP1 POP JUMP JUMPDEST PUSH0 PUSH2 0x8E6 DUP3 PUSH2 0x8CB JUMP JUMPDEST SWAP1 POP SWAP2 SWAP1 POP JUMP JUMPDEST PUSH2 0x8F6 DUP2 PUSH2 0x8DC JUMP JUMPDEST DUP3 MSTORE POP POP JUMP JUMPDEST PUSH0 PUSH1 0x20 DUP3 ADD SWAP1 POP PUSH2 0x90F PUSH0 DUP4 ADD DUP5 PUSH2 0x8ED JUMP JUMPDEST SWAP3 SWAP2 POP POP JUMP JUMPDEST PUSH0 PUSH2 0x91F DUP3 PUSH2 0x8CB JUMP JUMPDEST SWAP1 POP SWAP2 SWAP1 POP JUMP JUMPDEST PUSH2 0x92F DUP2 PUSH2 0x915 JUMP JUMPDEST DUP3 MSTORE POP POP JUMP JUMPDEST PUSH0 PUSH1 0x20 DUP3 ADD SWAP1 POP PUSH2 0x948 PUSH0 DUP4 ADD DUP5 PUSH2 0x926 JUMP JUMPDEST SWAP3 SWAP2 POP POP JUMP JUMPDEST PUSH0 DUP3 DUP3 MSTORE PUSH1 0x20 DUP3 ADD SWAP1 POP SWAP3 SWAP2 POP POP JUMP JUMPDEST PUSH32 0x496E73756666696369656E74207374616B656420616D6F756E74000000000000 PUSH0 DUP3 ADD MSTORE POP JUMP JUMPDEST PUSH0 PUSH2 0x992 PUSH1 0x1A DUP4 PUSH2 0x94E JUMP JUMPDEST SWAP2 POP PUSH2 0x99D DUP3 PUSH2 0x95E JUMP JUMPDEST PUSH1 0x20 DUP3 ADD SWAP1 POP SWAP2 SWAP1 POP JUMP JUMPDEST PUSH0 PUSH1 0x20 DUP3 ADD SWAP1 POP DUP2 DUP2 SUB PUSH0 DUP4 ADD MSTORE PUSH2 0x9BF DUP2 PUSH2 0x986 JUMP JUMPDEST SWAP1 POP SWAP2 SWAP1 POP JUMP JUMPDEST PUSH2 0x9CF DUP2 PUSH2 0x813 JUMP JUMPDEST DUP3 MSTORE POP POP JUMP JUMPDEST PUSH0 DUP3 DUP3 MSTORE PUSH1 0x20 DUP3 ADD SWAP1 POP SWAP3 SWAP2 POP POP JUMP JUMPDEST POP JUMP JUMPDEST PUSH0 PUSH2 0x9F3 PUSH0 DUP4 PUSH2 0x9D5 JUMP JUMPDEST SWAP2 POP PUSH2 0x9FE DUP3 PUSH2 0x9E5 JUMP JUMPDEST PUSH0 DUP3 ADD SWAP1 POP SWAP2 SWAP1 POP JUMP JUMPDEST PUSH0 PUSH1 0xA0 DUP3 ADD SWAP1 POP PUSH2 0xA1B PUSH0 DUP4 ADD DUP8 PUSH2 0x9C6 JUMP JUMPDEST PUSH2 0xA28 PUSH1 0x20 DUP4 ADD DUP7 PUSH2 0x9C6 JUMP JUMPDEST PUSH2 0xA35 PUSH1 0x40 DUP4 ADD DUP6 PUSH2 0x879 JUMP JUMPDEST PUSH2 0xA42 PUSH1 0x60 DUP4 ADD DUP5 PUSH2 0x879 JUMP JUMPDEST DUP2 DUP2 SUB PUSH1 0x80 DUP4 ADD MSTORE PUSH2 0xA53 DUP2 PUSH2 0x9E8 JUMP JUMPDEST SWAP1 POP SWAP6 SWAP5 POP POP POP POP POP JUMP JUMPDEST PUSH32 0x4E487B7100000000000000000000000000000000000000000000000000000000 PUSH0 MSTORE PUSH1 0x11 PUSH1 0x4 MSTORE PUSH1 0x24 PUSH0 REVERT JUMPDEST PUSH0 PUSH2 0xA95 DUP3 PUSH2 0x783 JUMP JUMPDEST SWAP2 POP PUSH2 0xAA0 DUP4 PUSH2 0x783 JUMP JUMPDEST SWAP3 POP DUP3 DUP3 SUB SWAP1 POP DUP2 DUP2 GT ISZERO PUSH2 0xAB8 JUMPI PUSH2 0xAB7 PUSH2 0xA5E JUMP JUMPDEST JUMPDEST SWAP3 SWAP2 POP POP JUMP JUMPDEST PUSH32 0x4E6F20746F6B656E73207374616B656400000000000000000000000000000000 PUSH0 DUP3 ADD MSTORE POP JUMP JUMPDEST PUSH0 PUSH2 0xAF2 PUSH1 0x10 DUP4 PUSH2 0x94E JUMP JUMPDEST SWAP2 POP PUSH2 0xAFD DUP3 PUSH2 0xABE JUMP JUMPDEST PUSH1 0x20 DUP3 ADD SWAP1 POP SWAP2 SWAP1 POP JUMP JUMPDEST PUSH0 PUSH1 0x20 DUP3 ADD SWAP1 POP DUP2 DUP2 SUB PUSH0 DUP4 ADD MSTORE PUSH2 0xB1F DUP2 PUSH2 0xAE6 JUMP JUMPDEST SWAP1 POP SWAP2 SWAP1 POP JUMP JUMPDEST PUSH0 PUSH1 0x40 DUP3 ADD SWAP1 POP PUSH2 0xB39 PUSH0 DUP4 ADD DUP6 PUSH2 0x9C6 JUMP JUMPDEST PUSH2 0xB46 PUSH1 0x20 DUP4 ADD DUP5 PUSH2 0x879 JUMP JUMPDEST SWAP4 SWAP3 POP POP POP JUMP JUMPDEST PUSH0 DUP2 ISZERO ISZERO SWAP1 POP SWAP2 SWAP1 POP JUMP JUMPDEST PUSH2 0xB61 DUP2 PUSH2 0xB4D JUMP JUMPDEST DUP2 EQ PUSH2 0xB6B JUMPI PUSH0 DUP1 REVERT JUMPDEST POP JUMP JUMPDEST PUSH0 DUP2 MLOAD SWAP1 POP PUSH2 0xB7C DUP2 PUSH2 0xB58 JUMP JUMPDEST SWAP3 SWAP2 POP POP JUMP JUMPDEST PUSH0 PUSH1 0x20 DUP3 DUP5 SUB SLT ISZERO PUSH2 0xB97 JUMPI PUSH2 0xB96 PUSH2 0x77F JUMP JUMPDEST JUMPDEST PUSH0 PUSH2 0xBA4 DUP5 DUP3 DUP6 ADD PUSH2 0xB6E JUMP JUMPDEST SWAP2 POP POP SWAP3 SWAP2 POP POP JUMP JUMPDEST PUSH32 0x416D6F756E74206D7573742062652067726561746572207468616E207A65726F PUSH0 DUP3 ADD MSTORE POP JUMP JUMPDEST PUSH0 PUSH2 0xBE1 PUSH1 0x20 DUP4 PUSH2 0x94E JUMP JUMPDEST SWAP2 POP PUSH2 0xBEC DUP3 PUSH2 0xBAD JUMP JUMPDEST PUSH1 0x20 DUP3 ADD SWAP1 POP SWAP2 SWAP1 POP JUMP JUMPDEST PUSH0 PUSH1 0x20 DUP3 ADD SWAP1 POP DUP2 DUP2 SUB PUSH0 DUP4 ADD MSTORE PUSH2 0xC0E DUP2 PUSH2 0xBD5 JUMP JUMPDEST SWAP1 POP SWAP2 SWAP1 POP JUMP JUMPDEST PUSH0 DUP2 MLOAD SWAP1 POP PUSH2 0xC23 DUP2 PUSH2 0x78C JUMP JUMPDEST SWAP3 SWAP2 POP POP JUMP JUMPDEST PUSH0 PUSH1 0x20 DUP3 DUP5 SUB SLT ISZERO PUSH2 0xC3E JUMPI PUSH2 0xC3D PUSH2 0x77F JUMP JUMPDEST JUMPDEST PUSH0 PUSH2 0xC4B DUP5 DUP3 DUP6 ADD PUSH2 0xC15 JUMP JUMPDEST SWAP2 POP POP SWAP3 SWAP2 POP POP JUMP JUMPDEST PUSH32 0x496E73756666696369656E742062616C616E6365000000000000000000000000 PUSH0 DUP3 ADD MSTORE POP JUMP JUMPDEST PUSH0 PUSH2 0xC88 PUSH1 0x14 DUP4 PUSH2 0x94E JUMP JUMPDEST SWAP2 POP PUSH2 0xC93 DUP3 PUSH2 0xC54 JUMP JUMPDEST PUSH1 0x20 DUP3 ADD SWAP1 POP SWAP2 SWAP1 POP JUMP JUMPDEST PUSH0 PUSH1 0x20 DUP3 ADD SWAP1 POP DUP2 DUP2 SUB PUSH0 DUP4 ADD MSTORE PUSH2 0xCB5 DUP2 PUSH2 0xC7C JUMP JUMPDEST SWAP1 POP SWAP2 SWAP1 POP JUMP JUMPDEST PUSH0 PUSH2 0xCC6 DUP3 PUSH2 0x783 JUMP JUMPDEST SWAP2 POP PUSH2 0xCD1 DUP4 PUSH2 0x783 JUMP JUMPDEST SWAP3 POP DUP3 DUP3 ADD SWAP1 POP DUP1 DUP3 GT ISZERO PUSH2 0xCE9 JUMPI PUSH2 0xCE8 PUSH2 0xA5E JUMP JUMPDEST JUMPDEST SWAP3 SWAP2 POP POP JUMP JUMPDEST PUSH0 PUSH1 0x40 DUP3 ADD SWAP1 POP PUSH2 0xD02 PUSH0 DUP4 ADD DUP6 PUSH2 0x879 JUMP JUMPDEST PUSH2 0xD0F PUSH1 0x20 DUP4 ADD DUP5 PUSH2 0x879 JUMP JUMPDEST SWAP4 SWAP3 POP POP POP JUMP INVALID LOG2 PUSH5 0x6970667358 0x22 SLT KECCAK256 0x4B MLOAD JUMPI PUSH20 0x7D5D08902FDF7862A9B3CB80CC56AFFE9282074C 0xCE 0x2F BLOBBASEFEE SHR 0x4C 0xF6 ADDRESS PUSH8 0x64736F6C63430008 XOR STOP CALLER "
		},
		"gasEstimates": {
			"creation": {
				"codeDepositCost": "680800",
				"executionCost": "infinite",
				"totalCost": "infinite"
			},
			"external": {
				"claim()": "infinite",
				"nftToken()": "infinite",
				"renounce(uint256,uint256)": "infinite",
				"rewardToken()": "infinite",
				"stake(uint256,uint256)": "infinite",
				"stakedTokens(address)": "2846"
			}
		},
		"methodIdentifiers": {
			"claim()": "4e71d92d",
			"nftToken()": "d06fcba8",
			"renounce(uint256,uint256)": "3b73b5ad",
			"rewardToken()": "f7c618c1",
			"stake(uint256,uint256)": "7b0472f0",
			"stakedTokens(address)": "a5b39cfb"
		}
	},
	"abi": [
		{
			"inputs": [
				{
					"internalType": "address",
					"name": "_nftToken",
					"type": "address"
				},
				{
					"internalType": "address",
					"name": "_rewardToken",
					"type": "address"
				}
			],
			"stateMutability": "nonpayable",
			"type": "constructor"
		},
		{
			"anonymous": false,
			"inputs": [
				{
					"indexed": true,
					"internalType": "address",
					"name": "user",
					"type": "address"
				},
				{
					"indexed": false,
					"internalType": "uint256",
					"name": "amount",
					"type": "uint256"
				}
			],
			"name": "Claimed",
			"type": "event"
		},
		{
			"anonymous": false,
			"inputs": [
				{
					"indexed": true,
					"internalType": "address",
					"name": "user",
					"type": "address"
				},
				{
					"indexed": false,
					"internalType": "uint256",
					"name": "tokenId",
					"type": "uint256"
				},
				{
					"indexed": false,
					"internalType": "uint256",
					"name": "amount",
					"type": "uint256"
				}
			],
			"name": "Staked",
			"type": "event"
		},
		{
			"inputs": [],
			"name": "claim",
			"outputs": [],
			"stateMutability": "nonpayable",
			"type": "function"
		},
		{
			"inputs": [],
			"name": "nftToken",
			"outputs": [
				{
					"internalType": "contract IERC1155",
					"name": "",
					"type": "address"
				}
			],
			"stateMutability": "view",
			"type": "function"
		},
		{
			"inputs": [
				{
					"internalType": "uint256",
					"name": "tokenId",
					"type": "uint256"
				},
				{
					"internalType": "uint256",
					"name": "amount",
					"type": "uint256"
				}
			],
			"name": "renounce",
			"outputs": [],
			"stateMutability": "nonpayable",
			"type": "function"
		},
		{
			"inputs": [],
			"name": "rewardToken",
			"outputs": [
				{
					"internalType": "contract IERC20",
					"name": "",
					"type": "address"
				}
			],
			"stateMutability": "view",
			"type": "function"
		},
		{
			"inputs": [
				{
					"internalType": "uint256",
					"name": "tokenId",
					"type": "uint256"
				},
				{
					"internalType": "uint256",
					"name": "amount",
					"type": "uint256"
				}
			],
			"name": "stake",
			"outputs": [],
			"stateMutability": "nonpayable",
			"type": "function"
		},
		{
			"inputs": [
				{
					"internalType": "address",
					"name": "",
					"type": "address"
				}
			],
			"name": "stakedTokens",
			"outputs": [
				{
					"internalType": "uint256",
					"name": "",
					"type": "uint256"
				}
			],
			"stateMutability": "view",
			"type": "function"
		}
	]
}