{
	"data": {
		"bytecode": {
			"linkReferences": {},
			"object": "608060405234801562000010575f80fd5b503360405180606001604052806022815260200162003e5c602291396200003d816200019460201b60201c565b505f73ffffffffffffffffffffffffffffffffffffffff168173ffffffffffffffffffffffffffffffffffffffff1603620000b1575f6040517f1e4fbdf7000000000000000000000000000000000000000000000000000000008152600401620000a8919062000c9b565b60405180910390fd5b620000c281620001a960201b60201c565b50620000ed335f670de0b6b3a764000060405180602001604052805f8152506200026c60201b60201c565b6200011c3360016b033b2e3c9fd0803ce800000060405180602001604052805f8152506200026c60201b60201c565b62000140336002600160405180602001604052805f8152506200026c60201b60201c565b62000167336003633b9aca0060405180602001604052805f8152506200026c60201b60201c565b6200018e336004633b9aca0060405180602001604052805f8152506200026c60201b60201c565b62001484565b8060029081620001a5919062000f1a565b5050565b5f60035f9054906101000a900473ffffffffffffffffffffffffffffffffffffffff1690508160035f6101000a81548173ffffffffffffffffffffffffffffffffffffffff021916908373ffffffffffffffffffffffffffffffffffffffff1602179055508173ffffffffffffffffffffffffffffffffffffffff168173ffffffffffffffffffffffffffffffffffffffff167f8be0079c531659141344cd1fd0a4f28419497f9722a3daafe3b4186f6b6457e060405160405180910390a35050565b5f73ffffffffffffffffffffffffffffffffffffffff168473ffffffffffffffffffffffffffffffffffffffff1603620002df575f6040517f57f447ce000000000000000000000000000000000000000000000000000000008152600401620002d6919062000c9b565b60405180910390fd5b5f80620002f385856200031460201b60201c565b915091506200030c5f878484876200034460201b60201c565b505050505050565b60608060405191506001825283602083015260408201905060018152826020820152604081016040529250929050565b62000358858585856200041760201b60201c565b5f73ffffffffffffffffffffffffffffffffffffffff168473ffffffffffffffffffffffffffffffffffffffff161462000410575f6200039d620004e860201b60201c565b90506001845103620003f7575f620003bf5f86620004ef60201b90919060201c565b90505f620003d75f86620004ef60201b90919060201c565b9050620003ef8389898585896200050260201b60201c565b50506200040e565b6200040d818787878787620006c060201b60201c565b5b505b5050505050565b6200042b848484846200087e60201b60201c565b6200043b62000c3060201b60201c565b73ffffffffffffffffffffffffffffffffffffffff163373ffffffffffffffffffffffffffffffffffffffff161480620004a057505f73ffffffffffffffffffffffffffffffffffffffff168373ffffffffffffffffffffffffffffffffffffffff16145b620004e2576040517f08c379a0000000000000000000000000000000000000000000000000000000008152600401620004d99062001082565b60405180910390fd5b50505050565b5f33905090565b5f60208202602084010151905092915050565b5f8473ffffffffffffffffffffffffffffffffffffffff163b1115620006b8578373ffffffffffffffffffffffffffffffffffffffff1663f23a6e6187878686866040518663ffffffff1660e01b81526004016200056595949392919062001147565b6020604051808303815f875af1925050508015620005a357506040513d601f19601f82011682018060405250810190620005a0919062001207565b60015b6200062a573d805f8114620005d4576040519150601f19603f3d011682016040523d82523d5f602084013e620005d9565b606091505b505f8151036200062257846040517f57f447ce00000000000000000000000000000000000000000000000000000000815260040162000619919062000c9b565b60405180910390fd5b805181602001fd5b63f23a6e6160e01b7bffffffffffffffffffffffffffffffffffffffffffffffffffffffff1916817bffffffffffffffffffffffffffffffffffffffffffffffffffffffff191614620006b657846040517f57f447ce000000000000000000000000000000000000000000000000000000008152600401620006ad919062000c9b565b60405180910390fd5b505b505050505050565b5f8473ffffffffffffffffffffffffffffffffffffffff163b111562000876578373ffffffffffffffffffffffffffffffffffffffff1663bc197c8187878686866040518663ffffffff1660e01b815260040162000723959493929190620012fe565b6020604051808303815f875af19250505080156200076157506040513d601f19601f820116820180604052508101906200075e919062001207565b60015b620007e8573d805f811462000792576040519150601f19603f3d011682016040523d82523d5f602084013e62000797565b606091505b505f815103620007e057846040517f57f447ce000000000000000000000000000000000000000000000000000000008152600401620007d7919062000c9b565b60405180910390fd5b805181602001fd5b63bc197c8160e01b7bffffffffffffffffffffffffffffffffffffffffffffffffffffffff1916817bffffffffffffffffffffffffffffffffffffffffffffffffffffffff1916146200087457846040517f57f447ce0000000000000000000000000000000000000000000000000000000081526004016200086b919062000c9b565b60405180910390fd5b505b505050505050565b8051825114620008cb57815181516040517f5b059991000000000000000000000000000000000000000000000000000000008152600401620008c29291906200136e565b60405180910390fd5b5f620008dc620004e860201b60201c565b90505f5b835181101562000ae5575f620009008286620004ef60201b90919060201c565b90505f620009188386620004ef60201b90919060201c565b90505f73ffffffffffffffffffffffffffffffffffffffff168873ffffffffffffffffffffffffffffffffffffffff161462000a3f575f805f8481526020019081526020015f205f8a73ffffffffffffffffffffffffffffffffffffffff1673ffffffffffffffffffffffffffffffffffffffff1681526020019081526020015f2054905081811015620009eb57888183856040517f03dee4c5000000000000000000000000000000000000000000000000000000008152600401620009e2949392919062001399565b60405180910390fd5b8181035f808581526020019081526020015f205f8b73ffffffffffffffffffffffffffffffffffffffff1673ffffffffffffffffffffffffffffffffffffffff1681526020019081526020015f2081905550505b5f73ffffffffffffffffffffffffffffffffffffffff168773ffffffffffffffffffffffffffffffffffffffff161462000ad757805f808481526020019081526020015f205f8973ffffffffffffffffffffffffffffffffffffffff1673ffffffffffffffffffffffffffffffffffffffff1681526020019081526020015f205f82825462000acf919062001411565b925050819055505b5050806001019050620008e0565b50600183510362000ba8575f62000b065f85620004ef60201b90919060201c565b90505f62000b1e5f85620004ef60201b90919060201c565b90508573ffffffffffffffffffffffffffffffffffffffff168773ffffffffffffffffffffffffffffffffffffffff168473ffffffffffffffffffffffffffffffffffffffff167fc3d58168c5ae7397731d063d5bbf3d657854427343f4c083240f7aacaa2d0f62858560405162000b989291906200136e565b60405180910390a4505062000c29565b8373ffffffffffffffffffffffffffffffffffffffff168573ffffffffffffffffffffffffffffffffffffffff168273ffffffffffffffffffffffffffffffffffffffff167f4a39dc06d4c0dbc64b70af90fd698a233a518aa5d07e595d983b8c0526c8f7fb868660405162000c209291906200144b565b60405180910390a45b5050505050565b5f60035f9054906101000a900473ffffffffffffffffffffffffffffffffffffffff16905090565b5f73ffffffffffffffffffffffffffffffffffffffff82169050919050565b5f62000c838262000c58565b9050919050565b62000c958162000c77565b82525050565b5f60208201905062000cb05f83018462000c8a565b92915050565b5f81519050919050565b7f4e487b71000000000000000000000000000000000000000000000000000000005f52604160045260245ffd5b7f4e487b71000000000000000000000000000000000000000000000000000000005f52602260045260245ffd5b5f600282049050600182168062000d3257607f821691505b60208210810362000d485762000d4762000ced565b5b50919050565b5f819050815f5260205f209050919050565b5f6020601f8301049050919050565b5f82821b905092915050565b5f6008830262000dac7fffffffffffffffffffffffffffffffffffffffffffffffffffffffffffffffff8262000d6f565b62000db8868362000d6f565b95508019841693508086168417925050509392505050565b5f819050919050565b5f819050919050565b5f62000e0262000dfc62000df68462000dd0565b62000dd9565b62000dd0565b9050919050565b5f819050919050565b62000e1d8362000de2565b62000e3562000e2c8262000e09565b84845462000d7b565b825550505050565b5f90565b62000e4b62000e3d565b62000e5881848462000e12565b505050565b5b8181101562000e7f5762000e735f8262000e41565b60018101905062000e5e565b5050565b601f82111562000ece5762000e988162000d4e565b62000ea38462000d60565b8101602085101562000eb3578190505b62000ecb62000ec28562000d60565b83018262000e5d565b50505b505050565b5f82821c905092915050565b5f62000ef05f198460080262000ed3565b1980831691505092915050565b5f62000f0a838362000edf565b9150826002028217905092915050565b62000f258262000cb6565b67ffffffffffffffff81111562000f415762000f4062000cc0565b5b62000f4d825462000d1a565b62000f5a82828562000e83565b5f60209050601f83116001811462000f90575f841562000f7b578287015190505b62000f87858262000efd565b86555062000ff6565b601f19841662000fa08662000d4e565b5f5b8281101562000fc95784890151825560018201915060208501945060208101905062000fa2565b8683101562000fe9578489015162000fe5601f89168262000edf565b8355505b6001600288020188555050505b505050505050565b5f82825260208201905092915050565b7f546f6b656e2063616e6e6f74206265207472616e736665727265642c206f6e6c5f8201527f79206275726e6564000000000000000000000000000000000000000000000000602082015250565b5f6200106a60288362000ffe565b915062001077826200100e565b604082019050919050565b5f6020820190508181035f8301526200109b816200105c565b9050919050565b620010ad8162000dd0565b82525050565b5f81519050919050565b5f82825260208201905092915050565b5f5b83811015620010ec578082015181840152602081019050620010cf565b5f8484015250505050565b5f601f19601f8301169050919050565b5f6200111382620010b3565b6200111f8185620010bd565b935062001131818560208601620010cd565b6200113c81620010f7565b840191505092915050565b5f60a0820190506200115c5f83018862000c8a565b6200116b602083018762000c8a565b6200117a6040830186620010a2565b620011896060830185620010a2565b81810360808301526200119d818462001107565b90509695505050505050565b5f80fd5b5f7fffffffff0000000000000000000000000000000000000000000000000000000082169050919050565b620011e381620011ad565b8114620011ee575f80fd5b50565b5f815190506200120181620011d8565b92915050565b5f602082840312156200121f576200121e620011a9565b5b5f6200122e84828501620011f1565b91505092915050565b5f81519050919050565b5f82825260208201905092915050565b5f819050602082019050919050565b6200126b8162000dd0565b82525050565b5f6200127e838362001260565b60208301905092915050565b5f602082019050919050565b5f620012a28262001237565b620012ae818562001241565b9350620012bb8362001251565b805f5b83811015620012f1578151620012d5888262001271565b9750620012e2836200128a565b925050600181019050620012be565b5085935050505092915050565b5f60a082019050620013135f83018862000c8a565b62001322602083018762000c8a565b818103604083015262001336818662001296565b905081810360608301526200134c818562001296565b9050818103608083015262001362818462001107565b90509695505050505050565b5f604082019050620013835f830185620010a2565b620013926020830184620010a2565b9392505050565b5f608082019050620013ae5f83018762000c8a565b620013bd6020830186620010a2565b620013cc6040830185620010a2565b620013db6060830184620010a2565b95945050505050565b7f4e487b71000000000000000000000000000000000000000000000000000000005f52601160045260245ffd5b5f6200141d8262000dd0565b91506200142a8362000dd0565b9250828201905080821115620014455762001444620013e4565b5b92915050565b5f6040820190508181035f83015262001465818562001296565b905081810360208301526200147b818462001296565b90509392505050565b6129ca80620014925f395ff3fe608060405234801561000f575f80fd5b506004361061011e575f3560e01c80638c4fd3f9116100ab578063e8a3d4851161006f578063e8a3d485146102f4578063e985e9c514610312578063f242432a14610342578063f2fde38b1461035e578063f5298aca1461037a5761011e565b80638c4fd3f9146102605780638da5cb5b1461027e578063a22cb4651461029c578063ad39e5fd146102b8578063d562e204146102d65761011e565b80633dc845d2116100f25780633dc845d2146101ce5780633eb4dbf9146101ec5780634e1273f41461020a5780636b20c4541461023a578063715018a6146102565761011e565b8062fdd58e1461012257806301ffc9a7146101525780630e89341c146101825780632eb2c2d6146101b2575b5f80fd5b61013c60048036038101906101379190611bfa565b610396565b6040516101499190611c47565b60405180910390f35b61016c60048036038101906101679190611cb5565b6103eb565b6040516101799190611cfa565b60405180910390f35b61019c60048036038101906101979190611d13565b6104cc565b6040516101a99190611dc8565b60405180910390f35b6101cc60048036038101906101c79190611fd8565b6104fd565b005b6101d66105a4565b6040516101e39190611c47565b60405180910390f35b6101f46105a9565b6040516102019190611c47565b60405180910390f35b610224600480360381019061021f9190612163565b6105ae565b6040516102319190612290565b60405180910390f35b610254600480360381019061024f91906122b0565b6106b5565b005b61025e610761565b005b610268610774565b6040516102759190611c47565b60405180910390f35b610286610779565b6040516102939190612347565b60405180910390f35b6102b660048036038101906102b1919061238a565b6107a1565b005b6102c06107b7565b6040516102cd9190611c47565b60405180910390f35b6102de6107bb565b6040516102eb9190611c47565b60405180910390f35b6102fc6107c0565b6040516103099190611dc8565b60405180910390f35b61032c600480360381019061032791906123c8565b6107e0565b6040516103399190611cfa565b60405180910390f35b61035c60048036038101906103579190612406565b61086e565b005b61037860048036038101906103739190612499565b610915565b005b610394600480360381019061038f91906124c4565b610999565b005b5f805f8381526020019081526020015f205f8473ffffffffffffffffffffffffffffffffffffffff1673ffffffffffffffffffffffffffffffffffffffff1681526020019081526020015f2054905092915050565b5f7fd9b67a26000000000000000000000000000000000000000000000000000000007bffffffffffffffffffffffffffffffffffffffffffffffffffffffff1916827bffffffffffffffffffffffffffffffffffffffffffffffffffffffff191614806104b557507f0e89341c000000000000000000000000000000000000000000000000000000007bffffffffffffffffffffffffffffffffffffffffffffffffffffffff1916827bffffffffffffffffffffffffffffffffffffffffffffffffffffffff1916145b806104c557506104c482610a45565b5b9050919050565b60606104d782610aae565b6040516020016104e791906125e2565b6040516020818303038152906040529050919050565b5f610506610b78565b90508073ffffffffffffffffffffffffffffffffffffffff168673ffffffffffffffffffffffffffffffffffffffff161415801561054b575061054986826107e0565b155b1561058f5780866040517fe237d92200000000000000000000000000000000000000000000000000000000815260040161058692919061260e565b60405180910390fd5b61059c8686868686610b7f565b505050505050565b600381565b600481565b606081518351146105fa57815183516040517f5b0599910000000000000000000000000000000000000000000000000000000081526004016105f1929190612635565b60405180910390fd5b5f835167ffffffffffffffff81111561061657610615611dec565b5b6040519080825280602002602001820160405280156106445781602001602082028036833780820191505090505b5090505f5b84518110156106aa576106806106688287610c7390919063ffffffff16565b61067b8387610c8690919063ffffffff16565b610396565b8282815181106106935761069261265c565b5b602002602001018181525050806001019050610649565b508091505092915050565b6106bd610b78565b73ffffffffffffffffffffffffffffffffffffffff168373ffffffffffffffffffffffffffffffffffffffff16141580156107065750610704836106ff610b78565b6107e0565b155b1561075157610713610b78565b836040517fe237d92200000000000000000000000000000000000000000000000000000000815260040161074892919061260e565b60405180910390fd5b61075c838383610c99565b505050565b610769610d29565b6107725f610db0565b565b600181565b5f60035f9054906101000a900473ffffffffffffffffffffffffffffffffffffffff16905090565b6107b36107ac610b78565b8383610e73565b5050565b5f81565b600281565b606060405180606001604052806029815260200161296c60299139905090565b5f60015f8473ffffffffffffffffffffffffffffffffffffffff1673ffffffffffffffffffffffffffffffffffffffff1681526020019081526020015f205f8373ffffffffffffffffffffffffffffffffffffffff1673ffffffffffffffffffffffffffffffffffffffff1681526020019081526020015f205f9054906101000a900460ff16905092915050565b5f610877610b78565b90508073ffffffffffffffffffffffffffffffffffffffff168673ffffffffffffffffffffffffffffffffffffffff16141580156108bc57506108ba86826107e0565b155b156109005780866040517fe237d9220000000000000000000000000000000000000000000000000000000081526004016108f792919061260e565b60405180910390fd5b61090d8686868686610fdc565b505050505050565b61091d610d29565b5f73ffffffffffffffffffffffffffffffffffffffff168173ffffffffffffffffffffffffffffffffffffffff160361098d575f6040517f1e4fbdf70000000000000000000000000000000000000000000000000000000081526004016109849190612347565b60405180910390fd5b61099681610db0565b50565b6109a1610b78565b73ffffffffffffffffffffffffffffffffffffffff168373ffffffffffffffffffffffffffffffffffffffff16141580156109ea57506109e8836109e3610b78565b6107e0565b155b15610a35576109f7610b78565b836040517fe237d922000000000000000000000000000000000000000000000000000000008152600401610a2c92919061260e565b60405180910390fd5b610a408383836110e2565b505050565b5f7f01ffc9a7000000000000000000000000000000000000000000000000000000007bffffffffffffffffffffffffffffffffffffffffffffffffffffffff1916827bffffffffffffffffffffffffffffffffffffffffffffffffffffffff1916149050919050565b60605f6001610abc84611184565b0190505f8167ffffffffffffffff811115610ada57610ad9611dec565b5b6040519080825280601f01601f191660200182016040528015610b0c5781602001600182028036833780820191505090505b5090505f82602001820190505b600115610b6d578080600190039150507f3031323334353637383961626364656600000000000000000000000000000000600a86061a8153600a8581610b6257610b61612689565b5b0494505f8503610b19575b819350505050919050565b5f33905090565b5f73ffffffffffffffffffffffffffffffffffffffff168473ffffffffffffffffffffffffffffffffffffffff1603610bef575f6040517f57f447ce000000000000000000000000000000000000000000000000000000008152600401610be69190612347565b60405180910390fd5b5f73ffffffffffffffffffffffffffffffffffffffff168573ffffffffffffffffffffffffffffffffffffffff1603610c5f575f6040517f01a83514000000000000000000000000000000000000000000000000000000008152600401610c569190612347565b60405180910390fd5b610c6c85858585856112d5565b5050505050565b5f60208202602084010151905092915050565b5f60208202602084010151905092915050565b5f73ffffffffffffffffffffffffffffffffffffffff168373ffffffffffffffffffffffffffffffffffffffff1603610d09575f6040517f01a83514000000000000000000000000000000000000000000000000000000008152600401610d009190612347565b60405180910390fd5b610d24835f848460405180602001604052805f8152506112d5565b505050565b610d31610b78565b73ffffffffffffffffffffffffffffffffffffffff16610d4f610779565b73ffffffffffffffffffffffffffffffffffffffff1614610dae57610d72610b78565b6040517f118cdaa7000000000000000000000000000000000000000000000000000000008152600401610da59190612347565b60405180910390fd5b565b5f60035f9054906101000a900473ffffffffffffffffffffffffffffffffffffffff1690508160035f6101000a81548173ffffffffffffffffffffffffffffffffffffffff021916908373ffffffffffffffffffffffffffffffffffffffff1602179055508173ffffffffffffffffffffffffffffffffffffffff168173ffffffffffffffffffffffffffffffffffffffff167f8be0079c531659141344cd1fd0a4f28419497f9722a3daafe3b4186f6b6457e060405160405180910390a35050565b5f73ffffffffffffffffffffffffffffffffffffffff168273ffffffffffffffffffffffffffffffffffffffff1603610ee3575f6040517fced3e100000000000000000000000000000000000000000000000000000000008152600401610eda9190612347565b60405180910390fd5b8060015f8573ffffffffffffffffffffffffffffffffffffffff1673ffffffffffffffffffffffffffffffffffffffff1681526020019081526020015f205f8473ffffffffffffffffffffffffffffffffffffffff1673ffffffffffffffffffffffffffffffffffffffff1681526020019081526020015f205f6101000a81548160ff0219169083151502179055508173ffffffffffffffffffffffffffffffffffffffff168373ffffffffffffffffffffffffffffffffffffffff167f17307eab39ab6107e8899845ad3d59bd9653f200f220920489ca2b5937696c3183604051610fcf9190611cfa565b60405180910390a3505050565b5f73ffffffffffffffffffffffffffffffffffffffff168473ffffffffffffffffffffffffffffffffffffffff160361104c575f6040517f57f447ce0000000000000000000000000000000000000000000000000000000081526004016110439190612347565b60405180910390fd5b5f73ffffffffffffffffffffffffffffffffffffffff168573ffffffffffffffffffffffffffffffffffffffff16036110bc575f6040517f01a835140000000000000000000000000000000000000000000000000000000081526004016110b39190612347565b60405180910390fd5b5f806110c88585611381565b915091506110d987878484876112d5565b50505050505050565b5f73ffffffffffffffffffffffffffffffffffffffff168373ffffffffffffffffffffffffffffffffffffffff1603611152575f6040517f01a835140000000000000000000000000000000000000000000000000000000081526004016111499190612347565b60405180910390fd5b5f8061115e8484611381565b9150915061117d855f848460405180602001604052805f8152506112d5565b5050505050565b5f805f90507a184f03e93ff9f4daa797ed6e38ed64bf6a1f01000000000000000083106111e0577a184f03e93ff9f4daa797ed6e38ed64bf6a1f01000000000000000083816111d6576111d5612689565b5b0492506040810190505b6d04ee2d6d415b85acef8100000000831061121d576d04ee2d6d415b85acef8100000000838161121357611212612689565b5b0492506020810190505b662386f26fc10000831061124c57662386f26fc10000838161124257611241612689565b5b0492506010810190505b6305f5e1008310611275576305f5e100838161126b5761126a612689565b5b0492506008810190505b612710831061129a5761271083816112905761128f612689565b5b0492506004810190505b606483106112bd57606483816112b3576112b2612689565b5b0492506002810190505b600a83106112cc576001810190505b80915050919050565b6112e1858585856113b1565b5f73ffffffffffffffffffffffffffffffffffffffff168473ffffffffffffffffffffffffffffffffffffffff161461137a575f61131d610b78565b90506001845103611369575f61133c5f86610c8690919063ffffffff16565b90505f6113525f86610c8690919063ffffffff16565b905061136283898985858961146e565b5050611378565b61137781878787878761161d565b5b505b5050505050565b60608060405191506001825283602083015260408201905060018152826020820152604081016040529250929050565b6113bd848484846117cc565b6113c5610779565b73ffffffffffffffffffffffffffffffffffffffff163373ffffffffffffffffffffffffffffffffffffffff16148061142957505f73ffffffffffffffffffffffffffffffffffffffff168373ffffffffffffffffffffffffffffffffffffffff16145b611468576040517f08c379a000000000000000000000000000000000000000000000000000000000815260040161145f90612726565b60405180910390fd5b50505050565b5f8473ffffffffffffffffffffffffffffffffffffffff163b1115611615578373ffffffffffffffffffffffffffffffffffffffff1663f23a6e6187878686866040518663ffffffff1660e01b81526004016114ce959493929190612796565b6020604051808303815f875af192505050801561150957506040513d601f19601f820116820180604052508101906115069190612802565b60015b61158a573d805f8114611537576040519150601f19603f3d011682016040523d82523d5f602084013e61153c565b606091505b505f81510361158257846040517f57f447ce0000000000000000000000000000000000000000000000000000000081526004016115799190612347565b60405180910390fd5b805181602001fd5b63f23a6e6160e01b7bffffffffffffffffffffffffffffffffffffffffffffffffffffffff1916817bffffffffffffffffffffffffffffffffffffffffffffffffffffffff19161461161357846040517f57f447ce00000000000000000000000000000000000000000000000000000000815260040161160a9190612347565b60405180910390fd5b505b505050505050565b5f8473ffffffffffffffffffffffffffffffffffffffff163b11156117c4578373ffffffffffffffffffffffffffffffffffffffff1663bc197c8187878686866040518663ffffffff1660e01b815260040161167d95949392919061282d565b6020604051808303815f875af19250505080156116b857506040513d601f19601f820116820180604052508101906116b59190612802565b60015b611739573d805f81146116e6576040519150601f19603f3d011682016040523d82523d5f602084013e6116eb565b606091505b505f81510361173157846040517f57f447ce0000000000000000000000000000000000000000000000000000000081526004016117289190612347565b60405180910390fd5b805181602001fd5b63bc197c8160e01b7bffffffffffffffffffffffffffffffffffffffffffffffffffffffff1916817bffffffffffffffffffffffffffffffffffffffffffffffffffffffff1916146117c257846040517f57f447ce0000000000000000000000000000000000000000000000000000000081526004016117b99190612347565b60405180910390fd5b505b505050505050565b805182511461181657815181516040517f5b05999100000000000000000000000000000000000000000000000000000000815260040161180d929190612635565b60405180910390fd5b5f61181f610b78565b90505f5b8351811015611a1b575f6118408286610c8690919063ffffffff16565b90505f6118568386610c8690919063ffffffff16565b90505f73ffffffffffffffffffffffffffffffffffffffff168873ffffffffffffffffffffffffffffffffffffffff1614611979575f805f8481526020019081526020015f205f8a73ffffffffffffffffffffffffffffffffffffffff1673ffffffffffffffffffffffffffffffffffffffff1681526020019081526020015f205490508181101561192557888183856040517f03dee4c500000000000000000000000000000000000000000000000000000000815260040161191c9493929190612893565b60405180910390fd5b8181035f808581526020019081526020015f205f8b73ffffffffffffffffffffffffffffffffffffffff1673ffffffffffffffffffffffffffffffffffffffff1681526020019081526020015f2081905550505b5f73ffffffffffffffffffffffffffffffffffffffff168773ffffffffffffffffffffffffffffffffffffffff1614611a0e57805f808481526020019081526020015f205f8973ffffffffffffffffffffffffffffffffffffffff1673ffffffffffffffffffffffffffffffffffffffff1681526020019081526020015f205f828254611a069190612903565b925050819055505b5050806001019050611823565b506001835103611ad6575f611a395f85610c8690919063ffffffff16565b90505f611a4f5f85610c8690919063ffffffff16565b90508573ffffffffffffffffffffffffffffffffffffffff168773ffffffffffffffffffffffffffffffffffffffff168473ffffffffffffffffffffffffffffffffffffffff167fc3d58168c5ae7397731d063d5bbf3d657854427343f4c083240f7aacaa2d0f628585604051611ac7929190612635565b60405180910390a45050611b55565b8373ffffffffffffffffffffffffffffffffffffffff168573ffffffffffffffffffffffffffffffffffffffff168273ffffffffffffffffffffffffffffffffffffffff167f4a39dc06d4c0dbc64b70af90fd698a233a518aa5d07e595d983b8c0526c8f7fb8686604051611b4c929190612936565b60405180910390a45b5050505050565b5f604051905090565b5f80fd5b5f80fd5b5f73ffffffffffffffffffffffffffffffffffffffff82169050919050565b5f611b9682611b6d565b9050919050565b611ba681611b8c565b8114611bb0575f80fd5b50565b5f81359050611bc181611b9d565b92915050565b5f819050919050565b611bd981611bc7565b8114611be3575f80fd5b50565b5f81359050611bf481611bd0565b92915050565b5f8060408385031215611c1057611c0f611b65565b5b5f611c1d85828601611bb3565b9250506020611c2e85828601611be6565b9150509250929050565b611c4181611bc7565b82525050565b5f602082019050611c5a5f830184611c38565b92915050565b5f7fffffffff0000000000000000000000000000000000000000000000000000000082169050919050565b611c9481611c60565b8114611c9e575f80fd5b50565b5f81359050611caf81611c8b565b92915050565b5f60208284031215611cca57611cc9611b65565b5b5f611cd784828501611ca1565b91505092915050565b5f8115159050919050565b611cf481611ce0565b82525050565b5f602082019050611d0d5f830184611ceb565b92915050565b5f60208284031215611d2857611d27611b65565b5b5f611d3584828501611be6565b91505092915050565b5f81519050919050565b5f82825260208201905092915050565b5f5b83811015611d75578082015181840152602081019050611d5a565b5f8484015250505050565b5f601f19601f8301169050919050565b5f611d9a82611d3e565b611da48185611d48565b9350611db4818560208601611d58565b611dbd81611d80565b840191505092915050565b5f6020820190508181035f830152611de08184611d90565b905092915050565b5f80fd5b7f4e487b71000000000000000000000000000000000000000000000000000000005f52604160045260245ffd5b611e2282611d80565b810181811067ffffffffffffffff82111715611e4157611e40611dec565b5b80604052505050565b5f611e53611b5c565b9050611e5f8282611e19565b919050565b5f67ffffffffffffffff821115611e7e57611e7d611dec565b5b602082029050602081019050919050565b5f80fd5b5f611ea5611ea084611e64565b611e4a565b90508083825260208201905060208402830185811115611ec857611ec7611e8f565b5b835b81811015611ef15780611edd8882611be6565b845260208401935050602081019050611eca565b5050509392505050565b5f82601f830112611f0f57611f0e611de8565b5b8135611f1f848260208601611e93565b91505092915050565b5f80fd5b5f67ffffffffffffffff821115611f4657611f45611dec565b5b611f4f82611d80565b9050602081019050919050565b828183375f83830152505050565b5f611f7c611f7784611f2c565b611e4a565b905082815260208101848484011115611f9857611f97611f28565b5b611fa3848285611f5c565b509392505050565b5f82601f830112611fbf57611fbe611de8565b5b8135611fcf848260208601611f6a565b91505092915050565b5f805f805f60a08688031215611ff157611ff0611b65565b5b5f611ffe88828901611bb3565b955050602061200f88828901611bb3565b945050604086013567ffffffffffffffff8111156120305761202f611b69565b5b61203c88828901611efb565b935050606086013567ffffffffffffffff81111561205d5761205c611b69565b5b61206988828901611efb565b925050608086013567ffffffffffffffff81111561208a57612089611b69565b5b61209688828901611fab565b9150509295509295909350565b5f67ffffffffffffffff8211156120bd576120bc611dec565b5b602082029050602081019050919050565b5f6120e06120db846120a3565b611e4a565b9050808382526020820190506020840283018581111561210357612102611e8f565b5b835b8181101561212c57806121188882611bb3565b845260208401935050602081019050612105565b5050509392505050565b5f82601f83011261214a57612149611de8565b5b813561215a8482602086016120ce565b91505092915050565b5f806040838503121561217957612178611b65565b5b5f83013567ffffffffffffffff81111561219657612195611b69565b5b6121a285828601612136565b925050602083013567ffffffffffffffff8111156121c3576121c2611b69565b5b6121cf85828601611efb565b9150509250929050565b5f81519050919050565b5f82825260208201905092915050565b5f819050602082019050919050565b61220b81611bc7565b82525050565b5f61221c8383612202565b60208301905092915050565b5f602082019050919050565b5f61223e826121d9565b61224881856121e3565b9350612253836121f3565b805f5b8381101561228357815161226a8882612211565b975061227583612228565b925050600181019050612256565b5085935050505092915050565b5f6020820190508181035f8301526122a88184612234565b905092915050565b5f805f606084860312156122c7576122c6611b65565b5b5f6122d486828701611bb3565b935050602084013567ffffffffffffffff8111156122f5576122f4611b69565b5b61230186828701611efb565b925050604084013567ffffffffffffffff81111561232257612321611b69565b5b61232e86828701611efb565b9150509250925092565b61234181611b8c565b82525050565b5f60208201905061235a5f830184612338565b92915050565b61236981611ce0565b8114612373575f80fd5b50565b5f8135905061238481612360565b92915050565b5f80604083850312156123a05761239f611b65565b5b5f6123ad85828601611bb3565b92505060206123be85828601612376565b9150509250929050565b5f80604083850312156123de576123dd611b65565b5b5f6123eb85828601611bb3565b92505060206123fc85828601611bb3565b9150509250929050565b5f805f805f60a0868803121561241f5761241e611b65565b5b5f61242c88828901611bb3565b955050602061243d88828901611bb3565b945050604061244e88828901611be6565b935050606061245f88828901611be6565b925050608086013567ffffffffffffffff8111156124805761247f611b69565b5b61248c88828901611fab565b9150509295509295909350565b5f602082840312156124ae576124ad611b65565b5b5f6124bb84828501611bb3565b91505092915050565b5f805f606084860312156124db576124da611b65565b5b5f6124e886828701611bb3565b93505060206124f986828701611be6565b925050604061250a86828701611be6565b9150509250925092565b5f81905092915050565b7f68747470733a2f2f697066732e696f2f697066732f484153482f0000000000005f82015250565b5f612552601a83612514565b915061255d8261251e565b601a82019050919050565b5f61257282611d3e565b61257c8185612514565b935061258c818560208601611d58565b80840191505092915050565b7f2e6a736f6e0000000000000000000000000000000000000000000000000000005f82015250565b5f6125cc600583612514565b91506125d782612598565b600582019050919050565b5f6125ec82612546565b91506125f88284612568565b9150612603826125c0565b915081905092915050565b5f6040820190506126215f830185612338565b61262e6020830184612338565b9392505050565b5f6040820190506126485f830185611c38565b6126556020830184611c38565b9392505050565b7f4e487b71000000000000000000000000000000000000000000000000000000005f52603260045260245ffd5b7f4e487b71000000000000000000000000000000000000000000000000000000005f52601260045260245ffd5b7f546f6b656e2063616e6e6f74206265207472616e736665727265642c206f6e6c5f8201527f79206275726e6564000000000000000000000000000000000000000000000000602082015250565b5f612710602883611d48565b915061271b826126b6565b604082019050919050565b5f6020820190508181035f83015261273d81612704565b9050919050565b5f81519050919050565b5f82825260208201905092915050565b5f61276882612744565b612772818561274e565b9350612782818560208601611d58565b61278b81611d80565b840191505092915050565b5f60a0820190506127a95f830188612338565b6127b66020830187612338565b6127c36040830186611c38565b6127d06060830185611c38565b81810360808301526127e2818461275e565b90509695505050505050565b5f815190506127fc81611c8b565b92915050565b5f6020828403121561281757612816611b65565b5b5f612824848285016127ee565b91505092915050565b5f60a0820190506128405f830188612338565b61284d6020830187612338565b818103604083015261285f8186612234565b905081810360608301526128738185612234565b90508181036080830152612887818461275e565b90509695505050505050565b5f6080820190506128a65f830187612338565b6128b36020830186611c38565b6128c06040830185611c38565b6128cd6060830184611c38565b95945050505050565b7f4e487b71000000000000000000000000000000000000000000000000000000005f52601160045260245ffd5b5f61290d82611bc7565b915061291883611bc7565b92508282019050808211156129305761292f6128d6565b5b92915050565b5f6040820190508181035f83015261294e8185612234565b905081810360208301526129628184612234565b9050939250505056fe68747470733a2f2f697066732e696f2f697066732f484153482f636f6c6c656374696f6e2e6a736f6ea2646970667358221220e08e90fb3af93bc5d3b2e554b792b88d34aae3cfe410f8d78bdffbb9badafa2064736f6c6343000818003368747470733a2f2f697066732e696f2f6970732f484153482f7b69647d2e6a736f6e",
			"opcodes": "PUSH1 0x80 PUSH1 0x40 MSTORE CALLVALUE DUP1 ISZERO PUSH3 0x10 JUMPI PUSH0 DUP1 REVERT JUMPDEST POP CALLER PUSH1 0x40 MLOAD DUP1 PUSH1 0x60 ADD PUSH1 0x40 MSTORE DUP1 PUSH1 0x22 DUP2 MSTORE PUSH1 0x20 ADD PUSH3 0x3E5C PUSH1 0x22 SWAP2 CODECOPY PUSH3 0x3D DUP2 PUSH3 0x194 PUSH1 0x20 SHL PUSH1 0x20 SHR JUMP JUMPDEST POP PUSH0 PUSH20 0xFFFFFFFFFFFFFFFFFFFFFFFFFFFFFFFFFFFFFFFF AND DUP2 PUSH20 0xFFFFFFFFFFFFFFFFFFFFFFFFFFFFFFFFFFFFFFFF AND SUB PUSH3 0xB1 JUMPI PUSH0 PUSH1 0x40 MLOAD PUSH32 0x1E4FBDF700000000000000000000000000000000000000000000000000000000 DUP2 MSTORE PUSH1 0x4 ADD PUSH3 0xA8 SWAP2 SWAP1 PUSH3 0xC9B JUMP JUMPDEST PUSH1 0x40 MLOAD DUP1 SWAP2 SUB SWAP1 REVERT JUMPDEST PUSH3 0xC2 DUP2 PUSH3 0x1A9 PUSH1 0x20 SHL PUSH1 0x20 SHR JUMP JUMPDEST POP PUSH3 0xED CALLER PUSH0 PUSH8 0xDE0B6B3A7640000 PUSH1 0x40 MLOAD DUP1 PUSH1 0x20 ADD PUSH1 0x40 MSTORE DUP1 PUSH0 DUP2 MSTORE POP PUSH3 0x26C PUSH1 0x20 SHL PUSH1 0x20 SHR JUMP JUMPDEST PUSH3 0x11C CALLER PUSH1 0x1 PUSH12 0x33B2E3C9FD0803CE8000000 PUSH1 0x40 MLOAD DUP1 PUSH1 0x20 ADD PUSH1 0x40 MSTORE DUP1 PUSH0 DUP2 MSTORE POP PUSH3 0x26C PUSH1 0x20 SHL PUSH1 0x20 SHR JUMP JUMPDEST PUSH3 0x140 CALLER PUSH1 0x2 PUSH1 0x1 PUSH1 0x40 MLOAD DUP1 PUSH1 0x20 ADD PUSH1 0x40 MSTORE DUP1 PUSH0 DUP2 MSTORE POP PUSH3 0x26C PUSH1 0x20 SHL PUSH1 0x20 SHR JUMP JUMPDEST PUSH3 0x167 CALLER PUSH1 0x3 PUSH4 0x3B9ACA00 PUSH1 0x40 MLOAD DUP1 PUSH1 0x20 ADD PUSH1 0x40 MSTORE DUP1 PUSH0 DUP2 MSTORE POP PUSH3 0x26C PUSH1 0x20 SHL PUSH1 0x20 SHR JUMP JUMPDEST PUSH3 0x18E CALLER PUSH1 0x4 PUSH4 0x3B9ACA00 PUSH1 0x40 MLOAD DUP1 PUSH1 0x20 ADD PUSH1 0x40 MSTORE DUP1 PUSH0 DUP2 MSTORE POP PUSH3 0x26C PUSH1 0x20 SHL PUSH1 0x20 SHR JUMP JUMPDEST PUSH3 0x1484 JUMP JUMPDEST DUP1 PUSH1 0x2 SWAP1 DUP2 PUSH3 0x1A5 SWAP2 SWAP1 PUSH3 0xF1A JUMP JUMPDEST POP POP JUMP JUMPDEST PUSH0 PUSH1 0x3 PUSH0 SWAP1 SLOAD SWAP1 PUSH2 0x100 EXP SWAP1 DIV PUSH20 0xFFFFFFFFFFFFFFFFFFFFFFFFFFFFFFFFFFFFFFFF AND SWAP1 POP DUP2 PUSH1 0x3 PUSH0 PUSH2 0x100 EXP DUP2 SLOAD DUP2 PUSH20 0xFFFFFFFFFFFFFFFFFFFFFFFFFFFFFFFFFFFFFFFF MUL NOT AND SWAP1 DUP4 PUSH20 0xFFFFFFFFFFFFFFFFFFFFFFFFFFFFFFFFFFFFFFFF AND MUL OR SWAP1 SSTORE POP DUP2 PUSH20 0xFFFFFFFFFFFFFFFFFFFFFFFFFFFFFFFFFFFFFFFF AND DUP2 PUSH20 0xFFFFFFFFFFFFFFFFFFFFFFFFFFFFFFFFFFFFFFFF AND PUSH32 0x8BE0079C531659141344CD1FD0A4F28419497F9722A3DAAFE3B4186F6B6457E0 PUSH1 0x40 MLOAD PUSH1 0x40 MLOAD DUP1 SWAP2 SUB SWAP1 LOG3 POP POP JUMP JUMPDEST PUSH0 PUSH20 0xFFFFFFFFFFFFFFFFFFFFFFFFFFFFFFFFFFFFFFFF AND DUP5 PUSH20 0xFFFFFFFFFFFFFFFFFFFFFFFFFFFFFFFFFFFFFFFF AND SUB PUSH3 0x2DF JUMPI PUSH0 PUSH1 0x40 MLOAD PUSH32 0x57F447CE00000000000000000000000000000000000000000000000000000000 DUP2 MSTORE PUSH1 0x4 ADD PUSH3 0x2D6 SWAP2 SWAP1 PUSH3 0xC9B JUMP JUMPDEST PUSH1 0x40 MLOAD DUP1 SWAP2 SUB SWAP1 REVERT JUMPDEST PUSH0 DUP1 PUSH3 0x2F3 DUP6 DUP6 PUSH3 0x314 PUSH1 0x20 SHL PUSH1 0x20 SHR JUMP JUMPDEST SWAP2 POP SWAP2 POP PUSH3 0x30C PUSH0 DUP8 DUP5 DUP5 DUP8 PUSH3 0x344 PUSH1 0x20 SHL PUSH1 0x20 SHR JUMP JUMPDEST POP POP POP POP POP POP JUMP JUMPDEST PUSH1 0x60 DUP1 PUSH1 0x40 MLOAD SWAP2 POP PUSH1 0x1 DUP3 MSTORE DUP4 PUSH1 0x20 DUP4 ADD MSTORE PUSH1 0x40 DUP3 ADD SWAP1 POP PUSH1 0x1 DUP2 MSTORE DUP3 PUSH1 0x20 DUP3 ADD MSTORE PUSH1 0x40 DUP2 ADD PUSH1 0x40 MSTORE SWAP3 POP SWAP3 SWAP1 POP JUMP JUMPDEST PUSH3 0x358 DUP6 DUP6 DUP6 DUP6 PUSH3 0x417 PUSH1 0x20 SHL PUSH1 0x20 SHR JUMP JUMPDEST PUSH0 PUSH20 0xFFFFFFFFFFFFFFFFFFFFFFFFFFFFFFFFFFFFFFFF AND DUP5 PUSH20 0xFFFFFFFFFFFFFFFFFFFFFFFFFFFFFFFFFFFFFFFF AND EQ PUSH3 0x410 JUMPI PUSH0 PUSH3 0x39D PUSH3 0x4E8 PUSH1 0x20 SHL PUSH1 0x20 SHR JUMP JUMPDEST SWAP1 POP PUSH1 0x1 DUP5 MLOAD SUB PUSH3 0x3F7 JUMPI PUSH0 PUSH3 0x3BF PUSH0 DUP7 PUSH3 0x4EF PUSH1 0x20 SHL SWAP1 SWAP2 SWAP1 PUSH1 0x20 SHR JUMP JUMPDEST SWAP1 POP PUSH0 PUSH3 0x3D7 PUSH0 DUP7 PUSH3 0x4EF PUSH1 0x20 SHL SWAP1 SWAP2 SWAP1 PUSH1 0x20 SHR JUMP JUMPDEST SWAP1 POP PUSH3 0x3EF DUP4 DUP10 DUP10 DUP6 DUP6 DUP10 PUSH3 0x502 PUSH1 0x20 SHL PUSH1 0x20 SHR JUMP JUMPDEST POP POP PUSH3 0x40E JUMP JUMPDEST PUSH3 0x40D DUP2 DUP8 DUP8 DUP8 DUP8 DUP8 PUSH3 0x6C0 PUSH1 0x20 SHL PUSH1 0x20 SHR JUMP JUMPDEST JUMPDEST POP JUMPDEST POP POP POP POP POP JUMP JUMPDEST PUSH3 0x42B DUP5 DUP5 DUP5 DUP5 PUSH3 0x87E PUSH1 0x20 SHL PUSH1 0x20 SHR JUMP JUMPDEST PUSH3 0x43B PUSH3 0xC30 PUSH1 0x20 SHL PUSH1 0x20 SHR JUMP JUMPDEST PUSH20 0xFFFFFFFFFFFFFFFFFFFFFFFFFFFFFFFFFFFFFFFF AND CALLER PUSH20 0xFFFFFFFFFFFFFFFFFFFFFFFFFFFFFFFFFFFFFFFF AND EQ DUP1 PUSH3 0x4A0 JUMPI POP PUSH0 PUSH20 0xFFFFFFFFFFFFFFFFFFFFFFFFFFFFFFFFFFFFFFFF AND DUP4 PUSH20 0xFFFFFFFFFFFFFFFFFFFFFFFFFFFFFFFFFFFFFFFF AND EQ JUMPDEST PUSH3 0x4E2 JUMPI PUSH1 0x40 MLOAD PUSH32 0x8C379A000000000000000000000000000000000000000000000000000000000 DUP2 MSTORE PUSH1 0x4 ADD PUSH3 0x4D9 SWAP1 PUSH3 0x1082 JUMP JUMPDEST PUSH1 0x40 MLOAD DUP1 SWAP2 SUB SWAP1 REVERT JUMPDEST POP POP POP POP JUMP JUMPDEST PUSH0 CALLER SWAP1 POP SWAP1 JUMP JUMPDEST PUSH0 PUSH1 0x20 DUP3 MUL PUSH1 0x20 DUP5 ADD ADD MLOAD SWAP1 POP SWAP3 SWAP2 POP POP JUMP JUMPDEST PUSH0 DUP5 PUSH20 0xFFFFFFFFFFFFFFFFFFFFFFFFFFFFFFFFFFFFFFFF AND EXTCODESIZE GT ISZERO PUSH3 0x6B8 JUMPI DUP4 PUSH20 0xFFFFFFFFFFFFFFFFFFFFFFFFFFFFFFFFFFFFFFFF AND PUSH4 0xF23A6E61 DUP8 DUP8 DUP7 DUP7 DUP7 PUSH1 0x40 MLOAD DUP7 PUSH4 0xFFFFFFFF AND PUSH1 0xE0 SHL DUP2 MSTORE PUSH1 0x4 ADD PUSH3 0x565 SWAP6 SWAP5 SWAP4 SWAP3 SWAP2 SWAP1 PUSH3 0x1147 JUMP JUMPDEST PUSH1 0x20 PUSH1 0x40 MLOAD DUP1 DUP4 SUB DUP2 PUSH0 DUP8 GAS CALL SWAP3 POP POP POP DUP1 ISZERO PUSH3 0x5A3 JUMPI POP PUSH1 0x40 MLOAD RETURNDATASIZE PUSH1 0x1F NOT PUSH1 0x1F DUP3 ADD AND DUP3 ADD DUP1 PUSH1 0x40 MSTORE POP DUP2 ADD SWAP1 PUSH3 0x5A0 SWAP2 SWAP1 PUSH3 0x1207 JUMP JUMPDEST PUSH1 0x1 JUMPDEST PUSH3 0x62A JUMPI RETURNDATASIZE DUP1 PUSH0 DUP2 EQ PUSH3 0x5D4 JUMPI PUSH1 0x40 MLOAD SWAP2 POP PUSH1 0x1F NOT PUSH1 0x3F RETURNDATASIZE ADD AND DUP3 ADD PUSH1 0x40 MSTORE RETURNDATASIZE DUP3 MSTORE RETURNDATASIZE PUSH0 PUSH1 0x20 DUP5 ADD RETURNDATACOPY PUSH3 0x5D9 JUMP JUMPDEST PUSH1 0x60 SWAP2 POP JUMPDEST POP PUSH0 DUP2 MLOAD SUB PUSH3 0x622 JUMPI DUP5 PUSH1 0x40 MLOAD PUSH32 0x57F447CE00000000000000000000000000000000000000000000000000000000 DUP2 MSTORE PUSH1 0x4 ADD PUSH3 0x619 SWAP2 SWAP1 PUSH3 0xC9B JUMP JUMPDEST PUSH1 0x40 MLOAD DUP1 SWAP2 SUB SWAP1 REVERT JUMPDEST DUP1 MLOAD DUP2 PUSH1 0x20 ADD REVERT JUMPDEST PUSH4 0xF23A6E61 PUSH1 0xE0 SHL PUSH28 0xFFFFFFFFFFFFFFFFFFFFFFFFFFFFFFFFFFFFFFFFFFFFFFFFFFFFFFFF NOT AND DUP2 PUSH28 0xFFFFFFFFFFFFFFFFFFFFFFFFFFFFFFFFFFFFFFFFFFFFFFFFFFFFFFFF NOT AND EQ PUSH3 0x6B6 JUMPI DUP5 PUSH1 0x40 MLOAD PUSH32 0x57F447CE00000000000000000000000000000000000000000000000000000000 DUP2 MSTORE PUSH1 0x4 ADD PUSH3 0x6AD SWAP2 SWAP1 PUSH3 0xC9B JUMP JUMPDEST PUSH1 0x40 MLOAD DUP1 SWAP2 SUB SWAP1 REVERT JUMPDEST POP JUMPDEST POP POP POP POP POP POP JUMP JUMPDEST PUSH0 DUP5 PUSH20 0xFFFFFFFFFFFFFFFFFFFFFFFFFFFFFFFFFFFFFFFF AND EXTCODESIZE GT ISZERO PUSH3 0x876 JUMPI DUP4 PUSH20 0xFFFFFFFFFFFFFFFFFFFFFFFFFFFFFFFFFFFFFFFF AND PUSH4 0xBC197C81 DUP8 DUP8 DUP7 DUP7 DUP7 PUSH1 0x40 MLOAD DUP7 PUSH4 0xFFFFFFFF AND PUSH1 0xE0 SHL DUP2 MSTORE PUSH1 0x4 ADD PUSH3 0x723 SWAP6 SWAP5 SWAP4 SWAP3 SWAP2 SWAP1 PUSH3 0x12FE JUMP JUMPDEST PUSH1 0x20 PUSH1 0x40 MLOAD DUP1 DUP4 SUB DUP2 PUSH0 DUP8 GAS CALL SWAP3 POP POP POP DUP1 ISZERO PUSH3 0x761 JUMPI POP PUSH1 0x40 MLOAD RETURNDATASIZE PUSH1 0x1F NOT PUSH1 0x1F DUP3 ADD AND DUP3 ADD DUP1 PUSH1 0x40 MSTORE POP DUP2 ADD SWAP1 PUSH3 0x75E SWAP2 SWAP1 PUSH3 0x1207 JUMP JUMPDEST PUSH1 0x1 JUMPDEST PUSH3 0x7E8 JUMPI RETURNDATASIZE DUP1 PUSH0 DUP2 EQ PUSH3 0x792 JUMPI PUSH1 0x40 MLOAD SWAP2 POP PUSH1 0x1F NOT PUSH1 0x3F RETURNDATASIZE ADD AND DUP3 ADD PUSH1 0x40 MSTORE RETURNDATASIZE DUP3 MSTORE RETURNDATASIZE PUSH0 PUSH1 0x20 DUP5 ADD RETURNDATACOPY PUSH3 0x797 JUMP JUMPDEST PUSH1 0x60 SWAP2 POP JUMPDEST POP PUSH0 DUP2 MLOAD SUB PUSH3 0x7E0 JUMPI DUP5 PUSH1 0x40 MLOAD PUSH32 0x57F447CE00000000000000000000000000000000000000000000000000000000 DUP2 MSTORE PUSH1 0x4 ADD PUSH3 0x7D7 SWAP2 SWAP1 PUSH3 0xC9B JUMP JUMPDEST PUSH1 0x40 MLOAD DUP1 SWAP2 SUB SWAP1 REVERT JUMPDEST DUP1 MLOAD DUP2 PUSH1 0x20 ADD REVERT JUMPDEST PUSH4 0xBC197C81 PUSH1 0xE0 SHL PUSH28 0xFFFFFFFFFFFFFFFFFFFFFFFFFFFFFFFFFFFFFFFFFFFFFFFFFFFFFFFF NOT AND DUP2 PUSH28 0xFFFFFFFFFFFFFFFFFFFFFFFFFFFFFFFFFFFFFFFFFFFFFFFFFFFFFFFF NOT AND EQ PUSH3 0x874 JUMPI DUP5 PUSH1 0x40 MLOAD PUSH32 0x57F447CE00000000000000000000000000000000000000000000000000000000 DUP2 MSTORE PUSH1 0x4 ADD PUSH3 0x86B SWAP2 SWAP1 PUSH3 0xC9B JUMP JUMPDEST PUSH1 0x40 MLOAD DUP1 SWAP2 SUB SWAP1 REVERT JUMPDEST POP JUMPDEST POP POP POP POP POP POP JUMP JUMPDEST DUP1 MLOAD DUP3 MLOAD EQ PUSH3 0x8CB JUMPI DUP2 MLOAD DUP2 MLOAD PUSH1 0x40 MLOAD PUSH32 0x5B05999100000000000000000000000000000000000000000000000000000000 DUP2 MSTORE PUSH1 0x4 ADD PUSH3 0x8C2 SWAP3 SWAP2 SWAP1 PUSH3 0x136E JUMP JUMPDEST PUSH1 0x40 MLOAD DUP1 SWAP2 SUB SWAP1 REVERT JUMPDEST PUSH0 PUSH3 0x8DC PUSH3 0x4E8 PUSH1 0x20 SHL PUSH1 0x20 SHR JUMP JUMPDEST SWAP1 POP PUSH0 JUMPDEST DUP4 MLOAD DUP2 LT ISZERO PUSH3 0xAE5 JUMPI PUSH0 PUSH3 0x900 DUP3 DUP7 PUSH3 0x4EF PUSH1 0x20 SHL SWAP1 SWAP2 SWAP1 PUSH1 0x20 SHR JUMP JUMPDEST SWAP1 POP PUSH0 PUSH3 0x918 DUP4 DUP7 PUSH3 0x4EF PUSH1 0x20 SHL SWAP1 SWAP2 SWAP1 PUSH1 0x20 SHR JUMP JUMPDEST SWAP1 POP PUSH0 PUSH20 0xFFFFFFFFFFFFFFFFFFFFFFFFFFFFFFFFFFFFFFFF AND DUP9 PUSH20 0xFFFFFFFFFFFFFFFFFFFFFFFFFFFFFFFFFFFFFFFF AND EQ PUSH3 0xA3F JUMPI PUSH0 DUP1 PUSH0 DUP5 DUP2 MSTORE PUSH1 0x20 ADD SWAP1 DUP2 MSTORE PUSH1 0x20 ADD PUSH0 KECCAK256 PUSH0 DUP11 PUSH20 0xFFFFFFFFFFFFFFFFFFFFFFFFFFFFFFFFFFFFFFFF AND PUSH20 0xFFFFFFFFFFFFFFFFFFFFFFFFFFFFFFFFFFFFFFFF AND DUP2 MSTORE PUSH1 0x20 ADD SWAP1 DUP2 MSTORE PUSH1 0x20 ADD PUSH0 KECCAK256 SLOAD SWAP1 POP DUP2 DUP2 LT ISZERO PUSH3 0x9EB JUMPI DUP9 DUP2 DUP4 DUP6 PUSH1 0x40 MLOAD PUSH32 0x3DEE4C500000000000000000000000000000000000000000000000000000000 DUP2 MSTORE PUSH1 0x4 ADD PUSH3 0x9E2 SWAP5 SWAP4 SWAP3 SWAP2 SWAP1 PUSH3 0x1399 JUMP JUMPDEST PUSH1 0x40 MLOAD DUP1 SWAP2 SUB SWAP1 REVERT JUMPDEST DUP2 DUP2 SUB PUSH0 DUP1 DUP6 DUP2 MSTORE PUSH1 0x20 ADD SWAP1 DUP2 MSTORE PUSH1 0x20 ADD PUSH0 KECCAK256 PUSH0 DUP12 PUSH20 0xFFFFFFFFFFFFFFFFFFFFFFFFFFFFFFFFFFFFFFFF AND PUSH20 0xFFFFFFFFFFFFFFFFFFFFFFFFFFFFFFFFFFFFFFFF AND DUP2 MSTORE PUSH1 0x20 ADD SWAP1 DUP2 MSTORE PUSH1 0x20 ADD PUSH0 KECCAK256 DUP2 SWAP1 SSTORE POP POP JUMPDEST PUSH0 PUSH20 0xFFFFFFFFFFFFFFFFFFFFFFFFFFFFFFFFFFFFFFFF AND DUP8 PUSH20 0xFFFFFFFFFFFFFFFFFFFFFFFFFFFFFFFFFFFFFFFF AND EQ PUSH3 0xAD7 JUMPI DUP1 PUSH0 DUP1 DUP5 DUP2 MSTORE PUSH1 0x20 ADD SWAP1 DUP2 MSTORE PUSH1 0x20 ADD PUSH0 KECCAK256 PUSH0 DUP10 PUSH20 0xFFFFFFFFFFFFFFFFFFFFFFFFFFFFFFFFFFFFFFFF AND PUSH20 0xFFFFFFFFFFFFFFFFFFFFFFFFFFFFFFFFFFFFFFFF AND DUP2 MSTORE PUSH1 0x20 ADD SWAP1 DUP2 MSTORE PUSH1 0x20 ADD PUSH0 KECCAK256 PUSH0 DUP3 DUP3 SLOAD PUSH3 0xACF SWAP2 SWAP1 PUSH3 0x1411 JUMP JUMPDEST SWAP3 POP POP DUP2 SWAP1 SSTORE POP JUMPDEST POP POP DUP1 PUSH1 0x1 ADD SWAP1 POP PUSH3 0x8E0 JUMP JUMPDEST POP PUSH1 0x1 DUP4 MLOAD SUB PUSH3 0xBA8 JUMPI PUSH0 PUSH3 0xB06 PUSH0 DUP6 PUSH3 0x4EF PUSH1 0x20 SHL SWAP1 SWAP2 SWAP1 PUSH1 0x20 SHR JUMP JUMPDEST SWAP1 POP PUSH0 PUSH3 0xB1E PUSH0 DUP6 PUSH3 0x4EF PUSH1 0x20 SHL SWAP1 SWAP2 SWAP1 PUSH1 0x20 SHR JUMP JUMPDEST SWAP1 POP DUP6 PUSH20 0xFFFFFFFFFFFFFFFFFFFFFFFFFFFFFFFFFFFFFFFF AND DUP8 PUSH20 0xFFFFFFFFFFFFFFFFFFFFFFFFFFFFFFFFFFFFFFFF AND DUP5 PUSH20 0xFFFFFFFFFFFFFFFFFFFFFFFFFFFFFFFFFFFFFFFF AND PUSH32 0xC3D58168C5AE7397731D063D5BBF3D657854427343F4C083240F7AACAA2D0F62 DUP6 DUP6 PUSH1 0x40 MLOAD PUSH3 0xB98 SWAP3 SWAP2 SWAP1 PUSH3 0x136E JUMP JUMPDEST PUSH1 0x40 MLOAD DUP1 SWAP2 SUB SWAP1 LOG4 POP POP PUSH3 0xC29 JUMP JUMPDEST DUP4 PUSH20 0xFFFFFFFFFFFFFFFFFFFFFFFFFFFFFFFFFFFFFFFF AND DUP6 PUSH20 0xFFFFFFFFFFFFFFFFFFFFFFFFFFFFFFFFFFFFFFFF AND DUP3 PUSH20 0xFFFFFFFFFFFFFFFFFFFFFFFFFFFFFFFFFFFFFFFF AND PUSH32 0x4A39DC06D4C0DBC64B70AF90FD698A233A518AA5D07E595D983B8C0526C8F7FB DUP7 DUP7 PUSH1 0x40 MLOAD PUSH3 0xC20 SWAP3 SWAP2 SWAP1 PUSH3 0x144B JUMP JUMPDEST PUSH1 0x40 MLOAD DUP1 SWAP2 SUB SWAP1 LOG4 JUMPDEST POP POP POP POP POP JUMP JUMPDEST PUSH0 PUSH1 0x3 PUSH0 SWAP1 SLOAD SWAP1 PUSH2 0x100 EXP SWAP1 DIV PUSH20 0xFFFFFFFFFFFFFFFFFFFFFFFFFFFFFFFFFFFFFFFF AND SWAP1 POP SWAP1 JUMP JUMPDEST PUSH0 PUSH20 0xFFFFFFFFFFFFFFFFFFFFFFFFFFFFFFFFFFFFFFFF DUP3 AND SWAP1 POP SWAP2 SWAP1 POP JUMP JUMPDEST PUSH0 PUSH3 0xC83 DUP3 PUSH3 0xC58 JUMP JUMPDEST SWAP1 POP SWAP2 SWAP1 POP JUMP JUMPDEST PUSH3 0xC95 DUP2 PUSH3 0xC77 JUMP JUMPDEST DUP3 MSTORE POP POP JUMP JUMPDEST PUSH0 PUSH1 0x20 DUP3 ADD SWAP1 POP PUSH3 0xCB0 PUSH0 DUP4 ADD DUP5 PUSH3 0xC8A JUMP JUMPDEST SWAP3 SWAP2 POP POP JUMP JUMPDEST PUSH0 DUP2 MLOAD SWAP1 POP SWAP2 SWAP1 POP JUMP JUMPDEST PUSH32 0x4E487B7100000000000000000000000000000000000000000000000000000000 PUSH0 MSTORE PUSH1 0x41 PUSH1 0x4 MSTORE PUSH1 0x24 PUSH0 REVERT JUMPDEST PUSH32 0x4E487B7100000000000000000000000000000000000000000000000000000000 PUSH0 MSTORE PUSH1 0x22 PUSH1 0x4 MSTORE PUSH1 0x24 PUSH0 REVERT JUMPDEST PUSH0 PUSH1 0x2 DUP3 DIV SWAP1 POP PUSH1 0x1 DUP3 AND DUP1 PUSH3 0xD32 JUMPI PUSH1 0x7F DUP3 AND SWAP2 POP JUMPDEST PUSH1 0x20 DUP3 LT DUP2 SUB PUSH3 0xD48 JUMPI PUSH3 0xD47 PUSH3 0xCED JUMP JUMPDEST JUMPDEST POP SWAP2 SWAP1 POP JUMP JUMPDEST PUSH0 DUP2 SWAP1 POP DUP2 PUSH0 MSTORE PUSH1 0x20 PUSH0 KECCAK256 SWAP1 POP SWAP2 SWAP1 POP JUMP JUMPDEST PUSH0 PUSH1 0x20 PUSH1 0x1F DUP4 ADD DIV SWAP1 POP SWAP2 SWAP1 POP JUMP JUMPDEST PUSH0 DUP3 DUP3 SHL SWAP1 POP SWAP3 SWAP2 POP POP JUMP JUMPDEST PUSH0 PUSH1 0x8 DUP4 MUL PUSH3 0xDAC PUSH32 0xFFFFFFFFFFFFFFFFFFFFFFFFFFFFFFFFFFFFFFFFFFFFFFFFFFFFFFFFFFFFFFFF DUP3 PUSH3 0xD6F JUMP JUMPDEST PUSH3 0xDB8 DUP7 DUP4 PUSH3 0xD6F JUMP JUMPDEST SWAP6 POP DUP1 NOT DUP5 AND SWAP4 POP DUP1 DUP7 AND DUP5 OR SWAP3 POP POP POP SWAP4 SWAP3 POP POP POP JUMP JUMPDEST PUSH0 DUP2 SWAP1 POP SWAP2 SWAP1 POP JUMP JUMPDEST PUSH0 DUP2 SWAP1 POP SWAP2 SWAP1 POP JUMP JUMPDEST PUSH0 PUSH3 0xE02 PUSH3 0xDFC PUSH3 0xDF6 DUP5 PUSH3 0xDD0 JUMP JUMPDEST PUSH3 0xDD9 JUMP JUMPDEST PUSH3 0xDD0 JUMP JUMPDEST SWAP1 POP SWAP2 SWAP1 POP JUMP JUMPDEST PUSH0 DUP2 SWAP1 POP SWAP2 SWAP1 POP JUMP JUMPDEST PUSH3 0xE1D DUP4 PUSH3 0xDE2 JUMP JUMPDEST PUSH3 0xE35 PUSH3 0xE2C DUP3 PUSH3 0xE09 JUMP JUMPDEST DUP5 DUP5 SLOAD PUSH3 0xD7B JUMP JUMPDEST DUP3 SSTORE POP POP POP POP JUMP JUMPDEST PUSH0 SWAP1 JUMP JUMPDEST PUSH3 0xE4B PUSH3 0xE3D JUMP JUMPDEST PUSH3 0xE58 DUP2 DUP5 DUP5 PUSH3 0xE12 JUMP JUMPDEST POP POP POP JUMP JUMPDEST JUMPDEST DUP2 DUP2 LT ISZERO PUSH3 0xE7F JUMPI PUSH3 0xE73 PUSH0 DUP3 PUSH3 0xE41 JUMP JUMPDEST PUSH1 0x1 DUP2 ADD SWAP1 POP PUSH3 0xE5E JUMP JUMPDEST POP POP JUMP JUMPDEST PUSH1 0x1F DUP3 GT ISZERO PUSH3 0xECE JUMPI PUSH3 0xE98 DUP2 PUSH3 0xD4E JUMP JUMPDEST PUSH3 0xEA3 DUP5 PUSH3 0xD60 JUMP JUMPDEST DUP2 ADD PUSH1 0x20 DUP6 LT ISZERO PUSH3 0xEB3 JUMPI DUP2 SWAP1 POP JUMPDEST PUSH3 0xECB PUSH3 0xEC2 DUP6 PUSH3 0xD60 JUMP JUMPDEST DUP4 ADD DUP3 PUSH3 0xE5D JUMP JUMPDEST POP POP JUMPDEST POP POP POP JUMP JUMPDEST PUSH0 DUP3 DUP3 SHR SWAP1 POP SWAP3 SWAP2 POP POP JUMP JUMPDEST PUSH0 PUSH3 0xEF0 PUSH0 NOT DUP5 PUSH1 0x8 MUL PUSH3 0xED3 JUMP JUMPDEST NOT DUP1 DUP4 AND SWAP2 POP POP SWAP3 SWAP2 POP POP JUMP JUMPDEST PUSH0 PUSH3 0xF0A DUP4 DUP4 PUSH3 0xEDF JUMP JUMPDEST SWAP2 POP DUP3 PUSH1 0x2 MUL DUP3 OR SWAP1 POP SWAP3 SWAP2 POP POP JUMP JUMPDEST PUSH3 0xF25 DUP3 PUSH3 0xCB6 JUMP JUMPDEST PUSH8 0xFFFFFFFFFFFFFFFF DUP2 GT ISZERO PUSH3 0xF41 JUMPI PUSH3 0xF40 PUSH3 0xCC0 JUMP JUMPDEST JUMPDEST PUSH3 0xF4D DUP3 SLOAD PUSH3 0xD1A JUMP JUMPDEST PUSH3 0xF5A DUP3 DUP3 DUP6 PUSH3 0xE83 JUMP JUMPDEST PUSH0 PUSH1 0x20 SWAP1 POP PUSH1 0x1F DUP4 GT PUSH1 0x1 DUP2 EQ PUSH3 0xF90 JUMPI PUSH0 DUP5 ISZERO PUSH3 0xF7B JUMPI DUP3 DUP8 ADD MLOAD SWAP1 POP JUMPDEST PUSH3 0xF87 DUP6 DUP3 PUSH3 0xEFD JUMP JUMPDEST DUP7 SSTORE POP PUSH3 0xFF6 JUMP JUMPDEST PUSH1 0x1F NOT DUP5 AND PUSH3 0xFA0 DUP7 PUSH3 0xD4E JUMP JUMPDEST PUSH0 JUMPDEST DUP3 DUP2 LT ISZERO PUSH3 0xFC9 JUMPI DUP5 DUP10 ADD MLOAD DUP3 SSTORE PUSH1 0x1 DUP3 ADD SWAP2 POP PUSH1 0x20 DUP6 ADD SWAP5 POP PUSH1 0x20 DUP2 ADD SWAP1 POP PUSH3 0xFA2 JUMP JUMPDEST DUP7 DUP4 LT ISZERO PUSH3 0xFE9 JUMPI DUP5 DUP10 ADD MLOAD PUSH3 0xFE5 PUSH1 0x1F DUP10 AND DUP3 PUSH3 0xEDF JUMP JUMPDEST DUP4 SSTORE POP JUMPDEST PUSH1 0x1 PUSH1 0x2 DUP9 MUL ADD DUP9 SSTORE POP POP POP JUMPDEST POP POP POP POP POP POP JUMP JUMPDEST PUSH0 DUP3 DUP3 MSTORE PUSH1 0x20 DUP3 ADD SWAP1 POP SWAP3 SWAP2 POP POP JUMP JUMPDEST PUSH32 0x546F6B656E2063616E6E6F74206265207472616E736665727265642C206F6E6C PUSH0 DUP3 ADD MSTORE PUSH32 0x79206275726E6564000000000000000000000000000000000000000000000000 PUSH1 0x20 DUP3 ADD MSTORE POP JUMP JUMPDEST PUSH0 PUSH3 0x106A PUSH1 0x28 DUP4 PUSH3 0xFFE JUMP JUMPDEST SWAP2 POP PUSH3 0x1077 DUP3 PUSH3 0x100E JUMP JUMPDEST PUSH1 0x40 DUP3 ADD SWAP1 POP SWAP2 SWAP1 POP JUMP JUMPDEST PUSH0 PUSH1 0x20 DUP3 ADD SWAP1 POP DUP2 DUP2 SUB PUSH0 DUP4 ADD MSTORE PUSH3 0x109B DUP2 PUSH3 0x105C JUMP JUMPDEST SWAP1 POP SWAP2 SWAP1 POP JUMP JUMPDEST PUSH3 0x10AD DUP2 PUSH3 0xDD0 JUMP JUMPDEST DUP3 MSTORE POP POP JUMP JUMPDEST PUSH0 DUP2 MLOAD SWAP1 POP SWAP2 SWAP1 POP JUMP JUMPDEST PUSH0 DUP3 DUP3 MSTORE PUSH1 0x20 DUP3 ADD SWAP1 POP SWAP3 SWAP2 POP POP JUMP JUMPDEST PUSH0 JUMPDEST DUP4 DUP2 LT ISZERO PUSH3 0x10EC JUMPI DUP1 DUP3 ADD MLOAD DUP2 DUP5 ADD MSTORE PUSH1 0x20 DUP2 ADD SWAP1 POP PUSH3 0x10CF JUMP JUMPDEST PUSH0 DUP5 DUP5 ADD MSTORE POP POP POP POP JUMP JUMPDEST PUSH0 PUSH1 0x1F NOT PUSH1 0x1F DUP4 ADD AND SWAP1 POP SWAP2 SWAP1 POP JUMP JUMPDEST PUSH0 PUSH3 0x1113 DUP3 PUSH3 0x10B3 JUMP JUMPDEST PUSH3 0x111F DUP2 DUP6 PUSH3 0x10BD JUMP JUMPDEST SWAP4 POP PUSH3 0x1131 DUP2 DUP6 PUSH1 0x20 DUP7 ADD PUSH3 0x10CD JUMP JUMPDEST PUSH3 0x113C DUP2 PUSH3 0x10F7 JUMP JUMPDEST DUP5 ADD SWAP2 POP POP SWAP3 SWAP2 POP POP JUMP JUMPDEST PUSH0 PUSH1 0xA0 DUP3 ADD SWAP1 POP PUSH3 0x115C PUSH0 DUP4 ADD DUP9 PUSH3 0xC8A JUMP JUMPDEST PUSH3 0x116B PUSH1 0x20 DUP4 ADD DUP8 PUSH3 0xC8A JUMP JUMPDEST PUSH3 0x117A PUSH1 0x40 DUP4 ADD DUP7 PUSH3 0x10A2 JUMP JUMPDEST PUSH3 0x1189 PUSH1 0x60 DUP4 ADD DUP6 PUSH3 0x10A2 JUMP JUMPDEST DUP2 DUP2 SUB PUSH1 0x80 DUP4 ADD MSTORE PUSH3 0x119D DUP2 DUP5 PUSH3 0x1107 JUMP JUMPDEST SWAP1 POP SWAP7 SWAP6 POP POP POP POP POP POP JUMP JUMPDEST PUSH0 DUP1 REVERT JUMPDEST PUSH0 PUSH32 0xFFFFFFFF00000000000000000000000000000000000000000000000000000000 DUP3 AND SWAP1 POP SWAP2 SWAP1 POP JUMP JUMPDEST PUSH3 0x11E3 DUP2 PUSH3 0x11AD JUMP JUMPDEST DUP2 EQ PUSH3 0x11EE JUMPI PUSH0 DUP1 REVERT JUMPDEST POP JUMP JUMPDEST PUSH0 DUP2 MLOAD SWAP1 POP PUSH3 0x1201 DUP2 PUSH3 0x11D8 JUMP JUMPDEST SWAP3 SWAP2 POP POP JUMP JUMPDEST PUSH0 PUSH1 0x20 DUP3 DUP5 SUB SLT ISZERO PUSH3 0x121F JUMPI PUSH3 0x121E PUSH3 0x11A9 JUMP JUMPDEST JUMPDEST PUSH0 PUSH3 0x122E DUP5 DUP3 DUP6 ADD PUSH3 0x11F1 JUMP JUMPDEST SWAP2 POP POP SWAP3 SWAP2 POP POP JUMP JUMPDEST PUSH0 DUP2 MLOAD SWAP1 POP SWAP2 SWAP1 POP JUMP JUMPDEST PUSH0 DUP3 DUP3 MSTORE PUSH1 0x20 DUP3 ADD SWAP1 POP SWAP3 SWAP2 POP POP JUMP JUMPDEST PUSH0 DUP2 SWAP1 POP PUSH1 0x20 DUP3 ADD SWAP1 POP SWAP2 SWAP1 POP JUMP JUMPDEST PUSH3 0x126B DUP2 PUSH3 0xDD0 JUMP JUMPDEST DUP3 MSTORE POP POP JUMP JUMPDEST PUSH0 PUSH3 0x127E DUP4 DUP4 PUSH3 0x1260 JUMP JUMPDEST PUSH1 0x20 DUP4 ADD SWAP1 POP SWAP3 SWAP2 POP POP JUMP JUMPDEST PUSH0 PUSH1 0x20 DUP3 ADD SWAP1 POP SWAP2 SWAP1 POP JUMP JUMPDEST PUSH0 PUSH3 0x12A2 DUP3 PUSH3 0x1237 JUMP JUMPDEST PUSH3 0x12AE DUP2 DUP6 PUSH3 0x1241 JUMP JUMPDEST SWAP4 POP PUSH3 0x12BB DUP4 PUSH3 0x1251 JUMP JUMPDEST DUP1 PUSH0 JUMPDEST DUP4 DUP2 LT ISZERO PUSH3 0x12F1 JUMPI DUP2 MLOAD PUSH3 0x12D5 DUP9 DUP3 PUSH3 0x1271 JUMP JUMPDEST SWAP8 POP PUSH3 0x12E2 DUP4 PUSH3 0x128A JUMP JUMPDEST SWAP3 POP POP PUSH1 0x1 DUP2 ADD SWAP1 POP PUSH3 0x12BE JUMP JUMPDEST POP DUP6 SWAP4 POP POP POP POP SWAP3 SWAP2 POP POP JUMP JUMPDEST PUSH0 PUSH1 0xA0 DUP3 ADD SWAP1 POP PUSH3 0x1313 PUSH0 DUP4 ADD DUP9 PUSH3 0xC8A JUMP JUMPDEST PUSH3 0x1322 PUSH1 0x20 DUP4 ADD DUP8 PUSH3 0xC8A JUMP JUMPDEST DUP2 DUP2 SUB PUSH1 0x40 DUP4 ADD MSTORE PUSH3 0x1336 DUP2 DUP7 PUSH3 0x1296 JUMP JUMPDEST SWAP1 POP DUP2 DUP2 SUB PUSH1 0x60 DUP4 ADD MSTORE PUSH3 0x134C DUP2 DUP6 PUSH3 0x1296 JUMP JUMPDEST SWAP1 POP DUP2 DUP2 SUB PUSH1 0x80 DUP4 ADD MSTORE PUSH3 0x1362 DUP2 DUP5 PUSH3 0x1107 JUMP JUMPDEST SWAP1 POP SWAP7 SWAP6 POP POP POP POP POP POP JUMP JUMPDEST PUSH0 PUSH1 0x40 DUP3 ADD SWAP1 POP PUSH3 0x1383 PUSH0 DUP4 ADD DUP6 PUSH3 0x10A2 JUMP JUMPDEST PUSH3 0x1392 PUSH1 0x20 DUP4 ADD DUP5 PUSH3 0x10A2 JUMP JUMPDEST SWAP4 SWAP3 POP POP POP JUMP JUMPDEST PUSH0 PUSH1 0x80 DUP3 ADD SWAP1 POP PUSH3 0x13AE PUSH0 DUP4 ADD DUP8 PUSH3 0xC8A JUMP JUMPDEST PUSH3 0x13BD PUSH1 0x20 DUP4 ADD DUP7 PUSH3 0x10A2 JUMP JUMPDEST PUSH3 0x13CC PUSH1 0x40 DUP4 ADD DUP6 PUSH3 0x10A2 JUMP JUMPDEST PUSH3 0x13DB PUSH1 0x60 DUP4 ADD DUP5 PUSH3 0x10A2 JUMP JUMPDEST SWAP6 SWAP5 POP POP POP POP POP JUMP JUMPDEST PUSH32 0x4E487B7100000000000000000000000000000000000000000000000000000000 PUSH0 MSTORE PUSH1 0x11 PUSH1 0x4 MSTORE PUSH1 0x24 PUSH0 REVERT JUMPDEST PUSH0 PUSH3 0x141D DUP3 PUSH3 0xDD0 JUMP JUMPDEST SWAP2 POP PUSH3 0x142A DUP4 PUSH3 0xDD0 JUMP JUMPDEST SWAP3 POP DUP3 DUP3 ADD SWAP1 POP DUP1 DUP3 GT ISZERO PUSH3 0x1445 JUMPI PUSH3 0x1444 PUSH3 0x13E4 JUMP JUMPDEST JUMPDEST SWAP3 SWAP2 POP POP JUMP JUMPDEST PUSH0 PUSH1 0x40 DUP3 ADD SWAP1 POP DUP2 DUP2 SUB PUSH0 DUP4 ADD MSTORE PUSH3 0x1465 DUP2 DUP6 PUSH3 0x1296 JUMP JUMPDEST SWAP1 POP DUP2 DUP2 SUB PUSH1 0x20 DUP4 ADD MSTORE PUSH3 0x147B DUP2 DUP5 PUSH3 0x1296 JUMP JUMPDEST SWAP1 POP SWAP4 SWAP3 POP POP POP JUMP JUMPDEST PUSH2 0x29CA DUP1 PUSH3 0x1492 PUSH0 CODECOPY PUSH0 RETURN INVALID PUSH1 0x80 PUSH1 0x40 MSTORE CALLVALUE DUP1 ISZERO PUSH2 0xF JUMPI PUSH0 DUP1 REVERT JUMPDEST POP PUSH1 0x4 CALLDATASIZE LT PUSH2 0x11E JUMPI PUSH0 CALLDATALOAD PUSH1 0xE0 SHR DUP1 PUSH4 0x8C4FD3F9 GT PUSH2 0xAB JUMPI DUP1 PUSH4 0xE8A3D485 GT PUSH2 0x6F JUMPI DUP1 PUSH4 0xE8A3D485 EQ PUSH2 0x2F4 JUMPI DUP1 PUSH4 0xE985E9C5 EQ PUSH2 0x312 JUMPI DUP1 PUSH4 0xF242432A EQ PUSH2 0x342 JUMPI DUP1 PUSH4 0xF2FDE38B EQ PUSH2 0x35E JUMPI DUP1 PUSH4 0xF5298ACA EQ PUSH2 0x37A JUMPI PUSH2 0x11E JUMP JUMPDEST DUP1 PUSH4 0x8C4FD3F9 EQ PUSH2 0x260 JUMPI DUP1 PUSH4 0x8DA5CB5B EQ PUSH2 0x27E JUMPI DUP1 PUSH4 0xA22CB465 EQ PUSH2 0x29C JUMPI DUP1 PUSH4 0xAD39E5FD EQ PUSH2 0x2B8 JUMPI DUP1 PUSH4 0xD562E204 EQ PUSH2 0x2D6 JUMPI PUSH2 0x11E JUMP JUMPDEST DUP1 PUSH4 0x3DC845D2 GT PUSH2 0xF2 JUMPI DUP1 PUSH4 0x3DC845D2 EQ PUSH2 0x1CE JUMPI DUP1 PUSH4 0x3EB4DBF9 EQ PUSH2 0x1EC JUMPI DUP1 PUSH4 0x4E1273F4 EQ PUSH2 0x20A JUMPI DUP1 PUSH4 0x6B20C454 EQ PUSH2 0x23A JUMPI DUP1 PUSH4 0x715018A6 EQ PUSH2 0x256 JUMPI PUSH2 0x11E JUMP JUMPDEST DUP1 PUSH3 0xFDD58E EQ PUSH2 0x122 JUMPI DUP1 PUSH4 0x1FFC9A7 EQ PUSH2 0x152 JUMPI DUP1 PUSH4 0xE89341C EQ PUSH2 0x182 JUMPI DUP1 PUSH4 0x2EB2C2D6 EQ PUSH2 0x1B2 JUMPI JUMPDEST PUSH0 DUP1 REVERT JUMPDEST PUSH2 0x13C PUSH1 0x4 DUP1 CALLDATASIZE SUB DUP2 ADD SWAP1 PUSH2 0x137 SWAP2 SWAP1 PUSH2 0x1BFA JUMP JUMPDEST PUSH2 0x396 JUMP JUMPDEST PUSH1 0x40 MLOAD PUSH2 0x149 SWAP2 SWAP1 PUSH2 0x1C47 JUMP JUMPDEST PUSH1 0x40 MLOAD DUP1 SWAP2 SUB SWAP1 RETURN JUMPDEST PUSH2 0x16C PUSH1 0x4 DUP1 CALLDATASIZE SUB DUP2 ADD SWAP1 PUSH2 0x167 SWAP2 SWAP1 PUSH2 0x1CB5 JUMP JUMPDEST PUSH2 0x3EB JUMP JUMPDEST PUSH1 0x40 MLOAD PUSH2 0x179 SWAP2 SWAP1 PUSH2 0x1CFA JUMP JUMPDEST PUSH1 0x40 MLOAD DUP1 SWAP2 SUB SWAP1 RETURN JUMPDEST PUSH2 0x19C PUSH1 0x4 DUP1 CALLDATASIZE SUB DUP2 ADD SWAP1 PUSH2 0x197 SWAP2 SWAP1 PUSH2 0x1D13 JUMP JUMPDEST PUSH2 0x4CC JUMP JUMPDEST PUSH1 0x40 MLOAD PUSH2 0x1A9 SWAP2 SWAP1 PUSH2 0x1DC8 JUMP JUMPDEST PUSH1 0x40 MLOAD DUP1 SWAP2 SUB SWAP1 RETURN JUMPDEST PUSH2 0x1CC PUSH1 0x4 DUP1 CALLDATASIZE SUB DUP2 ADD SWAP1 PUSH2 0x1C7 SWAP2 SWAP1 PUSH2 0x1FD8 JUMP JUMPDEST PUSH2 0x4FD JUMP JUMPDEST STOP JUMPDEST PUSH2 0x1D6 PUSH2 0x5A4 JUMP JUMPDEST PUSH1 0x40 MLOAD PUSH2 0x1E3 SWAP2 SWAP1 PUSH2 0x1C47 JUMP JUMPDEST PUSH1 0x40 MLOAD DUP1 SWAP2 SUB SWAP1 RETURN JUMPDEST PUSH2 0x1F4 PUSH2 0x5A9 JUMP JUMPDEST PUSH1 0x40 MLOAD PUSH2 0x201 SWAP2 SWAP1 PUSH2 0x1C47 JUMP JUMPDEST PUSH1 0x40 MLOAD DUP1 SWAP2 SUB SWAP1 RETURN JUMPDEST PUSH2 0x224 PUSH1 0x4 DUP1 CALLDATASIZE SUB DUP2 ADD SWAP1 PUSH2 0x21F SWAP2 SWAP1 PUSH2 0x2163 JUMP JUMPDEST PUSH2 0x5AE JUMP JUMPDEST PUSH1 0x40 MLOAD PUSH2 0x231 SWAP2 SWAP1 PUSH2 0x2290 JUMP JUMPDEST PUSH1 0x40 MLOAD DUP1 SWAP2 SUB SWAP1 RETURN JUMPDEST PUSH2 0x254 PUSH1 0x4 DUP1 CALLDATASIZE SUB DUP2 ADD SWAP1 PUSH2 0x24F SWAP2 SWAP1 PUSH2 0x22B0 JUMP JUMPDEST PUSH2 0x6B5 JUMP JUMPDEST STOP JUMPDEST PUSH2 0x25E PUSH2 0x761 JUMP JUMPDEST STOP JUMPDEST PUSH2 0x268 PUSH2 0x774 JUMP JUMPDEST PUSH1 0x40 MLOAD PUSH2 0x275 SWAP2 SWAP1 PUSH2 0x1C47 JUMP JUMPDEST PUSH1 0x40 MLOAD DUP1 SWAP2 SUB SWAP1 RETURN JUMPDEST PUSH2 0x286 PUSH2 0x779 JUMP JUMPDEST PUSH1 0x40 MLOAD PUSH2 0x293 SWAP2 SWAP1 PUSH2 0x2347 JUMP JUMPDEST PUSH1 0x40 MLOAD DUP1 SWAP2 SUB SWAP1 RETURN JUMPDEST PUSH2 0x2B6 PUSH1 0x4 DUP1 CALLDATASIZE SUB DUP2 ADD SWAP1 PUSH2 0x2B1 SWAP2 SWAP1 PUSH2 0x238A JUMP JUMPDEST PUSH2 0x7A1 JUMP JUMPDEST STOP JUMPDEST PUSH2 0x2C0 PUSH2 0x7B7 JUMP JUMPDEST PUSH1 0x40 MLOAD PUSH2 0x2CD SWAP2 SWAP1 PUSH2 0x1C47 JUMP JUMPDEST PUSH1 0x40 MLOAD DUP1 SWAP2 SUB SWAP1 RETURN JUMPDEST PUSH2 0x2DE PUSH2 0x7BB JUMP JUMPDEST PUSH1 0x40 MLOAD PUSH2 0x2EB SWAP2 SWAP1 PUSH2 0x1C47 JUMP JUMPDEST PUSH1 0x40 MLOAD DUP1 SWAP2 SUB SWAP1 RETURN JUMPDEST PUSH2 0x2FC PUSH2 0x7C0 JUMP JUMPDEST PUSH1 0x40 MLOAD PUSH2 0x309 SWAP2 SWAP1 PUSH2 0x1DC8 JUMP JUMPDEST PUSH1 0x40 MLOAD DUP1 SWAP2 SUB SWAP1 RETURN JUMPDEST PUSH2 0x32C PUSH1 0x4 DUP1 CALLDATASIZE SUB DUP2 ADD SWAP1 PUSH2 0x327 SWAP2 SWAP1 PUSH2 0x23C8 JUMP JUMPDEST PUSH2 0x7E0 JUMP JUMPDEST PUSH1 0x40 MLOAD PUSH2 0x339 SWAP2 SWAP1 PUSH2 0x1CFA JUMP JUMPDEST PUSH1 0x40 MLOAD DUP1 SWAP2 SUB SWAP1 RETURN JUMPDEST PUSH2 0x35C PUSH1 0x4 DUP1 CALLDATASIZE SUB DUP2 ADD SWAP1 PUSH2 0x357 SWAP2 SWAP1 PUSH2 0x2406 JUMP JUMPDEST PUSH2 0x86E JUMP JUMPDEST STOP JUMPDEST PUSH2 0x378 PUSH1 0x4 DUP1 CALLDATASIZE SUB DUP2 ADD SWAP1 PUSH2 0x373 SWAP2 SWAP1 PUSH2 0x2499 JUMP JUMPDEST PUSH2 0x915 JUMP JUMPDEST STOP JUMPDEST PUSH2 0x394 PUSH1 0x4 DUP1 CALLDATASIZE SUB DUP2 ADD SWAP1 PUSH2 0x38F SWAP2 SWAP1 PUSH2 0x24C4 JUMP JUMPDEST PUSH2 0x999 JUMP JUMPDEST STOP JUMPDEST PUSH0 DUP1 PUSH0 DUP4 DUP2 MSTORE PUSH1 0x20 ADD SWAP1 DUP2 MSTORE PUSH1 0x20 ADD PUSH0 KECCAK256 PUSH0 DUP5 PUSH20 0xFFFFFFFFFFFFFFFFFFFFFFFFFFFFFFFFFFFFFFFF AND PUSH20 0xFFFFFFFFFFFFFFFFFFFFFFFFFFFFFFFFFFFFFFFF AND DUP2 MSTORE PUSH1 0x20 ADD SWAP1 DUP2 MSTORE PUSH1 0x20 ADD PUSH0 KECCAK256 SLOAD SWAP1 POP SWAP3 SWAP2 POP POP JUMP JUMPDEST PUSH0 PUSH32 0xD9B67A2600000000000000000000000000000000000000000000000000000000 PUSH28 0xFFFFFFFFFFFFFFFFFFFFFFFFFFFFFFFFFFFFFFFFFFFFFFFFFFFFFFFF NOT AND DUP3 PUSH28 0xFFFFFFFFFFFFFFFFFFFFFFFFFFFFFFFFFFFFFFFFFFFFFFFFFFFFFFFF NOT AND EQ DUP1 PUSH2 0x4B5 JUMPI POP PUSH32 0xE89341C00000000000000000000000000000000000000000000000000000000 PUSH28 0xFFFFFFFFFFFFFFFFFFFFFFFFFFFFFFFFFFFFFFFFFFFFFFFFFFFFFFFF NOT AND DUP3 PUSH28 0xFFFFFFFFFFFFFFFFFFFFFFFFFFFFFFFFFFFFFFFFFFFFFFFFFFFFFFFF NOT AND EQ JUMPDEST DUP1 PUSH2 0x4C5 JUMPI POP PUSH2 0x4C4 DUP3 PUSH2 0xA45 JUMP JUMPDEST JUMPDEST SWAP1 POP SWAP2 SWAP1 POP JUMP JUMPDEST PUSH1 0x60 PUSH2 0x4D7 DUP3 PUSH2 0xAAE JUMP JUMPDEST PUSH1 0x40 MLOAD PUSH1 0x20 ADD PUSH2 0x4E7 SWAP2 SWAP1 PUSH2 0x25E2 JUMP JUMPDEST PUSH1 0x40 MLOAD PUSH1 0x20 DUP2 DUP4 SUB SUB DUP2 MSTORE SWAP1 PUSH1 0x40 MSTORE SWAP1 POP SWAP2 SWAP1 POP JUMP JUMPDEST PUSH0 PUSH2 0x506 PUSH2 0xB78 JUMP JUMPDEST SWAP1 POP DUP1 PUSH20 0xFFFFFFFFFFFFFFFFFFFFFFFFFFFFFFFFFFFFFFFF AND DUP7 PUSH20 0xFFFFFFFFFFFFFFFFFFFFFFFFFFFFFFFFFFFFFFFF AND EQ ISZERO DUP1 ISZERO PUSH2 0x54B JUMPI POP PUSH2 0x549 DUP7 DUP3 PUSH2 0x7E0 JUMP JUMPDEST ISZERO JUMPDEST ISZERO PUSH2 0x58F JUMPI DUP1 DUP7 PUSH1 0x40 MLOAD PUSH32 0xE237D92200000000000000000000000000000000000000000000000000000000 DUP2 MSTORE PUSH1 0x4 ADD PUSH2 0x586 SWAP3 SWAP2 SWAP1 PUSH2 0x260E JUMP JUMPDEST PUSH1 0x40 MLOAD DUP1 SWAP2 SUB SWAP1 REVERT JUMPDEST PUSH2 0x59C DUP7 DUP7 DUP7 DUP7 DUP7 PUSH2 0xB7F JUMP JUMPDEST POP POP POP POP POP POP JUMP JUMPDEST PUSH1 0x3 DUP2 JUMP JUMPDEST PUSH1 0x4 DUP2 JUMP JUMPDEST PUSH1 0x60 DUP2 MLOAD DUP4 MLOAD EQ PUSH2 0x5FA JUMPI DUP2 MLOAD DUP4 MLOAD PUSH1 0x40 MLOAD PUSH32 0x5B05999100000000000000000000000000000000000000000000000000000000 DUP2 MSTORE PUSH1 0x4 ADD PUSH2 0x5F1 SWAP3 SWAP2 SWAP1 PUSH2 0x2635 JUMP JUMPDEST PUSH1 0x40 MLOAD DUP1 SWAP2 SUB SWAP1 REVERT JUMPDEST PUSH0 DUP4 MLOAD PUSH8 0xFFFFFFFFFFFFFFFF DUP2 GT ISZERO PUSH2 0x616 JUMPI PUSH2 0x615 PUSH2 0x1DEC JUMP JUMPDEST JUMPDEST PUSH1 0x40 MLOAD SWAP1 DUP1 DUP3 MSTORE DUP1 PUSH1 0x20 MUL PUSH1 0x20 ADD DUP3 ADD PUSH1 0x40 MSTORE DUP1 ISZERO PUSH2 0x644 JUMPI DUP2 PUSH1 0x20 ADD PUSH1 0x20 DUP3 MUL DUP1 CALLDATASIZE DUP4 CALLDATACOPY DUP1 DUP3 ADD SWAP2 POP POP SWAP1 POP JUMPDEST POP SWAP1 POP PUSH0 JUMPDEST DUP5 MLOAD DUP2 LT ISZERO PUSH2 0x6AA JUMPI PUSH2 0x680 PUSH2 0x668 DUP3 DUP8 PUSH2 0xC73 SWAP1 SWAP2 SWAP1 PUSH4 0xFFFFFFFF AND JUMP JUMPDEST PUSH2 0x67B DUP4 DUP8 PUSH2 0xC86 SWAP1 SWAP2 SWAP1 PUSH4 0xFFFFFFFF AND JUMP JUMPDEST PUSH2 0x396 JUMP JUMPDEST DUP3 DUP3 DUP2 MLOAD DUP2 LT PUSH2 0x693 JUMPI PUSH2 0x692 PUSH2 0x265C JUMP JUMPDEST JUMPDEST PUSH1 0x20 MUL PUSH1 0x20 ADD ADD DUP2 DUP2 MSTORE POP POP DUP1 PUSH1 0x1 ADD SWAP1 POP PUSH2 0x649 JUMP JUMPDEST POP DUP1 SWAP2 POP POP SWAP3 SWAP2 POP POP JUMP JUMPDEST PUSH2 0x6BD PUSH2 0xB78 JUMP JUMPDEST PUSH20 0xFFFFFFFFFFFFFFFFFFFFFFFFFFFFFFFFFFFFFFFF AND DUP4 PUSH20 0xFFFFFFFFFFFFFFFFFFFFFFFFFFFFFFFFFFFFFFFF AND EQ ISZERO DUP1 ISZERO PUSH2 0x706 JUMPI POP PUSH2 0x704 DUP4 PUSH2 0x6FF PUSH2 0xB78 JUMP JUMPDEST PUSH2 0x7E0 JUMP JUMPDEST ISZERO JUMPDEST ISZERO PUSH2 0x751 JUMPI PUSH2 0x713 PUSH2 0xB78 JUMP JUMPDEST DUP4 PUSH1 0x40 MLOAD PUSH32 0xE237D92200000000000000000000000000000000000000000000000000000000 DUP2 MSTORE PUSH1 0x4 ADD PUSH2 0x748 SWAP3 SWAP2 SWAP1 PUSH2 0x260E JUMP JUMPDEST PUSH1 0x40 MLOAD DUP1 SWAP2 SUB SWAP1 REVERT JUMPDEST PUSH2 0x75C DUP4 DUP4 DUP4 PUSH2 0xC99 JUMP JUMPDEST POP POP POP JUMP JUMPDEST PUSH2 0x769 PUSH2 0xD29 JUMP JUMPDEST PUSH2 0x772 PUSH0 PUSH2 0xDB0 JUMP JUMPDEST JUMP JUMPDEST PUSH1 0x1 DUP2 JUMP JUMPDEST PUSH0 PUSH1 0x3 PUSH0 SWAP1 SLOAD SWAP1 PUSH2 0x100 EXP SWAP1 DIV PUSH20 0xFFFFFFFFFFFFFFFFFFFFFFFFFFFFFFFFFFFFFFFF AND SWAP1 POP SWAP1 JUMP JUMPDEST PUSH2 0x7B3 PUSH2 0x7AC PUSH2 0xB78 JUMP JUMPDEST DUP4 DUP4 PUSH2 0xE73 JUMP JUMPDEST POP POP JUMP JUMPDEST PUSH0 DUP2 JUMP JUMPDEST PUSH1 0x2 DUP2 JUMP JUMPDEST PUSH1 0x60 PUSH1 0x40 MLOAD DUP1 PUSH1 0x60 ADD PUSH1 0x40 MSTORE DUP1 PUSH1 0x29 DUP2 MSTORE PUSH1 0x20 ADD PUSH2 0x296C PUSH1 0x29 SWAP2 CODECOPY SWAP1 POP SWAP1 JUMP JUMPDEST PUSH0 PUSH1 0x1 PUSH0 DUP5 PUSH20 0xFFFFFFFFFFFFFFFFFFFFFFFFFFFFFFFFFFFFFFFF AND PUSH20 0xFFFFFFFFFFFFFFFFFFFFFFFFFFFFFFFFFFFFFFFF AND DUP2 MSTORE PUSH1 0x20 ADD SWAP1 DUP2 MSTORE PUSH1 0x20 ADD PUSH0 KECCAK256 PUSH0 DUP4 PUSH20 0xFFFFFFFFFFFFFFFFFFFFFFFFFFFFFFFFFFFFFFFF AND PUSH20 0xFFFFFFFFFFFFFFFFFFFFFFFFFFFFFFFFFFFFFFFF AND DUP2 MSTORE PUSH1 0x20 ADD SWAP1 DUP2 MSTORE PUSH1 0x20 ADD PUSH0 KECCAK256 PUSH0 SWAP1 SLOAD SWAP1 PUSH2 0x100 EXP SWAP1 DIV PUSH1 0xFF AND SWAP1 POP SWAP3 SWAP2 POP POP JUMP JUMPDEST PUSH0 PUSH2 0x877 PUSH2 0xB78 JUMP JUMPDEST SWAP1 POP DUP1 PUSH20 0xFFFFFFFFFFFFFFFFFFFFFFFFFFFFFFFFFFFFFFFF AND DUP7 PUSH20 0xFFFFFFFFFFFFFFFFFFFFFFFFFFFFFFFFFFFFFFFF AND EQ ISZERO DUP1 ISZERO PUSH2 0x8BC JUMPI POP PUSH2 0x8BA DUP7 DUP3 PUSH2 0x7E0 JUMP JUMPDEST ISZERO JUMPDEST ISZERO PUSH2 0x900 JUMPI DUP1 DUP7 PUSH1 0x40 MLOAD PUSH32 0xE237D92200000000000000000000000000000000000000000000000000000000 DUP2 MSTORE PUSH1 0x4 ADD PUSH2 0x8F7 SWAP3 SWAP2 SWAP1 PUSH2 0x260E JUMP JUMPDEST PUSH1 0x40 MLOAD DUP1 SWAP2 SUB SWAP1 REVERT JUMPDEST PUSH2 0x90D DUP7 DUP7 DUP7 DUP7 DUP7 PUSH2 0xFDC JUMP JUMPDEST POP POP POP POP POP POP JUMP JUMPDEST PUSH2 0x91D PUSH2 0xD29 JUMP JUMPDEST PUSH0 PUSH20 0xFFFFFFFFFFFFFFFFFFFFFFFFFFFFFFFFFFFFFFFF AND DUP2 PUSH20 0xFFFFFFFFFFFFFFFFFFFFFFFFFFFFFFFFFFFFFFFF AND SUB PUSH2 0x98D JUMPI PUSH0 PUSH1 0x40 MLOAD PUSH32 0x1E4FBDF700000000000000000000000000000000000000000000000000000000 DUP2 MSTORE PUSH1 0x4 ADD PUSH2 0x984 SWAP2 SWAP1 PUSH2 0x2347 JUMP JUMPDEST PUSH1 0x40 MLOAD DUP1 SWAP2 SUB SWAP1 REVERT JUMPDEST PUSH2 0x996 DUP2 PUSH2 0xDB0 JUMP JUMPDEST POP JUMP JUMPDEST PUSH2 0x9A1 PUSH2 0xB78 JUMP JUMPDEST PUSH20 0xFFFFFFFFFFFFFFFFFFFFFFFFFFFFFFFFFFFFFFFF AND DUP4 PUSH20 0xFFFFFFFFFFFFFFFFFFFFFFFFFFFFFFFFFFFFFFFF AND EQ ISZERO DUP1 ISZERO PUSH2 0x9EA JUMPI POP PUSH2 0x9E8 DUP4 PUSH2 0x9E3 PUSH2 0xB78 JUMP JUMPDEST PUSH2 0x7E0 JUMP JUMPDEST ISZERO JUMPDEST ISZERO PUSH2 0xA35 JUMPI PUSH2 0x9F7 PUSH2 0xB78 JUMP JUMPDEST DUP4 PUSH1 0x40 MLOAD PUSH32 0xE237D92200000000000000000000000000000000000000000000000000000000 DUP2 MSTORE PUSH1 0x4 ADD PUSH2 0xA2C SWAP3 SWAP2 SWAP1 PUSH2 0x260E JUMP JUMPDEST PUSH1 0x40 MLOAD DUP1 SWAP2 SUB SWAP1 REVERT JUMPDEST PUSH2 0xA40 DUP4 DUP4 DUP4 PUSH2 0x10E2 JUMP JUMPDEST POP POP POP JUMP JUMPDEST PUSH0 PUSH32 0x1FFC9A700000000000000000000000000000000000000000000000000000000 PUSH28 0xFFFFFFFFFFFFFFFFFFFFFFFFFFFFFFFFFFFFFFFFFFFFFFFFFFFFFFFF NOT AND DUP3 PUSH28 0xFFFFFFFFFFFFFFFFFFFFFFFFFFFFFFFFFFFFFFFFFFFFFFFFFFFFFFFF NOT AND EQ SWAP1 POP SWAP2 SWAP1 POP JUMP JUMPDEST PUSH1 0x60 PUSH0 PUSH1 0x1 PUSH2 0xABC DUP5 PUSH2 0x1184 JUMP JUMPDEST ADD SWAP1 POP PUSH0 DUP2 PUSH8 0xFFFFFFFFFFFFFFFF DUP2 GT ISZERO PUSH2 0xADA JUMPI PUSH2 0xAD9 PUSH2 0x1DEC JUMP JUMPDEST JUMPDEST PUSH1 0x40 MLOAD SWAP1 DUP1 DUP3 MSTORE DUP1 PUSH1 0x1F ADD PUSH1 0x1F NOT AND PUSH1 0x20 ADD DUP3 ADD PUSH1 0x40 MSTORE DUP1 ISZERO PUSH2 0xB0C JUMPI DUP2 PUSH1 0x20 ADD PUSH1 0x1 DUP3 MUL DUP1 CALLDATASIZE DUP4 CALLDATACOPY DUP1 DUP3 ADD SWAP2 POP POP SWAP1 POP JUMPDEST POP SWAP1 POP PUSH0 DUP3 PUSH1 0x20 ADD DUP3 ADD SWAP1 POP JUMPDEST PUSH1 0x1 ISZERO PUSH2 0xB6D JUMPI DUP1 DUP1 PUSH1 0x1 SWAP1 SUB SWAP2 POP POP PUSH32 0x3031323334353637383961626364656600000000000000000000000000000000 PUSH1 0xA DUP7 MOD BYTE DUP2 MSTORE8 PUSH1 0xA DUP6 DUP2 PUSH2 0xB62 JUMPI PUSH2 0xB61 PUSH2 0x2689 JUMP JUMPDEST JUMPDEST DIV SWAP5 POP PUSH0 DUP6 SUB PUSH2 0xB19 JUMPI JUMPDEST DUP2 SWAP4 POP POP POP POP SWAP2 SWAP1 POP JUMP JUMPDEST PUSH0 CALLER SWAP1 POP SWAP1 JUMP JUMPDEST PUSH0 PUSH20 0xFFFFFFFFFFFFFFFFFFFFFFFFFFFFFFFFFFFFFFFF AND DUP5 PUSH20 0xFFFFFFFFFFFFFFFFFFFFFFFFFFFFFFFFFFFFFFFF AND SUB PUSH2 0xBEF JUMPI PUSH0 PUSH1 0x40 MLOAD PUSH32 0x57F447CE00000000000000000000000000000000000000000000000000000000 DUP2 MSTORE PUSH1 0x4 ADD PUSH2 0xBE6 SWAP2 SWAP1 PUSH2 0x2347 JUMP JUMPDEST PUSH1 0x40 MLOAD DUP1 SWAP2 SUB SWAP1 REVERT JUMPDEST PUSH0 PUSH20 0xFFFFFFFFFFFFFFFFFFFFFFFFFFFFFFFFFFFFFFFF AND DUP6 PUSH20 0xFFFFFFFFFFFFFFFFFFFFFFFFFFFFFFFFFFFFFFFF AND SUB PUSH2 0xC5F JUMPI PUSH0 PUSH1 0x40 MLOAD PUSH32 0x1A8351400000000000000000000000000000000000000000000000000000000 DUP2 MSTORE PUSH1 0x4 ADD PUSH2 0xC56 SWAP2 SWAP1 PUSH2 0x2347 JUMP JUMPDEST PUSH1 0x40 MLOAD DUP1 SWAP2 SUB SWAP1 REVERT JUMPDEST PUSH2 0xC6C DUP6 DUP6 DUP6 DUP6 DUP6 PUSH2 0x12D5 JUMP JUMPDEST POP POP POP POP POP JUMP JUMPDEST PUSH0 PUSH1 0x20 DUP3 MUL PUSH1 0x20 DUP5 ADD ADD MLOAD SWAP1 POP SWAP3 SWAP2 POP POP JUMP JUMPDEST PUSH0 PUSH1 0x20 DUP3 MUL PUSH1 0x20 DUP5 ADD ADD MLOAD SWAP1 POP SWAP3 SWAP2 POP POP JUMP JUMPDEST PUSH0 PUSH20 0xFFFFFFFFFFFFFFFFFFFFFFFFFFFFFFFFFFFFFFFF AND DUP4 PUSH20 0xFFFFFFFFFFFFFFFFFFFFFFFFFFFFFFFFFFFFFFFF AND SUB PUSH2 0xD09 JUMPI PUSH0 PUSH1 0x40 MLOAD PUSH32 0x1A8351400000000000000000000000000000000000000000000000000000000 DUP2 MSTORE PUSH1 0x4 ADD PUSH2 0xD00 SWAP2 SWAP1 PUSH2 0x2347 JUMP JUMPDEST PUSH1 0x40 MLOAD DUP1 SWAP2 SUB SWAP1 REVERT JUMPDEST PUSH2 0xD24 DUP4 PUSH0 DUP5 DUP5 PUSH1 0x40 MLOAD DUP1 PUSH1 0x20 ADD PUSH1 0x40 MSTORE DUP1 PUSH0 DUP2 MSTORE POP PUSH2 0x12D5 JUMP JUMPDEST POP POP POP JUMP JUMPDEST PUSH2 0xD31 PUSH2 0xB78 JUMP JUMPDEST PUSH20 0xFFFFFFFFFFFFFFFFFFFFFFFFFFFFFFFFFFFFFFFF AND PUSH2 0xD4F PUSH2 0x779 JUMP JUMPDEST PUSH20 0xFFFFFFFFFFFFFFFFFFFFFFFFFFFFFFFFFFFFFFFF AND EQ PUSH2 0xDAE JUMPI PUSH2 0xD72 PUSH2 0xB78 JUMP JUMPDEST PUSH1 0x40 MLOAD PUSH32 0x118CDAA700000000000000000000000000000000000000000000000000000000 DUP2 MSTORE PUSH1 0x4 ADD PUSH2 0xDA5 SWAP2 SWAP1 PUSH2 0x2347 JUMP JUMPDEST PUSH1 0x40 MLOAD DUP1 SWAP2 SUB SWAP1 REVERT JUMPDEST JUMP JUMPDEST PUSH0 PUSH1 0x3 PUSH0 SWAP1 SLOAD SWAP1 PUSH2 0x100 EXP SWAP1 DIV PUSH20 0xFFFFFFFFFFFFFFFFFFFFFFFFFFFFFFFFFFFFFFFF AND SWAP1 POP DUP2 PUSH1 0x3 PUSH0 PUSH2 0x100 EXP DUP2 SLOAD DUP2 PUSH20 0xFFFFFFFFFFFFFFFFFFFFFFFFFFFFFFFFFFFFFFFF MUL NOT AND SWAP1 DUP4 PUSH20 0xFFFFFFFFFFFFFFFFFFFFFFFFFFFFFFFFFFFFFFFF AND MUL OR SWAP1 SSTORE POP DUP2 PUSH20 0xFFFFFFFFFFFFFFFFFFFFFFFFFFFFFFFFFFFFFFFF AND DUP2 PUSH20 0xFFFFFFFFFFFFFFFFFFFFFFFFFFFFFFFFFFFFFFFF AND PUSH32 0x8BE0079C531659141344CD1FD0A4F28419497F9722A3DAAFE3B4186F6B6457E0 PUSH1 0x40 MLOAD PUSH1 0x40 MLOAD DUP1 SWAP2 SUB SWAP1 LOG3 POP POP JUMP JUMPDEST PUSH0 PUSH20 0xFFFFFFFFFFFFFFFFFFFFFFFFFFFFFFFFFFFFFFFF AND DUP3 PUSH20 0xFFFFFFFFFFFFFFFFFFFFFFFFFFFFFFFFFFFFFFFF AND SUB PUSH2 0xEE3 JUMPI PUSH0 PUSH1 0x40 MLOAD PUSH32 0xCED3E10000000000000000000000000000000000000000000000000000000000 DUP2 MSTORE PUSH1 0x4 ADD PUSH2 0xEDA SWAP2 SWAP1 PUSH2 0x2347 JUMP JUMPDEST PUSH1 0x40 MLOAD DUP1 SWAP2 SUB SWAP1 REVERT JUMPDEST DUP1 PUSH1 0x1 PUSH0 DUP6 PUSH20 0xFFFFFFFFFFFFFFFFFFFFFFFFFFFFFFFFFFFFFFFF AND PUSH20 0xFFFFFFFFFFFFFFFFFFFFFFFFFFFFFFFFFFFFFFFF AND DUP2 MSTORE PUSH1 0x20 ADD SWAP1 DUP2 MSTORE PUSH1 0x20 ADD PUSH0 KECCAK256 PUSH0 DUP5 PUSH20 0xFFFFFFFFFFFFFFFFFFFFFFFFFFFFFFFFFFFFFFFF AND PUSH20 0xFFFFFFFFFFFFFFFFFFFFFFFFFFFFFFFFFFFFFFFF AND DUP2 MSTORE PUSH1 0x20 ADD SWAP1 DUP2 MSTORE PUSH1 0x20 ADD PUSH0 KECCAK256 PUSH0 PUSH2 0x100 EXP DUP2 SLOAD DUP2 PUSH1 0xFF MUL NOT AND SWAP1 DUP4 ISZERO ISZERO MUL OR SWAP1 SSTORE POP DUP2 PUSH20 0xFFFFFFFFFFFFFFFFFFFFFFFFFFFFFFFFFFFFFFFF AND DUP4 PUSH20 0xFFFFFFFFFFFFFFFFFFFFFFFFFFFFFFFFFFFFFFFF AND PUSH32 0x17307EAB39AB6107E8899845AD3D59BD9653F200F220920489CA2B5937696C31 DUP4 PUSH1 0x40 MLOAD PUSH2 0xFCF SWAP2 SWAP1 PUSH2 0x1CFA JUMP JUMPDEST PUSH1 0x40 MLOAD DUP1 SWAP2 SUB SWAP1 LOG3 POP POP POP JUMP JUMPDEST PUSH0 PUSH20 0xFFFFFFFFFFFFFFFFFFFFFFFFFFFFFFFFFFFFFFFF AND DUP5 PUSH20 0xFFFFFFFFFFFFFFFFFFFFFFFFFFFFFFFFFFFFFFFF AND SUB PUSH2 0x104C JUMPI PUSH0 PUSH1 0x40 MLOAD PUSH32 0x57F447CE00000000000000000000000000000000000000000000000000000000 DUP2 MSTORE PUSH1 0x4 ADD PUSH2 0x1043 SWAP2 SWAP1 PUSH2 0x2347 JUMP JUMPDEST PUSH1 0x40 MLOAD DUP1 SWAP2 SUB SWAP1 REVERT JUMPDEST PUSH0 PUSH20 0xFFFFFFFFFFFFFFFFFFFFFFFFFFFFFFFFFFFFFFFF AND DUP6 PUSH20 0xFFFFFFFFFFFFFFFFFFFFFFFFFFFFFFFFFFFFFFFF AND SUB PUSH2 0x10BC JUMPI PUSH0 PUSH1 0x40 MLOAD PUSH32 0x1A8351400000000000000000000000000000000000000000000000000000000 DUP2 MSTORE PUSH1 0x4 ADD PUSH2 0x10B3 SWAP2 SWAP1 PUSH2 0x2347 JUMP JUMPDEST PUSH1 0x40 MLOAD DUP1 SWAP2 SUB SWAP1 REVERT JUMPDEST PUSH0 DUP1 PUSH2 0x10C8 DUP6 DUP6 PUSH2 0x1381 JUMP JUMPDEST SWAP2 POP SWAP2 POP PUSH2 0x10D9 DUP8 DUP8 DUP5 DUP5 DUP8 PUSH2 0x12D5 JUMP JUMPDEST POP POP POP POP POP POP POP JUMP JUMPDEST PUSH0 PUSH20 0xFFFFFFFFFFFFFFFFFFFFFFFFFFFFFFFFFFFFFFFF AND DUP4 PUSH20 0xFFFFFFFFFFFFFFFFFFFFFFFFFFFFFFFFFFFFFFFF AND SUB PUSH2 0x1152 JUMPI PUSH0 PUSH1 0x40 MLOAD PUSH32 0x1A8351400000000000000000000000000000000000000000000000000000000 DUP2 MSTORE PUSH1 0x4 ADD PUSH2 0x1149 SWAP2 SWAP1 PUSH2 0x2347 JUMP JUMPDEST PUSH1 0x40 MLOAD DUP1 SWAP2 SUB SWAP1 REVERT JUMPDEST PUSH0 DUP1 PUSH2 0x115E DUP5 DUP5 PUSH2 0x1381 JUMP JUMPDEST SWAP2 POP SWAP2 POP PUSH2 0x117D DUP6 PUSH0 DUP5 DUP5 PUSH1 0x40 MLOAD DUP1 PUSH1 0x20 ADD PUSH1 0x40 MSTORE DUP1 PUSH0 DUP2 MSTORE POP PUSH2 0x12D5 JUMP JUMPDEST POP POP POP POP POP JUMP JUMPDEST PUSH0 DUP1 PUSH0 SWAP1 POP PUSH27 0x184F03E93FF9F4DAA797ED6E38ED64BF6A1F010000000000000000 DUP4 LT PUSH2 0x11E0 JUMPI PUSH27 0x184F03E93FF9F4DAA797ED6E38ED64BF6A1F010000000000000000 DUP4 DUP2 PUSH2 0x11D6 JUMPI PUSH2 0x11D5 PUSH2 0x2689 JUMP JUMPDEST JUMPDEST DIV SWAP3 POP PUSH1 0x40 DUP2 ADD SWAP1 POP JUMPDEST PUSH14 0x4EE2D6D415B85ACEF8100000000 DUP4 LT PUSH2 0x121D JUMPI PUSH14 0x4EE2D6D415B85ACEF8100000000 DUP4 DUP2 PUSH2 0x1213 JUMPI PUSH2 0x1212 PUSH2 0x2689 JUMP JUMPDEST JUMPDEST DIV SWAP3 POP PUSH1 0x20 DUP2 ADD SWAP1 POP JUMPDEST PUSH7 0x2386F26FC10000 DUP4 LT PUSH2 0x124C JUMPI PUSH7 0x2386F26FC10000 DUP4 DUP2 PUSH2 0x1242 JUMPI PUSH2 0x1241 PUSH2 0x2689 JUMP JUMPDEST JUMPDEST DIV SWAP3 POP PUSH1 0x10 DUP2 ADD SWAP1 POP JUMPDEST PUSH4 0x5F5E100 DUP4 LT PUSH2 0x1275 JUMPI PUSH4 0x5F5E100 DUP4 DUP2 PUSH2 0x126B JUMPI PUSH2 0x126A PUSH2 0x2689 JUMP JUMPDEST JUMPDEST DIV SWAP3 POP PUSH1 0x8 DUP2 ADD SWAP1 POP JUMPDEST PUSH2 0x2710 DUP4 LT PUSH2 0x129A JUMPI PUSH2 0x2710 DUP4 DUP2 PUSH2 0x1290 JUMPI PUSH2 0x128F PUSH2 0x2689 JUMP JUMPDEST JUMPDEST DIV SWAP3 POP PUSH1 0x4 DUP2 ADD SWAP1 POP JUMPDEST PUSH1 0x64 DUP4 LT PUSH2 0x12BD JUMPI PUSH1 0x64 DUP4 DUP2 PUSH2 0x12B3 JUMPI PUSH2 0x12B2 PUSH2 0x2689 JUMP JUMPDEST JUMPDEST DIV SWAP3 POP PUSH1 0x2 DUP2 ADD SWAP1 POP JUMPDEST PUSH1 0xA DUP4 LT PUSH2 0x12CC JUMPI PUSH1 0x1 DUP2 ADD SWAP1 POP JUMPDEST DUP1 SWAP2 POP POP SWAP2 SWAP1 POP JUMP JUMPDEST PUSH2 0x12E1 DUP6 DUP6 DUP6 DUP6 PUSH2 0x13B1 JUMP JUMPDEST PUSH0 PUSH20 0xFFFFFFFFFFFFFFFFFFFFFFFFFFFFFFFFFFFFFFFF AND DUP5 PUSH20 0xFFFFFFFFFFFFFFFFFFFFFFFFFFFFFFFFFFFFFFFF AND EQ PUSH2 0x137A JUMPI PUSH0 PUSH2 0x131D PUSH2 0xB78 JUMP JUMPDEST SWAP1 POP PUSH1 0x1 DUP5 MLOAD SUB PUSH2 0x1369 JUMPI PUSH0 PUSH2 0x133C PUSH0 DUP7 PUSH2 0xC86 SWAP1 SWAP2 SWAP1 PUSH4 0xFFFFFFFF AND JUMP JUMPDEST SWAP1 POP PUSH0 PUSH2 0x1352 PUSH0 DUP7 PUSH2 0xC86 SWAP1 SWAP2 SWAP1 PUSH4 0xFFFFFFFF AND JUMP JUMPDEST SWAP1 POP PUSH2 0x1362 DUP4 DUP10 DUP10 DUP6 DUP6 DUP10 PUSH2 0x146E JUMP JUMPDEST POP POP PUSH2 0x1378 JUMP JUMPDEST PUSH2 0x1377 DUP2 DUP8 DUP8 DUP8 DUP8 DUP8 PUSH2 0x161D JUMP JUMPDEST JUMPDEST POP JUMPDEST POP POP POP POP POP JUMP JUMPDEST PUSH1 0x60 DUP1 PUSH1 0x40 MLOAD SWAP2 POP PUSH1 0x1 DUP3 MSTORE DUP4 PUSH1 0x20 DUP4 ADD MSTORE PUSH1 0x40 DUP3 ADD SWAP1 POP PUSH1 0x1 DUP2 MSTORE DUP3 PUSH1 0x20 DUP3 ADD MSTORE PUSH1 0x40 DUP2 ADD PUSH1 0x40 MSTORE SWAP3 POP SWAP3 SWAP1 POP JUMP JUMPDEST PUSH2 0x13BD DUP5 DUP5 DUP5 DUP5 PUSH2 0x17CC JUMP JUMPDEST PUSH2 0x13C5 PUSH2 0x779 JUMP JUMPDEST PUSH20 0xFFFFFFFFFFFFFFFFFFFFFFFFFFFFFFFFFFFFFFFF AND CALLER PUSH20 0xFFFFFFFFFFFFFFFFFFFFFFFFFFFFFFFFFFFFFFFF AND EQ DUP1 PUSH2 0x1429 JUMPI POP PUSH0 PUSH20 0xFFFFFFFFFFFFFFFFFFFFFFFFFFFFFFFFFFFFFFFF AND DUP4 PUSH20 0xFFFFFFFFFFFFFFFFFFFFFFFFFFFFFFFFFFFFFFFF AND EQ JUMPDEST PUSH2 0x1468 JUMPI PUSH1 0x40 MLOAD PUSH32 0x8C379A000000000000000000000000000000000000000000000000000000000 DUP2 MSTORE PUSH1 0x4 ADD PUSH2 0x145F SWAP1 PUSH2 0x2726 JUMP JUMPDEST PUSH1 0x40 MLOAD DUP1 SWAP2 SUB SWAP1 REVERT JUMPDEST POP POP POP POP JUMP JUMPDEST PUSH0 DUP5 PUSH20 0xFFFFFFFFFFFFFFFFFFFFFFFFFFFFFFFFFFFFFFFF AND EXTCODESIZE GT ISZERO PUSH2 0x1615 JUMPI DUP4 PUSH20 0xFFFFFFFFFFFFFFFFFFFFFFFFFFFFFFFFFFFFFFFF AND PUSH4 0xF23A6E61 DUP8 DUP8 DUP7 DUP7 DUP7 PUSH1 0x40 MLOAD DUP7 PUSH4 0xFFFFFFFF AND PUSH1 0xE0 SHL DUP2 MSTORE PUSH1 0x4 ADD PUSH2 0x14CE SWAP6 SWAP5 SWAP4 SWAP3 SWAP2 SWAP1 PUSH2 0x2796 JUMP JUMPDEST PUSH1 0x20 PUSH1 0x40 MLOAD DUP1 DUP4 SUB DUP2 PUSH0 DUP8 GAS CALL SWAP3 POP POP POP DUP1 ISZERO PUSH2 0x1509 JUMPI POP PUSH1 0x40 MLOAD RETURNDATASIZE PUSH1 0x1F NOT PUSH1 0x1F DUP3 ADD AND DUP3 ADD DUP1 PUSH1 0x40 MSTORE POP DUP2 ADD SWAP1 PUSH2 0x1506 SWAP2 SWAP1 PUSH2 0x2802 JUMP JUMPDEST PUSH1 0x1 JUMPDEST PUSH2 0x158A JUMPI RETURNDATASIZE DUP1 PUSH0 DUP2 EQ PUSH2 0x1537 JUMPI PUSH1 0x40 MLOAD SWAP2 POP PUSH1 0x1F NOT PUSH1 0x3F RETURNDATASIZE ADD AND DUP3 ADD PUSH1 0x40 MSTORE RETURNDATASIZE DUP3 MSTORE RETURNDATASIZE PUSH0 PUSH1 0x20 DUP5 ADD RETURNDATACOPY PUSH2 0x153C JUMP JUMPDEST PUSH1 0x60 SWAP2 POP JUMPDEST POP PUSH0 DUP2 MLOAD SUB PUSH2 0x1582 JUMPI DUP5 PUSH1 0x40 MLOAD PUSH32 0x57F447CE00000000000000000000000000000000000000000000000000000000 DUP2 MSTORE PUSH1 0x4 ADD PUSH2 0x1579 SWAP2 SWAP1 PUSH2 0x2347 JUMP JUMPDEST PUSH1 0x40 MLOAD DUP1 SWAP2 SUB SWAP1 REVERT JUMPDEST DUP1 MLOAD DUP2 PUSH1 0x20 ADD REVERT JUMPDEST PUSH4 0xF23A6E61 PUSH1 0xE0 SHL PUSH28 0xFFFFFFFFFFFFFFFFFFFFFFFFFFFFFFFFFFFFFFFFFFFFFFFFFFFFFFFF NOT AND DUP2 PUSH28 0xFFFFFFFFFFFFFFFFFFFFFFFFFFFFFFFFFFFFFFFFFFFFFFFFFFFFFFFF NOT AND EQ PUSH2 0x1613 JUMPI DUP5 PUSH1 0x40 MLOAD PUSH32 0x57F447CE00000000000000000000000000000000000000000000000000000000 DUP2 MSTORE PUSH1 0x4 ADD PUSH2 0x160A SWAP2 SWAP1 PUSH2 0x2347 JUMP JUMPDEST PUSH1 0x40 MLOAD DUP1 SWAP2 SUB SWAP1 REVERT JUMPDEST POP JUMPDEST POP POP POP POP POP POP JUMP JUMPDEST PUSH0 DUP5 PUSH20 0xFFFFFFFFFFFFFFFFFFFFFFFFFFFFFFFFFFFFFFFF AND EXTCODESIZE GT ISZERO PUSH2 0x17C4 JUMPI DUP4 PUSH20 0xFFFFFFFFFFFFFFFFFFFFFFFFFFFFFFFFFFFFFFFF AND PUSH4 0xBC197C81 DUP8 DUP8 DUP7 DUP7 DUP7 PUSH1 0x40 MLOAD DUP7 PUSH4 0xFFFFFFFF AND PUSH1 0xE0 SHL DUP2 MSTORE PUSH1 0x4 ADD PUSH2 0x167D SWAP6 SWAP5 SWAP4 SWAP3 SWAP2 SWAP1 PUSH2 0x282D JUMP JUMPDEST PUSH1 0x20 PUSH1 0x40 MLOAD DUP1 DUP4 SUB DUP2 PUSH0 DUP8 GAS CALL SWAP3 POP POP POP DUP1 ISZERO PUSH2 0x16B8 JUMPI POP PUSH1 0x40 MLOAD RETURNDATASIZE PUSH1 0x1F NOT PUSH1 0x1F DUP3 ADD AND DUP3 ADD DUP1 PUSH1 0x40 MSTORE POP DUP2 ADD SWAP1 PUSH2 0x16B5 SWAP2 SWAP1 PUSH2 0x2802 JUMP JUMPDEST PUSH1 0x1 JUMPDEST PUSH2 0x1739 JUMPI RETURNDATASIZE DUP1 PUSH0 DUP2 EQ PUSH2 0x16E6 JUMPI PUSH1 0x40 MLOAD SWAP2 POP PUSH1 0x1F NOT PUSH1 0x3F RETURNDATASIZE ADD AND DUP3 ADD PUSH1 0x40 MSTORE RETURNDATASIZE DUP3 MSTORE RETURNDATASIZE PUSH0 PUSH1 0x20 DUP5 ADD RETURNDATACOPY PUSH2 0x16EB JUMP JUMPDEST PUSH1 0x60 SWAP2 POP JUMPDEST POP PUSH0 DUP2 MLOAD SUB PUSH2 0x1731 JUMPI DUP5 PUSH1 0x40 MLOAD PUSH32 0x57F447CE00000000000000000000000000000000000000000000000000000000 DUP2 MSTORE PUSH1 0x4 ADD PUSH2 0x1728 SWAP2 SWAP1 PUSH2 0x2347 JUMP JUMPDEST PUSH1 0x40 MLOAD DUP1 SWAP2 SUB SWAP1 REVERT JUMPDEST DUP1 MLOAD DUP2 PUSH1 0x20 ADD REVERT JUMPDEST PUSH4 0xBC197C81 PUSH1 0xE0 SHL PUSH28 0xFFFFFFFFFFFFFFFFFFFFFFFFFFFFFFFFFFFFFFFFFFFFFFFFFFFFFFFF NOT AND DUP2 PUSH28 0xFFFFFFFFFFFFFFFFFFFFFFFFFFFFFFFFFFFFFFFFFFFFFFFFFFFFFFFF NOT AND EQ PUSH2 0x17C2 JUMPI DUP5 PUSH1 0x40 MLOAD PUSH32 0x57F447CE00000000000000000000000000000000000000000000000000000000 DUP2 MSTORE PUSH1 0x4 ADD PUSH2 0x17B9 SWAP2 SWAP1 PUSH2 0x2347 JUMP JUMPDEST PUSH1 0x40 MLOAD DUP1 SWAP2 SUB SWAP1 REVERT JUMPDEST POP JUMPDEST POP POP POP POP POP POP JUMP JUMPDEST DUP1 MLOAD DUP3 MLOAD EQ PUSH2 0x1816 JUMPI DUP2 MLOAD DUP2 MLOAD PUSH1 0x40 MLOAD PUSH32 0x5B05999100000000000000000000000000000000000000000000000000000000 DUP2 MSTORE PUSH1 0x4 ADD PUSH2 0x180D SWAP3 SWAP2 SWAP1 PUSH2 0x2635 JUMP JUMPDEST PUSH1 0x40 MLOAD DUP1 SWAP2 SUB SWAP1 REVERT JUMPDEST PUSH0 PUSH2 0x181F PUSH2 0xB78 JUMP JUMPDEST SWAP1 POP PUSH0 JUMPDEST DUP4 MLOAD DUP2 LT ISZERO PUSH2 0x1A1B JUMPI PUSH0 PUSH2 0x1840 DUP3 DUP7 PUSH2 0xC86 SWAP1 SWAP2 SWAP1 PUSH4 0xFFFFFFFF AND JUMP JUMPDEST SWAP1 POP PUSH0 PUSH2 0x1856 DUP4 DUP7 PUSH2 0xC86 SWAP1 SWAP2 SWAP1 PUSH4 0xFFFFFFFF AND JUMP JUMPDEST SWAP1 POP PUSH0 PUSH20 0xFFFFFFFFFFFFFFFFFFFFFFFFFFFFFFFFFFFFFFFF AND DUP9 PUSH20 0xFFFFFFFFFFFFFFFFFFFFFFFFFFFFFFFFFFFFFFFF AND EQ PUSH2 0x1979 JUMPI PUSH0 DUP1 PUSH0 DUP5 DUP2 MSTORE PUSH1 0x20 ADD SWAP1 DUP2 MSTORE PUSH1 0x20 ADD PUSH0 KECCAK256 PUSH0 DUP11 PUSH20 0xFFFFFFFFFFFFFFFFFFFFFFFFFFFFFFFFFFFFFFFF AND PUSH20 0xFFFFFFFFFFFFFFFFFFFFFFFFFFFFFFFFFFFFFFFF AND DUP2 MSTORE PUSH1 0x20 ADD SWAP1 DUP2 MSTORE PUSH1 0x20 ADD PUSH0 KECCAK256 SLOAD SWAP1 POP DUP2 DUP2 LT ISZERO PUSH2 0x1925 JUMPI DUP9 DUP2 DUP4 DUP6 PUSH1 0x40 MLOAD PUSH32 0x3DEE4C500000000000000000000000000000000000000000000000000000000 DUP2 MSTORE PUSH1 0x4 ADD PUSH2 0x191C SWAP5 SWAP4 SWAP3 SWAP2 SWAP1 PUSH2 0x2893 JUMP JUMPDEST PUSH1 0x40 MLOAD DUP1 SWAP2 SUB SWAP1 REVERT JUMPDEST DUP2 DUP2 SUB PUSH0 DUP1 DUP6 DUP2 MSTORE PUSH1 0x20 ADD SWAP1 DUP2 MSTORE PUSH1 0x20 ADD PUSH0 KECCAK256 PUSH0 DUP12 PUSH20 0xFFFFFFFFFFFFFFFFFFFFFFFFFFFFFFFFFFFFFFFF AND PUSH20 0xFFFFFFFFFFFFFFFFFFFFFFFFFFFFFFFFFFFFFFFF AND DUP2 MSTORE PUSH1 0x20 ADD SWAP1 DUP2 MSTORE PUSH1 0x20 ADD PUSH0 KECCAK256 DUP2 SWAP1 SSTORE POP POP JUMPDEST PUSH0 PUSH20 0xFFFFFFFFFFFFFFFFFFFFFFFFFFFFFFFFFFFFFFFF AND DUP8 PUSH20 0xFFFFFFFFFFFFFFFFFFFFFFFFFFFFFFFFFFFFFFFF AND EQ PUSH2 0x1A0E JUMPI DUP1 PUSH0 DUP1 DUP5 DUP2 MSTORE PUSH1 0x20 ADD SWAP1 DUP2 MSTORE PUSH1 0x20 ADD PUSH0 KECCAK256 PUSH0 DUP10 PUSH20 0xFFFFFFFFFFFFFFFFFFFFFFFFFFFFFFFFFFFFFFFF AND PUSH20 0xFFFFFFFFFFFFFFFFFFFFFFFFFFFFFFFFFFFFFFFF AND DUP2 MSTORE PUSH1 0x20 ADD SWAP1 DUP2 MSTORE PUSH1 0x20 ADD PUSH0 KECCAK256 PUSH0 DUP3 DUP3 SLOAD PUSH2 0x1A06 SWAP2 SWAP1 PUSH2 0x2903 JUMP JUMPDEST SWAP3 POP POP DUP2 SWAP1 SSTORE POP JUMPDEST POP POP DUP1 PUSH1 0x1 ADD SWAP1 POP PUSH2 0x1823 JUMP JUMPDEST POP PUSH1 0x1 DUP4 MLOAD SUB PUSH2 0x1AD6 JUMPI PUSH0 PUSH2 0x1A39 PUSH0 DUP6 PUSH2 0xC86 SWAP1 SWAP2 SWAP1 PUSH4 0xFFFFFFFF AND JUMP JUMPDEST SWAP1 POP PUSH0 PUSH2 0x1A4F PUSH0 DUP6 PUSH2 0xC86 SWAP1 SWAP2 SWAP1 PUSH4 0xFFFFFFFF AND JUMP JUMPDEST SWAP1 POP DUP6 PUSH20 0xFFFFFFFFFFFFFFFFFFFFFFFFFFFFFFFFFFFFFFFF AND DUP8 PUSH20 0xFFFFFFFFFFFFFFFFFFFFFFFFFFFFFFFFFFFFFFFF AND DUP5 PUSH20 0xFFFFFFFFFFFFFFFFFFFFFFFFFFFFFFFFFFFFFFFF AND PUSH32 0xC3D58168C5AE7397731D063D5BBF3D657854427343F4C083240F7AACAA2D0F62 DUP6 DUP6 PUSH1 0x40 MLOAD PUSH2 0x1AC7 SWAP3 SWAP2 SWAP1 PUSH2 0x2635 JUMP JUMPDEST PUSH1 0x40 MLOAD DUP1 SWAP2 SUB SWAP1 LOG4 POP POP PUSH2 0x1B55 JUMP JUMPDEST DUP4 PUSH20 0xFFFFFFFFFFFFFFFFFFFFFFFFFFFFFFFFFFFFFFFF AND DUP6 PUSH20 0xFFFFFFFFFFFFFFFFFFFFFFFFFFFFFFFFFFFFFFFF AND DUP3 PUSH20 0xFFFFFFFFFFFFFFFFFFFFFFFFFFFFFFFFFFFFFFFF AND PUSH32 0x4A39DC06D4C0DBC64B70AF90FD698A233A518AA5D07E595D983B8C0526C8F7FB DUP7 DUP7 PUSH1 0x40 MLOAD PUSH2 0x1B4C SWAP3 SWAP2 SWAP1 PUSH2 0x2936 JUMP JUMPDEST PUSH1 0x40 MLOAD DUP1 SWAP2 SUB SWAP1 LOG4 JUMPDEST POP POP POP POP POP JUMP JUMPDEST PUSH0 PUSH1 0x40 MLOAD SWAP1 POP SWAP1 JUMP JUMPDEST PUSH0 DUP1 REVERT JUMPDEST PUSH0 DUP1 REVERT JUMPDEST PUSH0 PUSH20 0xFFFFFFFFFFFFFFFFFFFFFFFFFFFFFFFFFFFFFFFF DUP3 AND SWAP1 POP SWAP2 SWAP1 POP JUMP JUMPDEST PUSH0 PUSH2 0x1B96 DUP3 PUSH2 0x1B6D JUMP JUMPDEST SWAP1 POP SWAP2 SWAP1 POP JUMP JUMPDEST PUSH2 0x1BA6 DUP2 PUSH2 0x1B8C JUMP JUMPDEST DUP2 EQ PUSH2 0x1BB0 JUMPI PUSH0 DUP1 REVERT JUMPDEST POP JUMP JUMPDEST PUSH0 DUP2 CALLDATALOAD SWAP1 POP PUSH2 0x1BC1 DUP2 PUSH2 0x1B9D JUMP JUMPDEST SWAP3 SWAP2 POP POP JUMP JUMPDEST PUSH0 DUP2 SWAP1 POP SWAP2 SWAP1 POP JUMP JUMPDEST PUSH2 0x1BD9 DUP2 PUSH2 0x1BC7 JUMP JUMPDEST DUP2 EQ PUSH2 0x1BE3 JUMPI PUSH0 DUP1 REVERT JUMPDEST POP JUMP JUMPDEST PUSH0 DUP2 CALLDATALOAD SWAP1 POP PUSH2 0x1BF4 DUP2 PUSH2 0x1BD0 JUMP JUMPDEST SWAP3 SWAP2 POP POP JUMP JUMPDEST PUSH0 DUP1 PUSH1 0x40 DUP4 DUP6 SUB SLT ISZERO PUSH2 0x1C10 JUMPI PUSH2 0x1C0F PUSH2 0x1B65 JUMP JUMPDEST JUMPDEST PUSH0 PUSH2 0x1C1D DUP6 DUP3 DUP7 ADD PUSH2 0x1BB3 JUMP JUMPDEST SWAP3 POP POP PUSH1 0x20 PUSH2 0x1C2E DUP6 DUP3 DUP7 ADD PUSH2 0x1BE6 JUMP JUMPDEST SWAP2 POP POP SWAP3 POP SWAP3 SWAP1 POP JUMP JUMPDEST PUSH2 0x1C41 DUP2 PUSH2 0x1BC7 JUMP JUMPDEST DUP3 MSTORE POP POP JUMP JUMPDEST PUSH0 PUSH1 0x20 DUP3 ADD SWAP1 POP PUSH2 0x1C5A PUSH0 DUP4 ADD DUP5 PUSH2 0x1C38 JUMP JUMPDEST SWAP3 SWAP2 POP POP JUMP JUMPDEST PUSH0 PUSH32 0xFFFFFFFF00000000000000000000000000000000000000000000000000000000 DUP3 AND SWAP1 POP SWAP2 SWAP1 POP JUMP JUMPDEST PUSH2 0x1C94 DUP2 PUSH2 0x1C60 JUMP JUMPDEST DUP2 EQ PUSH2 0x1C9E JUMPI PUSH0 DUP1 REVERT JUMPDEST POP JUMP JUMPDEST PUSH0 DUP2 CALLDATALOAD SWAP1 POP PUSH2 0x1CAF DUP2 PUSH2 0x1C8B JUMP JUMPDEST SWAP3 SWAP2 POP POP JUMP JUMPDEST PUSH0 PUSH1 0x20 DUP3 DUP5 SUB SLT ISZERO PUSH2 0x1CCA JUMPI PUSH2 0x1CC9 PUSH2 0x1B65 JUMP JUMPDEST JUMPDEST PUSH0 PUSH2 0x1CD7 DUP5 DUP3 DUP6 ADD PUSH2 0x1CA1 JUMP JUMPDEST SWAP2 POP POP SWAP3 SWAP2 POP POP JUMP JUMPDEST PUSH0 DUP2 ISZERO ISZERO SWAP1 POP SWAP2 SWAP1 POP JUMP JUMPDEST PUSH2 0x1CF4 DUP2 PUSH2 0x1CE0 JUMP JUMPDEST DUP3 MSTORE POP POP JUMP JUMPDEST PUSH0 PUSH1 0x20 DUP3 ADD SWAP1 POP PUSH2 0x1D0D PUSH0 DUP4 ADD DUP5 PUSH2 0x1CEB JUMP JUMPDEST SWAP3 SWAP2 POP POP JUMP JUMPDEST PUSH0 PUSH1 0x20 DUP3 DUP5 SUB SLT ISZERO PUSH2 0x1D28 JUMPI PUSH2 0x1D27 PUSH2 0x1B65 JUMP JUMPDEST JUMPDEST PUSH0 PUSH2 0x1D35 DUP5 DUP3 DUP6 ADD PUSH2 0x1BE6 JUMP JUMPDEST SWAP2 POP POP SWAP3 SWAP2 POP POP JUMP JUMPDEST PUSH0 DUP2 MLOAD SWAP1 POP SWAP2 SWAP1 POP JUMP JUMPDEST PUSH0 DUP3 DUP3 MSTORE PUSH1 0x20 DUP3 ADD SWAP1 POP SWAP3 SWAP2 POP POP JUMP JUMPDEST PUSH0 JUMPDEST DUP4 DUP2 LT ISZERO PUSH2 0x1D75 JUMPI DUP1 DUP3 ADD MLOAD DUP2 DUP5 ADD MSTORE PUSH1 0x20 DUP2 ADD SWAP1 POP PUSH2 0x1D5A JUMP JUMPDEST PUSH0 DUP5 DUP5 ADD MSTORE POP POP POP POP JUMP JUMPDEST PUSH0 PUSH1 0x1F NOT PUSH1 0x1F DUP4 ADD AND SWAP1 POP SWAP2 SWAP1 POP JUMP JUMPDEST PUSH0 PUSH2 0x1D9A DUP3 PUSH2 0x1D3E JUMP JUMPDEST PUSH2 0x1DA4 DUP2 DUP6 PUSH2 0x1D48 JUMP JUMPDEST SWAP4 POP PUSH2 0x1DB4 DUP2 DUP6 PUSH1 0x20 DUP7 ADD PUSH2 0x1D58 JUMP JUMPDEST PUSH2 0x1DBD DUP2 PUSH2 0x1D80 JUMP JUMPDEST DUP5 ADD SWAP2 POP POP SWAP3 SWAP2 POP POP JUMP JUMPDEST PUSH0 PUSH1 0x20 DUP3 ADD SWAP1 POP DUP2 DUP2 SUB PUSH0 DUP4 ADD MSTORE PUSH2 0x1DE0 DUP2 DUP5 PUSH2 0x1D90 JUMP JUMPDEST SWAP1 POP SWAP3 SWAP2 POP POP JUMP JUMPDEST PUSH0 DUP1 REVERT JUMPDEST PUSH32 0x4E487B7100000000000000000000000000000000000000000000000000000000 PUSH0 MSTORE PUSH1 0x41 PUSH1 0x4 MSTORE PUSH1 0x24 PUSH0 REVERT JUMPDEST PUSH2 0x1E22 DUP3 PUSH2 0x1D80 JUMP JUMPDEST DUP2 ADD DUP2 DUP2 LT PUSH8 0xFFFFFFFFFFFFFFFF DUP3 GT OR ISZERO PUSH2 0x1E41 JUMPI PUSH2 0x1E40 PUSH2 0x1DEC JUMP JUMPDEST JUMPDEST DUP1 PUSH1 0x40 MSTORE POP POP POP JUMP JUMPDEST PUSH0 PUSH2 0x1E53 PUSH2 0x1B5C JUMP JUMPDEST SWAP1 POP PUSH2 0x1E5F DUP3 DUP3 PUSH2 0x1E19 JUMP JUMPDEST SWAP2 SWAP1 POP JUMP JUMPDEST PUSH0 PUSH8 0xFFFFFFFFFFFFFFFF DUP3 GT ISZERO PUSH2 0x1E7E JUMPI PUSH2 0x1E7D PUSH2 0x1DEC JUMP JUMPDEST JUMPDEST PUSH1 0x20 DUP3 MUL SWAP1 POP PUSH1 0x20 DUP2 ADD SWAP1 POP SWAP2 SWAP1 POP JUMP JUMPDEST PUSH0 DUP1 REVERT JUMPDEST PUSH0 PUSH2 0x1EA5 PUSH2 0x1EA0 DUP5 PUSH2 0x1E64 JUMP JUMPDEST PUSH2 0x1E4A JUMP JUMPDEST SWAP1 POP DUP1 DUP4 DUP3 MSTORE PUSH1 0x20 DUP3 ADD SWAP1 POP PUSH1 0x20 DUP5 MUL DUP4 ADD DUP6 DUP2 GT ISZERO PUSH2 0x1EC8 JUMPI PUSH2 0x1EC7 PUSH2 0x1E8F JUMP JUMPDEST JUMPDEST DUP4 JUMPDEST DUP2 DUP2 LT ISZERO PUSH2 0x1EF1 JUMPI DUP1 PUSH2 0x1EDD DUP9 DUP3 PUSH2 0x1BE6 JUMP JUMPDEST DUP5 MSTORE PUSH1 0x20 DUP5 ADD SWAP4 POP POP PUSH1 0x20 DUP2 ADD SWAP1 POP PUSH2 0x1ECA JUMP JUMPDEST POP POP POP SWAP4 SWAP3 POP POP POP JUMP JUMPDEST PUSH0 DUP3 PUSH1 0x1F DUP4 ADD SLT PUSH2 0x1F0F JUMPI PUSH2 0x1F0E PUSH2 0x1DE8 JUMP JUMPDEST JUMPDEST DUP2 CALLDATALOAD PUSH2 0x1F1F DUP5 DUP3 PUSH1 0x20 DUP7 ADD PUSH2 0x1E93 JUMP JUMPDEST SWAP2 POP POP SWAP3 SWAP2 POP POP JUMP JUMPDEST PUSH0 DUP1 REVERT JUMPDEST PUSH0 PUSH8 0xFFFFFFFFFFFFFFFF DUP3 GT ISZERO PUSH2 0x1F46 JUMPI PUSH2 0x1F45 PUSH2 0x1DEC JUMP JUMPDEST JUMPDEST PUSH2 0x1F4F DUP3 PUSH2 0x1D80 JUMP JUMPDEST SWAP1 POP PUSH1 0x20 DUP2 ADD SWAP1 POP SWAP2 SWAP1 POP JUMP JUMPDEST DUP3 DUP2 DUP4 CALLDATACOPY PUSH0 DUP4 DUP4 ADD MSTORE POP POP POP JUMP JUMPDEST PUSH0 PUSH2 0x1F7C PUSH2 0x1F77 DUP5 PUSH2 0x1F2C JUMP JUMPDEST PUSH2 0x1E4A JUMP JUMPDEST SWAP1 POP DUP3 DUP2 MSTORE PUSH1 0x20 DUP2 ADD DUP5 DUP5 DUP5 ADD GT ISZERO PUSH2 0x1F98 JUMPI PUSH2 0x1F97 PUSH2 0x1F28 JUMP JUMPDEST JUMPDEST PUSH2 0x1FA3 DUP5 DUP3 DUP6 PUSH2 0x1F5C JUMP JUMPDEST POP SWAP4 SWAP3 POP POP POP JUMP JUMPDEST PUSH0 DUP3 PUSH1 0x1F DUP4 ADD SLT PUSH2 0x1FBF JUMPI PUSH2 0x1FBE PUSH2 0x1DE8 JUMP JUMPDEST JUMPDEST DUP2 CALLDATALOAD PUSH2 0x1FCF DUP5 DUP3 PUSH1 0x20 DUP7 ADD PUSH2 0x1F6A JUMP JUMPDEST SWAP2 POP POP SWAP3 SWAP2 POP POP JUMP JUMPDEST PUSH0 DUP1 PUSH0 DUP1 PUSH0 PUSH1 0xA0 DUP7 DUP9 SUB SLT ISZERO PUSH2 0x1FF1 JUMPI PUSH2 0x1FF0 PUSH2 0x1B65 JUMP JUMPDEST JUMPDEST PUSH0 PUSH2 0x1FFE DUP9 DUP3 DUP10 ADD PUSH2 0x1BB3 JUMP JUMPDEST SWAP6 POP POP PUSH1 0x20 PUSH2 0x200F DUP9 DUP3 DUP10 ADD PUSH2 0x1BB3 JUMP JUMPDEST SWAP5 POP POP PUSH1 0x40 DUP7 ADD CALLDATALOAD PUSH8 0xFFFFFFFFFFFFFFFF DUP2 GT ISZERO PUSH2 0x2030 JUMPI PUSH2 0x202F PUSH2 0x1B69 JUMP JUMPDEST JUMPDEST PUSH2 0x203C DUP9 DUP3 DUP10 ADD PUSH2 0x1EFB JUMP JUMPDEST SWAP4 POP POP PUSH1 0x60 DUP7 ADD CALLDATALOAD PUSH8 0xFFFFFFFFFFFFFFFF DUP2 GT ISZERO PUSH2 0x205D JUMPI PUSH2 0x205C PUSH2 0x1B69 JUMP JUMPDEST JUMPDEST PUSH2 0x2069 DUP9 DUP3 DUP10 ADD PUSH2 0x1EFB JUMP JUMPDEST SWAP3 POP POP PUSH1 0x80 DUP7 ADD CALLDATALOAD PUSH8 0xFFFFFFFFFFFFFFFF DUP2 GT ISZERO PUSH2 0x208A JUMPI PUSH2 0x2089 PUSH2 0x1B69 JUMP JUMPDEST JUMPDEST PUSH2 0x2096 DUP9 DUP3 DUP10 ADD PUSH2 0x1FAB JUMP JUMPDEST SWAP2 POP POP SWAP3 SWAP6 POP SWAP3 SWAP6 SWAP1 SWAP4 POP JUMP JUMPDEST PUSH0 PUSH8 0xFFFFFFFFFFFFFFFF DUP3 GT ISZERO PUSH2 0x20BD JUMPI PUSH2 0x20BC PUSH2 0x1DEC JUMP JUMPDEST JUMPDEST PUSH1 0x20 DUP3 MUL SWAP1 POP PUSH1 0x20 DUP2 ADD SWAP1 POP SWAP2 SWAP1 POP JUMP JUMPDEST PUSH0 PUSH2 0x20E0 PUSH2 0x20DB DUP5 PUSH2 0x20A3 JUMP JUMPDEST PUSH2 0x1E4A JUMP JUMPDEST SWAP1 POP DUP1 DUP4 DUP3 MSTORE PUSH1 0x20 DUP3 ADD SWAP1 POP PUSH1 0x20 DUP5 MUL DUP4 ADD DUP6 DUP2 GT ISZERO PUSH2 0x2103 JUMPI PUSH2 0x2102 PUSH2 0x1E8F JUMP JUMPDEST JUMPDEST DUP4 JUMPDEST DUP2 DUP2 LT ISZERO PUSH2 0x212C JUMPI DUP1 PUSH2 0x2118 DUP9 DUP3 PUSH2 0x1BB3 JUMP JUMPDEST DUP5 MSTORE PUSH1 0x20 DUP5 ADD SWAP4 POP POP PUSH1 0x20 DUP2 ADD SWAP1 POP PUSH2 0x2105 JUMP JUMPDEST POP POP POP SWAP4 SWAP3 POP POP POP JUMP JUMPDEST PUSH0 DUP3 PUSH1 0x1F DUP4 ADD SLT PUSH2 0x214A JUMPI PUSH2 0x2149 PUSH2 0x1DE8 JUMP JUMPDEST JUMPDEST DUP2 CALLDATALOAD PUSH2 0x215A DUP5 DUP3 PUSH1 0x20 DUP7 ADD PUSH2 0x20CE JUMP JUMPDEST SWAP2 POP POP SWAP3 SWAP2 POP POP JUMP JUMPDEST PUSH0 DUP1 PUSH1 0x40 DUP4 DUP6 SUB SLT ISZERO PUSH2 0x2179 JUMPI PUSH2 0x2178 PUSH2 0x1B65 JUMP JUMPDEST JUMPDEST PUSH0 DUP4 ADD CALLDATALOAD PUSH8 0xFFFFFFFFFFFFFFFF DUP2 GT ISZERO PUSH2 0x2196 JUMPI PUSH2 0x2195 PUSH2 0x1B69 JUMP JUMPDEST JUMPDEST PUSH2 0x21A2 DUP6 DUP3 DUP7 ADD PUSH2 0x2136 JUMP JUMPDEST SWAP3 POP POP PUSH1 0x20 DUP4 ADD CALLDATALOAD PUSH8 0xFFFFFFFFFFFFFFFF DUP2 GT ISZERO PUSH2 0x21C3 JUMPI PUSH2 0x21C2 PUSH2 0x1B69 JUMP JUMPDEST JUMPDEST PUSH2 0x21CF DUP6 DUP3 DUP7 ADD PUSH2 0x1EFB JUMP JUMPDEST SWAP2 POP POP SWAP3 POP SWAP3 SWAP1 POP JUMP JUMPDEST PUSH0 DUP2 MLOAD SWAP1 POP SWAP2 SWAP1 POP JUMP JUMPDEST PUSH0 DUP3 DUP3 MSTORE PUSH1 0x20 DUP3 ADD SWAP1 POP SWAP3 SWAP2 POP POP JUMP JUMPDEST PUSH0 DUP2 SWAP1 POP PUSH1 0x20 DUP3 ADD SWAP1 POP SWAP2 SWAP1 POP JUMP JUMPDEST PUSH2 0x220B DUP2 PUSH2 0x1BC7 JUMP JUMPDEST DUP3 MSTORE POP POP JUMP JUMPDEST PUSH0 PUSH2 0x221C DUP4 DUP4 PUSH2 0x2202 JUMP JUMPDEST PUSH1 0x20 DUP4 ADD SWAP1 POP SWAP3 SWAP2 POP POP JUMP JUMPDEST PUSH0 PUSH1 0x20 DUP3 ADD SWAP1 POP SWAP2 SWAP1 POP JUMP JUMPDEST PUSH0 PUSH2 0x223E DUP3 PUSH2 0x21D9 JUMP JUMPDEST PUSH2 0x2248 DUP2 DUP6 PUSH2 0x21E3 JUMP JUMPDEST SWAP4 POP PUSH2 0x2253 DUP4 PUSH2 0x21F3 JUMP JUMPDEST DUP1 PUSH0 JUMPDEST DUP4 DUP2 LT ISZERO PUSH2 0x2283 JUMPI DUP2 MLOAD PUSH2 0x226A DUP9 DUP3 PUSH2 0x2211 JUMP JUMPDEST SWAP8 POP PUSH2 0x2275 DUP4 PUSH2 0x2228 JUMP JUMPDEST SWAP3 POP POP PUSH1 0x1 DUP2 ADD SWAP1 POP PUSH2 0x2256 JUMP JUMPDEST POP DUP6 SWAP4 POP POP POP POP SWAP3 SWAP2 POP POP JUMP JUMPDEST PUSH0 PUSH1 0x20 DUP3 ADD SWAP1 POP DUP2 DUP2 SUB PUSH0 DUP4 ADD MSTORE PUSH2 0x22A8 DUP2 DUP5 PUSH2 0x2234 JUMP JUMPDEST SWAP1 POP SWAP3 SWAP2 POP POP JUMP JUMPDEST PUSH0 DUP1 PUSH0 PUSH1 0x60 DUP5 DUP7 SUB SLT ISZERO PUSH2 0x22C7 JUMPI PUSH2 0x22C6 PUSH2 0x1B65 JUMP JUMPDEST JUMPDEST PUSH0 PUSH2 0x22D4 DUP7 DUP3 DUP8 ADD PUSH2 0x1BB3 JUMP JUMPDEST SWAP4 POP POP PUSH1 0x20 DUP5 ADD CALLDATALOAD PUSH8 0xFFFFFFFFFFFFFFFF DUP2 GT ISZERO PUSH2 0x22F5 JUMPI PUSH2 0x22F4 PUSH2 0x1B69 JUMP JUMPDEST JUMPDEST PUSH2 0x2301 DUP7 DUP3 DUP8 ADD PUSH2 0x1EFB JUMP JUMPDEST SWAP3 POP POP PUSH1 0x40 DUP5 ADD CALLDATALOAD PUSH8 0xFFFFFFFFFFFFFFFF DUP2 GT ISZERO PUSH2 0x2322 JUMPI PUSH2 0x2321 PUSH2 0x1B69 JUMP JUMPDEST JUMPDEST PUSH2 0x232E DUP7 DUP3 DUP8 ADD PUSH2 0x1EFB JUMP JUMPDEST SWAP2 POP POP SWAP3 POP SWAP3 POP SWAP3 JUMP JUMPDEST PUSH2 0x2341 DUP2 PUSH2 0x1B8C JUMP JUMPDEST DUP3 MSTORE POP POP JUMP JUMPDEST PUSH0 PUSH1 0x20 DUP3 ADD SWAP1 POP PUSH2 0x235A PUSH0 DUP4 ADD DUP5 PUSH2 0x2338 JUMP JUMPDEST SWAP3 SWAP2 POP POP JUMP JUMPDEST PUSH2 0x2369 DUP2 PUSH2 0x1CE0 JUMP JUMPDEST DUP2 EQ PUSH2 0x2373 JUMPI PUSH0 DUP1 REVERT JUMPDEST POP JUMP JUMPDEST PUSH0 DUP2 CALLDATALOAD SWAP1 POP PUSH2 0x2384 DUP2 PUSH2 0x2360 JUMP JUMPDEST SWAP3 SWAP2 POP POP JUMP JUMPDEST PUSH0 DUP1 PUSH1 0x40 DUP4 DUP6 SUB SLT ISZERO PUSH2 0x23A0 JUMPI PUSH2 0x239F PUSH2 0x1B65 JUMP JUMPDEST JUMPDEST PUSH0 PUSH2 0x23AD DUP6 DUP3 DUP7 ADD PUSH2 0x1BB3 JUMP JUMPDEST SWAP3 POP POP PUSH1 0x20 PUSH2 0x23BE DUP6 DUP3 DUP7 ADD PUSH2 0x2376 JUMP JUMPDEST SWAP2 POP POP SWAP3 POP SWAP3 SWAP1 POP JUMP JUMPDEST PUSH0 DUP1 PUSH1 0x40 DUP4 DUP6 SUB SLT ISZERO PUSH2 0x23DE JUMPI PUSH2 0x23DD PUSH2 0x1B65 JUMP JUMPDEST JUMPDEST PUSH0 PUSH2 0x23EB DUP6 DUP3 DUP7 ADD PUSH2 0x1BB3 JUMP JUMPDEST SWAP3 POP POP PUSH1 0x20 PUSH2 0x23FC DUP6 DUP3 DUP7 ADD PUSH2 0x1BB3 JUMP JUMPDEST SWAP2 POP POP SWAP3 POP SWAP3 SWAP1 POP JUMP JUMPDEST PUSH0 DUP1 PUSH0 DUP1 PUSH0 PUSH1 0xA0 DUP7 DUP9 SUB SLT ISZERO PUSH2 0x241F JUMPI PUSH2 0x241E PUSH2 0x1B65 JUMP JUMPDEST JUMPDEST PUSH0 PUSH2 0x242C DUP9 DUP3 DUP10 ADD PUSH2 0x1BB3 JUMP JUMPDEST SWAP6 POP POP PUSH1 0x20 PUSH2 0x243D DUP9 DUP3 DUP10 ADD PUSH2 0x1BB3 JUMP JUMPDEST SWAP5 POP POP PUSH1 0x40 PUSH2 0x244E DUP9 DUP3 DUP10 ADD PUSH2 0x1BE6 JUMP JUMPDEST SWAP4 POP POP PUSH1 0x60 PUSH2 0x245F DUP9 DUP3 DUP10 ADD PUSH2 0x1BE6 JUMP JUMPDEST SWAP3 POP POP PUSH1 0x80 DUP7 ADD CALLDATALOAD PUSH8 0xFFFFFFFFFFFFFFFF DUP2 GT ISZERO PUSH2 0x2480 JUMPI PUSH2 0x247F PUSH2 0x1B69 JUMP JUMPDEST JUMPDEST PUSH2 0x248C DUP9 DUP3 DUP10 ADD PUSH2 0x1FAB JUMP JUMPDEST SWAP2 POP POP SWAP3 SWAP6 POP SWAP3 SWAP6 SWAP1 SWAP4 POP JUMP JUMPDEST PUSH0 PUSH1 0x20 DUP3 DUP5 SUB SLT ISZERO PUSH2 0x24AE JUMPI PUSH2 0x24AD PUSH2 0x1B65 JUMP JUMPDEST JUMPDEST PUSH0 PUSH2 0x24BB DUP5 DUP3 DUP6 ADD PUSH2 0x1BB3 JUMP JUMPDEST SWAP2 POP POP SWAP3 SWAP2 POP POP JUMP JUMPDEST PUSH0 DUP1 PUSH0 PUSH1 0x60 DUP5 DUP7 SUB SLT ISZERO PUSH2 0x24DB JUMPI PUSH2 0x24DA PUSH2 0x1B65 JUMP JUMPDEST JUMPDEST PUSH0 PUSH2 0x24E8 DUP7 DUP3 DUP8 ADD PUSH2 0x1BB3 JUMP JUMPDEST SWAP4 POP POP PUSH1 0x20 PUSH2 0x24F9 DUP7 DUP3 DUP8 ADD PUSH2 0x1BE6 JUMP JUMPDEST SWAP3 POP POP PUSH1 0x40 PUSH2 0x250A DUP7 DUP3 DUP8 ADD PUSH2 0x1BE6 JUMP JUMPDEST SWAP2 POP POP SWAP3 POP SWAP3 POP SWAP3 JUMP JUMPDEST PUSH0 DUP2 SWAP1 POP SWAP3 SWAP2 POP POP JUMP JUMPDEST PUSH32 0x68747470733A2F2F697066732E696F2F697066732F484153482F000000000000 PUSH0 DUP3 ADD MSTORE POP JUMP JUMPDEST PUSH0 PUSH2 0x2552 PUSH1 0x1A DUP4 PUSH2 0x2514 JUMP JUMPDEST SWAP2 POP PUSH2 0x255D DUP3 PUSH2 0x251E JUMP JUMPDEST PUSH1 0x1A DUP3 ADD SWAP1 POP SWAP2 SWAP1 POP JUMP JUMPDEST PUSH0 PUSH2 0x2572 DUP3 PUSH2 0x1D3E JUMP JUMPDEST PUSH2 0x257C DUP2 DUP6 PUSH2 0x2514 JUMP JUMPDEST SWAP4 POP PUSH2 0x258C DUP2 DUP6 PUSH1 0x20 DUP7 ADD PUSH2 0x1D58 JUMP JUMPDEST DUP1 DUP5 ADD SWAP2 POP POP SWAP3 SWAP2 POP POP JUMP JUMPDEST PUSH32 0x2E6A736F6E000000000000000000000000000000000000000000000000000000 PUSH0 DUP3 ADD MSTORE POP JUMP JUMPDEST PUSH0 PUSH2 0x25CC PUSH1 0x5 DUP4 PUSH2 0x2514 JUMP JUMPDEST SWAP2 POP PUSH2 0x25D7 DUP3 PUSH2 0x2598 JUMP JUMPDEST PUSH1 0x5 DUP3 ADD SWAP1 POP SWAP2 SWAP1 POP JUMP JUMPDEST PUSH0 PUSH2 0x25EC DUP3 PUSH2 0x2546 JUMP JUMPDEST SWAP2 POP PUSH2 0x25F8 DUP3 DUP5 PUSH2 0x2568 JUMP JUMPDEST SWAP2 POP PUSH2 0x2603 DUP3 PUSH2 0x25C0 JUMP JUMPDEST SWAP2 POP DUP2 SWAP1 POP SWAP3 SWAP2 POP POP JUMP JUMPDEST PUSH0 PUSH1 0x40 DUP3 ADD SWAP1 POP PUSH2 0x2621 PUSH0 DUP4 ADD DUP6 PUSH2 0x2338 JUMP JUMPDEST PUSH2 0x262E PUSH1 0x20 DUP4 ADD DUP5 PUSH2 0x2338 JUMP JUMPDEST SWAP4 SWAP3 POP POP POP JUMP JUMPDEST PUSH0 PUSH1 0x40 DUP3 ADD SWAP1 POP PUSH2 0x2648 PUSH0 DUP4 ADD DUP6 PUSH2 0x1C38 JUMP JUMPDEST PUSH2 0x2655 PUSH1 0x20 DUP4 ADD DUP5 PUSH2 0x1C38 JUMP JUMPDEST SWAP4 SWAP3 POP POP POP JUMP JUMPDEST PUSH32 0x4E487B7100000000000000000000000000000000000000000000000000000000 PUSH0 MSTORE PUSH1 0x32 PUSH1 0x4 MSTORE PUSH1 0x24 PUSH0 REVERT JUMPDEST PUSH32 0x4E487B7100000000000000000000000000000000000000000000000000000000 PUSH0 MSTORE PUSH1 0x12 PUSH1 0x4 MSTORE PUSH1 0x24 PUSH0 REVERT JUMPDEST PUSH32 0x546F6B656E2063616E6E6F74206265207472616E736665727265642C206F6E6C PUSH0 DUP3 ADD MSTORE PUSH32 0x79206275726E6564000000000000000000000000000000000000000000000000 PUSH1 0x20 DUP3 ADD MSTORE POP JUMP JUMPDEST PUSH0 PUSH2 0x2710 PUSH1 0x28 DUP4 PUSH2 0x1D48 JUMP JUMPDEST SWAP2 POP PUSH2 0x271B DUP3 PUSH2 0x26B6 JUMP JUMPDEST PUSH1 0x40 DUP3 ADD SWAP1 POP SWAP2 SWAP1 POP JUMP JUMPDEST PUSH0 PUSH1 0x20 DUP3 ADD SWAP1 POP DUP2 DUP2 SUB PUSH0 DUP4 ADD MSTORE PUSH2 0x273D DUP2 PUSH2 0x2704 JUMP JUMPDEST SWAP1 POP SWAP2 SWAP1 POP JUMP JUMPDEST PUSH0 DUP2 MLOAD SWAP1 POP SWAP2 SWAP1 POP JUMP JUMPDEST PUSH0 DUP3 DUP3 MSTORE PUSH1 0x20 DUP3 ADD SWAP1 POP SWAP3 SWAP2 POP POP JUMP JUMPDEST PUSH0 PUSH2 0x2768 DUP3 PUSH2 0x2744 JUMP JUMPDEST PUSH2 0x2772 DUP2 DUP6 PUSH2 0x274E JUMP JUMPDEST SWAP4 POP PUSH2 0x2782 DUP2 DUP6 PUSH1 0x20 DUP7 ADD PUSH2 0x1D58 JUMP JUMPDEST PUSH2 0x278B DUP2 PUSH2 0x1D80 JUMP JUMPDEST DUP5 ADD SWAP2 POP POP SWAP3 SWAP2 POP POP JUMP JUMPDEST PUSH0 PUSH1 0xA0 DUP3 ADD SWAP1 POP PUSH2 0x27A9 PUSH0 DUP4 ADD DUP9 PUSH2 0x2338 JUMP JUMPDEST PUSH2 0x27B6 PUSH1 0x20 DUP4 ADD DUP8 PUSH2 0x2338 JUMP JUMPDEST PUSH2 0x27C3 PUSH1 0x40 DUP4 ADD DUP7 PUSH2 0x1C38 JUMP JUMPDEST PUSH2 0x27D0 PUSH1 0x60 DUP4 ADD DUP6 PUSH2 0x1C38 JUMP JUMPDEST DUP2 DUP2 SUB PUSH1 0x80 DUP4 ADD MSTORE PUSH2 0x27E2 DUP2 DUP5 PUSH2 0x275E JUMP JUMPDEST SWAP1 POP SWAP7 SWAP6 POP POP POP POP POP POP JUMP JUMPDEST PUSH0 DUP2 MLOAD SWAP1 POP PUSH2 0x27FC DUP2 PUSH2 0x1C8B JUMP JUMPDEST SWAP3 SWAP2 POP POP JUMP JUMPDEST PUSH0 PUSH1 0x20 DUP3 DUP5 SUB SLT ISZERO PUSH2 0x2817 JUMPI PUSH2 0x2816 PUSH2 0x1B65 JUMP JUMPDEST JUMPDEST PUSH0 PUSH2 0x2824 DUP5 DUP3 DUP6 ADD PUSH2 0x27EE JUMP JUMPDEST SWAP2 POP POP SWAP3 SWAP2 POP POP JUMP JUMPDEST PUSH0 PUSH1 0xA0 DUP3 ADD SWAP1 POP PUSH2 0x2840 PUSH0 DUP4 ADD DUP9 PUSH2 0x2338 JUMP JUMPDEST PUSH2 0x284D PUSH1 0x20 DUP4 ADD DUP8 PUSH2 0x2338 JUMP JUMPDEST DUP2 DUP2 SUB PUSH1 0x40 DUP4 ADD MSTORE PUSH2 0x285F DUP2 DUP7 PUSH2 0x2234 JUMP JUMPDEST SWAP1 POP DUP2 DUP2 SUB PUSH1 0x60 DUP4 ADD MSTORE PUSH2 0x2873 DUP2 DUP6 PUSH2 0x2234 JUMP JUMPDEST SWAP1 POP DUP2 DUP2 SUB PUSH1 0x80 DUP4 ADD MSTORE PUSH2 0x2887 DUP2 DUP5 PUSH2 0x275E JUMP JUMPDEST SWAP1 POP SWAP7 SWAP6 POP POP POP POP POP POP JUMP JUMPDEST PUSH0 PUSH1 0x80 DUP3 ADD SWAP1 POP PUSH2 0x28A6 PUSH0 DUP4 ADD DUP8 PUSH2 0x2338 JUMP JUMPDEST PUSH2 0x28B3 PUSH1 0x20 DUP4 ADD DUP7 PUSH2 0x1C38 JUMP JUMPDEST PUSH2 0x28C0 PUSH1 0x40 DUP4 ADD DUP6 PUSH2 0x1C38 JUMP JUMPDEST PUSH2 0x28CD PUSH1 0x60 DUP4 ADD DUP5 PUSH2 0x1C38 JUMP JUMPDEST SWAP6 SWAP5 POP POP POP POP POP JUMP JUMPDEST PUSH32 0x4E487B7100000000000000000000000000000000000000000000000000000000 PUSH0 MSTORE PUSH1 0x11 PUSH1 0x4 MSTORE PUSH1 0x24 PUSH0 REVERT JUMPDEST PUSH0 PUSH2 0x290D DUP3 PUSH2 0x1BC7 JUMP JUMPDEST SWAP2 POP PUSH2 0x2918 DUP4 PUSH2 0x1BC7 JUMP JUMPDEST SWAP3 POP DUP3 DUP3 ADD SWAP1 POP DUP1 DUP3 GT ISZERO PUSH2 0x2930 JUMPI PUSH2 0x292F PUSH2 0x28D6 JUMP JUMPDEST JUMPDEST SWAP3 SWAP2 POP POP JUMP JUMPDEST PUSH0 PUSH1 0x40 DUP3 ADD SWAP1 POP DUP2 DUP2 SUB PUSH0 DUP4 ADD MSTORE PUSH2 0x294E DUP2 DUP6 PUSH2 0x2234 JUMP JUMPDEST SWAP1 POP DUP2 DUP2 SUB PUSH1 0x20 DUP4 ADD MSTORE PUSH2 0x2962 DUP2 DUP5 PUSH2 0x2234 JUMP JUMPDEST SWAP1 POP SWAP4 SWAP3 POP POP POP JUMP INVALID PUSH9 0x747470733A2F2F6970 PUSH7 0x732E696F2F6970 PUSH7 0x732F484153482F PUSH4 0x6F6C6C65 PUSH4 0x74696F6E 0x2E PUSH11 0x736F6EA264697066735822 SLT KECCAK256 0xE0 DUP15 SWAP1 0xFB GASPRICE 0xF9 EXTCODESIZE 0xC5 0xD3 0xB2 0xE5 SLOAD 0xB7 SWAP3 0xB8 DUP14 CALLVALUE 0xAA 0xE3 0xCF 0xE4 LT 0xF8 0xD7 DUP12 0xDF 0xFB 0xB9 0xBA 0xDA STATICCALL KECCAK256 PUSH5 0x736F6C6343 STOP ADDMOD XOR STOP CALLER PUSH9 0x747470733A2F2F6970 PUSH7 0x732E696F2F6970 PUSH20 0x2F484153482F7B69647D2E6A736F6E0000000000 "
		},
		"gasEstimates": {
			"creation": {
				"codeDepositCost": "2139600",
				"executionCost": "infinite",
				"totalCost": "infinite"
			},
			"external": {
				"BACKPACK()": "370",
				"BOWL()": "348",
				"HARNESS()": "348",
				"LEASH()": "413",
				"THORS_HAMMER()": "436",
				"balanceOf(address,uint256)": "infinite",
				"balanceOfBatch(address[],uint256[])": "infinite",
				"burn(address,uint256,uint256)": "infinite",
				"burnBatch(address,uint256[],uint256[])": "infinite",
				"contractURI()": "infinite",
				"isApprovedForAll(address,address)": "infinite",
				"owner()": "2560",
				"renounceOwnership()": "infinite",
				"safeBatchTransferFrom(address,address,uint256[],uint256[],bytes)": "infinite",
				"safeTransferFrom(address,address,uint256,uint256,bytes)": "infinite",
				"setApprovalForAll(address,bool)": "infinite",
				"supportsInterface(bytes4)": "809",
				"transferOwnership(address)": "infinite",
				"uri(uint256)": "infinite"
			},
			"internal": {
				"_update(address,address,uint256[] memory,uint256[] memory)": "infinite"
			}
		},
		"methodIdentifiers": {
			"BACKPACK()": "3eb4dbf9",
			"BOWL()": "3dc845d2",
			"HARNESS()": "8c4fd3f9",
			"LEASH()": "ad39e5fd",
			"THORS_HAMMER()": "d562e204",
			"balanceOf(address,uint256)": "00fdd58e",
			"balanceOfBatch(address[],uint256[])": "4e1273f4",
			"burn(address,uint256,uint256)": "f5298aca",
			"burnBatch(address,uint256[],uint256[])": "6b20c454",
			"contractURI()": "e8a3d485",
			"isApprovedForAll(address,address)": "e985e9c5",
			"owner()": "8da5cb5b",
			"renounceOwnership()": "715018a6",
			"safeBatchTransferFrom(address,address,uint256[],uint256[],bytes)": "2eb2c2d6",
			"safeTransferFrom(address,address,uint256,uint256,bytes)": "f242432a",
			"setApprovalForAll(address,bool)": "a22cb465",
			"supportsInterface(bytes4)": "01ffc9a7",
			"transferOwnership(address)": "f2fde38b",
			"uri(uint256)": "0e89341c"
		}
	},
	"abi": [
		{
			"inputs": [],
			"stateMutability": "nonpayable",
			"type": "constructor"
		},
		{
			"inputs": [
				{
					"internalType": "address",
					"name": "sender",
					"type": "address"
				},
				{
					"internalType": "uint256",
					"name": "balance",
					"type": "uint256"
				},
				{
					"internalType": "uint256",
					"name": "needed",
					"type": "uint256"
				},
				{
					"internalType": "uint256",
					"name": "tokenId",
					"type": "uint256"
				}
			],
			"name": "ERC1155InsufficientBalance",
			"type": "error"
		},
		{
			"inputs": [
				{
					"internalType": "address",
					"name": "approver",
					"type": "address"
				}
			],
			"name": "ERC1155InvalidApprover",
			"type": "error"
		},
		{
			"inputs": [
				{
					"internalType": "uint256",
					"name": "idsLength",
					"type": "uint256"
				},
				{
					"internalType": "uint256",
					"name": "valuesLength",
					"type": "uint256"
				}
			],
			"name": "ERC1155InvalidArrayLength",
			"type": "error"
		},
		{
			"inputs": [
				{
					"internalType": "address",
					"name": "operator",
					"type": "address"
				}
			],
			"name": "ERC1155InvalidOperator",
			"type": "error"
		},
		{
			"inputs": [
				{
					"internalType": "address",
					"name": "receiver",
					"type": "address"
				}
			],
			"name": "ERC1155InvalidReceiver",
			"type": "error"
		},
		{
			"inputs": [
				{
					"internalType": "address",
					"name": "sender",
					"type": "address"
				}
			],
			"name": "ERC1155InvalidSender",
			"type": "error"
		},
		{
			"inputs": [
				{
					"internalType": "address",
					"name": "operator",
					"type": "address"
				},
				{
					"internalType": "address",
					"name": "owner",
					"type": "address"
				}
			],
			"name": "ERC1155MissingApprovalForAll",
			"type": "error"
		},
		{
			"inputs": [
				{
					"internalType": "address",
					"name": "owner",
					"type": "address"
				}
			],
			"name": "OwnableInvalidOwner",
			"type": "error"
		},
		{
			"inputs": [
				{
					"internalType": "address",
					"name": "account",
					"type": "address"
				}
			],
			"name": "OwnableUnauthorizedAccount",
			"type": "error"
		},
		{
			"anonymous": false,
			"inputs": [
				{
					"indexed": true,
					"internalType": "address",
					"name": "account",
					"type": "address"
				},
				{
					"indexed": true,
					"internalType": "address",
					"name": "operator",
					"type": "address"
				},
				{
					"indexed": false,
					"internalType": "bool",
					"name": "approved",
					"type": "bool"
				}
			],
			"name": "ApprovalForAll",
			"type": "event"
		},
		{
			"anonymous": false,
			"inputs": [
				{
					"indexed": true,
					"internalType": "address",
					"name": "previousOwner",
					"type": "address"
				},
				{
					"indexed": true,
					"internalType": "address",
					"name": "newOwner",
					"type": "address"
				}
			],
			"name": "OwnershipTransferred",
			"type": "event"
		},
		{
			"anonymous": false,
			"inputs": [
				{
					"indexed": true,
					"internalType": "address",
					"name": "operator",
					"type": "address"
				},
				{
					"indexed": true,
					"internalType": "address",
					"name": "from",
					"type": "address"
				},
				{
					"indexed": true,
					"internalType": "address",
					"name": "to",
					"type": "address"
				},
				{
					"indexed": false,
					"internalType": "uint256[]",
					"name": "ids",
					"type": "uint256[]"
				},
				{
					"indexed": false,
					"internalType": "uint256[]",
					"name": "values",
					"type": "uint256[]"
				}
			],
			"name": "TransferBatch",
			"type": "event"
		},
		{
			"anonymous": false,
			"inputs": [
				{
					"indexed": true,
					"internalType": "address",
					"name": "operator",
					"type": "address"
				},
				{
					"indexed": true,
					"internalType": "address",
					"name": "from",
					"type": "address"
				},
				{
					"indexed": true,
					"internalType": "address",
					"name": "to",
					"type": "address"
				},
				{
					"indexed": false,
					"internalType": "uint256",
					"name": "id",
					"type": "uint256"
				},
				{
					"indexed": false,
					"internalType": "uint256",
					"name": "value",
					"type": "uint256"
				}
			],
			"name": "TransferSingle",
			"type": "event"
		},
		{
			"anonymous": false,
			"inputs": [
				{
					"indexed": false,
					"internalType": "string",
					"name": "value",
					"type": "string"
				},
				{
					"indexed": true,
					"internalType": "uint256",
					"name": "id",
					"type": "uint256"
				}
			],
			"name": "URI",
			"type": "event"
		},
		{
			"inputs": [],
			"name": "BACKPACK",
			"outputs": [
				{
					"internalType": "uint256",
					"name": "",
					"type": "uint256"
				}
			],
			"stateMutability": "view",
			"type": "function"
		},
		{
			"inputs": [],
			"name": "BOWL",
			"outputs": [
				{
					"internalType": "uint256",
					"name": "",
					"type": "uint256"
				}
			],
			"stateMutability": "view",
			"type": "function"
		},
		{
			"inputs": [],
			"name": "HARNESS",
			"outputs": [
				{
					"internalType": "uint256",
					"name": "",
					"type": "uint256"
				}
			],
			"stateMutability": "view",
			"type": "function"
		},
		{
			"inputs": [],
			"name": "LEASH",
			"outputs": [
				{
					"internalType": "uint256",
					"name": "",
					"type": "uint256"
				}
			],
			"stateMutability": "view",
			"type": "function"
		},
		{
			"inputs": [],
			"name": "THORS_HAMMER",
			"outputs": [
				{
					"internalType": "uint256",
					"name": "",
					"type": "uint256"
				}
			],
			"stateMutability": "view",
			"type": "function"
		},
		{
			"inputs": [
				{
					"internalType": "address",
					"name": "account",
					"type": "address"
				},
				{
					"internalType": "uint256",
					"name": "id",
					"type": "uint256"
				}
			],
			"name": "balanceOf",
			"outputs": [
				{
					"internalType": "uint256",
					"name": "",
					"type": "uint256"
				}
			],
			"stateMutability": "view",
			"type": "function"
		},
		{
			"inputs": [
				{
					"internalType": "address[]",
					"name": "accounts",
					"type": "address[]"
				},
				{
					"internalType": "uint256[]",
					"name": "ids",
					"type": "uint256[]"
				}
			],
			"name": "balanceOfBatch",
			"outputs": [
				{
					"internalType": "uint256[]",
					"name": "",
					"type": "uint256[]"
				}
			],
			"stateMutability": "view",
			"type": "function"
		},
		{
			"inputs": [
				{
					"internalType": "address",
					"name": "account",
					"type": "address"
				},
				{
					"internalType": "uint256",
					"name": "id",
					"type": "uint256"
				},
				{
					"internalType": "uint256",
					"name": "value",
					"type": "uint256"
				}
			],
			"name": "burn",
			"outputs": [],
			"stateMutability": "nonpayable",
			"type": "function"
		},
		{
			"inputs": [
				{
					"internalType": "address",
					"name": "account",
					"type": "address"
				},
				{
					"internalType": "uint256[]",
					"name": "ids",
					"type": "uint256[]"
				},
				{
					"internalType": "uint256[]",
					"name": "values",
					"type": "uint256[]"
				}
			],
			"name": "burnBatch",
			"outputs": [],
			"stateMutability": "nonpayable",
			"type": "function"
		},
		{
			"inputs": [],
			"name": "contractURI",
			"outputs": [
				{
					"internalType": "string",
					"name": "",
					"type": "string"
				}
			],
			"stateMutability": "pure",
			"type": "function"
		},
		{
			"inputs": [
				{
					"internalType": "address",
					"name": "account",
					"type": "address"
				},
				{
					"internalType": "address",
					"name": "operator",
					"type": "address"
				}
			],
			"name": "isApprovedForAll",
			"outputs": [
				{
					"internalType": "bool",
					"name": "",
					"type": "bool"
				}
			],
			"stateMutability": "view",
			"type": "function"
		},
		{
			"inputs": [],
			"name": "owner",
			"outputs": [
				{
					"internalType": "address",
					"name": "",
					"type": "address"
				}
			],
			"stateMutability": "view",
			"type": "function"
		},
		{
			"inputs": [],
			"name": "renounceOwnership",
			"outputs": [],
			"stateMutability": "nonpayable",
			"type": "function"
		},
		{
			"inputs": [
				{
					"internalType": "address",
					"name": "from",
					"type": "address"
				},
				{
					"internalType": "address",
					"name": "to",
					"type": "address"
				},
				{
					"internalType": "uint256[]",
					"name": "ids",
					"type": "uint256[]"
				},
				{
					"internalType": "uint256[]",
					"name": "values",
					"type": "uint256[]"
				},
				{
					"internalType": "bytes",
					"name": "data",
					"type": "bytes"
				}
			],
			"name": "safeBatchTransferFrom",
			"outputs": [],
			"stateMutability": "nonpayable",
			"type": "function"
		},
		{
			"inputs": [
				{
					"internalType": "address",
					"name": "from",
					"type": "address"
				},
				{
					"internalType": "address",
					"name": "to",
					"type": "address"
				},
				{
					"internalType": "uint256",
					"name": "id",
					"type": "uint256"
				},
				{
					"internalType": "uint256",
					"name": "value",
					"type": "uint256"
				},
				{
					"internalType": "bytes",
					"name": "data",
					"type": "bytes"
				}
			],
			"name": "safeTransferFrom",
			"outputs": [],
			"stateMutability": "nonpayable",
			"type": "function"
		},
		{
			"inputs": [
				{
					"internalType": "address",
					"name": "operator",
					"type": "address"
				},
				{
					"internalType": "bool",
					"name": "approved",
					"type": "bool"
				}
			],
			"name": "setApprovalForAll",
			"outputs": [],
			"stateMutability": "nonpayable",
			"type": "function"
		},
		{
			"inputs": [
				{
					"internalType": "bytes4",
					"name": "interfaceId",
					"type": "bytes4"
				}
			],
			"name": "supportsInterface",
			"outputs": [
				{
					"internalType": "bool",
					"name": "",
					"type": "bool"
				}
			],
			"stateMutability": "view",
			"type": "function"
		},
		{
			"inputs": [
				{
					"internalType": "address",
					"name": "newOwner",
					"type": "address"
				}
			],
			"name": "transferOwnership",
			"outputs": [],
			"stateMutability": "nonpayable",
			"type": "function"
		},
		{
			"inputs": [
				{
					"internalType": "uint256",
					"name": "_tokenid",
					"type": "uint256"
				}
			],
			"name": "uri",
			"outputs": [
				{
					"internalType": "string",
					"name": "",
					"type": "string"
				}
			],
			"stateMutability": "pure",
			"type": "function"
		}
	]
}